{
	"ReverseString.sol": {
		"ReverseString": {
			"abi": [
				{
					"inputs": [
						{
							"internalType": "string",
							"name": "str",
							"type": "string"
						}
					],
					"name": "reverse1",
					"outputs": [
						{
							"internalType": "string",
							"name": "",
							"type": "string"
						}
					],
					"stateMutability": "pure",
					"type": "function"
				},
				{
					"inputs": [
						{
							"internalType": "string",
							"name": "str2",
							"type": "string"
						}
					],
					"name": "reverse2",
					"outputs": [
						{
							"internalType": "string",
							"name": "",
							"type": "string"
						}
					],
					"stateMutability": "pure",
					"type": "function"
				},
				{
					"inputs": [
						{
							"internalType": "string",
							"name": "str3",
							"type": "string"
						}
					],
					"name": "reverse3",
					"outputs": [
						{
							"internalType": "string",
							"name": "",
							"type": "string"
						}
					],
					"stateMutability": "pure",
					"type": "function"
				},
				{
					"inputs": [
						{
							"internalType": "string",
							"name": "str3",
							"type": "string"
						}
					],
					"name": "reverse4",
					"outputs": [
						{
							"internalType": "string",
							"name": "",
							"type": "string"
						}
					],
					"stateMutability": "pure",
					"type": "function"
				}
			],
			"devdoc": {
				"kind": "dev",
				"methods": {},
				"version": 1
			},
			"evm": {
				"assembly": "    /* \"ReverseString.sol\":115:2034  contract ReverseString {... */\n  mstore(0x40, 0x80)\n  callvalue\n  dup1\n  iszero\n  tag_1\n  jumpi\n  revert(0x00, 0x00)\ntag_1:\n  pop\n  dataSize(sub_0)\n  dup1\n  dataOffset(sub_0)\n  0x00\n  codecopy\n  0x00\n  return\nstop\n\nsub_0: assembly {\n        /* \"ReverseString.sol\":115:2034  contract ReverseString {... */\n      mstore(0x40, 0x80)\n      callvalue\n      dup1\n      iszero\n      tag_1\n      jumpi\n      revert(0x00, 0x00)\n    tag_1:\n      pop\n      jumpi(tag_2, lt(calldatasize, 0x04))\n      shr(0xe0, calldataload(0x00))\n      dup1\n      0x0d31b3bc\n      eq\n      tag_3\n      jumpi\n      dup1\n      0x6dfc0152\n      eq\n      tag_4\n      jumpi\n      dup1\n      0x9b09bcaa\n      eq\n      tag_5\n      jumpi\n      dup1\n      0xca65d54b\n      eq\n      tag_6\n      jumpi\n    tag_2:\n      revert(0x00, 0x00)\n        /* \"ReverseString.sol\":1183:1573  function reverse3(string memory str3) public pure returns (string memory) {... */\n    tag_3:\n      tag_7\n      0x04\n      dup1\n      calldatasize\n      sub\n      dup2\n      add\n      swap1\n      tag_8\n      swap2\n      swap1\n      tag_9\n      jump\t// in\n    tag_8:\n      tag_10\n      jump\t// in\n    tag_7:\n      mload(0x40)\n      tag_11\n      swap2\n      swap1\n      tag_12\n      jump\t// in\n    tag_11:\n      mload(0x40)\n      dup1\n      swap2\n      sub\n      swap1\n      return\n        /* \"ReverseString.sol\":794:1175  function reverse2(string memory str2) public pure returns (string memory) {... */\n    tag_4:\n      tag_13\n      0x04\n      dup1\n      calldatasize\n      sub\n      dup2\n      add\n      swap1\n      tag_14\n      swap2\n      swap1\n      tag_9\n      jump\t// in\n    tag_14:\n      tag_15\n      jump\t// in\n    tag_13:\n      mload(0x40)\n      tag_16\n      swap2\n      swap1\n      tag_12\n      jump\t// in\n    tag_16:\n      mload(0x40)\n      dup1\n      swap2\n      sub\n      swap1\n      return\n        /* \"ReverseString.sol\":181:786  function reverse1(string memory str) public pure returns (string memory) {... */\n    tag_5:\n      tag_17\n      0x04\n      dup1\n      calldatasize\n      sub\n      dup2\n      add\n      swap1\n      tag_18\n      swap2\n      swap1\n      tag_9\n      jump\t// in\n    tag_18:\n      tag_19\n      jump\t// in\n    tag_17:\n      mload(0x40)\n      tag_20\n      swap2\n      swap1\n      tag_12\n      jump\t// in\n    tag_20:\n      mload(0x40)\n      dup1\n      swap2\n      sub\n      swap1\n      return\n        /* \"ReverseString.sol\":1581:2025  function reverse4(string memory str3) public pure returns (string memory) {... */\n    tag_6:\n      tag_21\n      0x04\n      dup1\n      calldatasize\n      sub\n      dup2\n      add\n      swap1\n      tag_22\n      swap2\n      swap1\n      tag_9\n      jump\t// in\n    tag_22:\n      tag_23\n      jump\t// in\n    tag_21:\n      mload(0x40)\n      tag_24\n      swap2\n      swap1\n      tag_12\n      jump\t// in\n    tag_24:\n      mload(0x40)\n      dup1\n      swap2\n      sub\n      swap1\n      return\n        /* \"ReverseString.sol\":1183:1573  function reverse3(string memory str3) public pure returns (string memory) {... */\n    tag_10:\n        /* \"ReverseString.sol\":1242:1255  string memory */\n      0x60\n        /* \"ReverseString.sol\":1268:1284  bytes memory org */\n      0x00\n        /* \"ReverseString.sol\":1293:1297  str3 */\n      dup3\n        /* \"ReverseString.sol\":1268:1298  bytes memory org = bytes(str3) */\n      swap1\n      pop\n        /* \"ReverseString.sol\":1309:1320  uint256 len */\n      0x00\n        /* \"ReverseString.sol\":1323:1326  org */\n      dup2\n        /* \"ReverseString.sol\":1323:1333  org.length */\n      mload\n        /* \"ReverseString.sol\":1309:1333  uint256 len = org.length */\n      swap1\n      pop\n        /* \"ReverseString.sol\":1357:1358  0 */\n      0x00\n        /* \"ReverseString.sol\":1352:1355  len */\n      dup2\n        /* \"ReverseString.sol\":1352:1358  len> 0 */\n      gt\n        /* \"ReverseString.sol\":1344:1384  require(len> 0, \"Input string is empty\") */\n      tag_26\n      jumpi\n      mload(0x40)\n      0x08c379a000000000000000000000000000000000000000000000000000000000\n      dup2\n      mstore\n      0x04\n      add\n      tag_27\n      swap1\n      tag_28\n      jump\t// in\n    tag_27:\n      mload(0x40)\n      dup1\n      swap2\n      sub\n      swap1\n      revert\n    tag_26:\n        /* \"ReverseString.sol\":1412:1418  uint i */\n      0x00\n        /* \"ReverseString.sol\":1421:1422  0 */\n      0x00\n        /* \"ReverseString.sol\":1412:1422  uint i = 0 */\n      swap1\n      pop\n        /* \"ReverseString.sol\":1407:1535  for (uint i = 0; i < len/2; i++) {... */\n    tag_29:\n        /* \"ReverseString.sol\":1432:1433  2 */\n      0x02\n        /* \"ReverseString.sol\":1428:1431  len */\n      dup3\n        /* \"ReverseString.sol\":1428:1433  len/2 */\n      tag_32\n      swap2\n      swap1\n      tag_33\n      jump\t// in\n    tag_32:\n        /* \"ReverseString.sol\":1424:1425  i */\n      dup2\n        /* \"ReverseString.sol\":1424:1433  i < len/2 */\n      lt\n        /* \"ReverseString.sol\":1407:1535  for (uint i = 0; i < len/2; i++) {... */\n      iszero\n      tag_30\n      jumpi\n        /* \"ReverseString.sol\":1455:1461  uint j */\n      0x00\n        /* \"ReverseString.sol\":1474:1475  1 */\n      0x01\n        /* \"ReverseString.sol\":1471:1472  i */\n      dup3\n        /* \"ReverseString.sol\":1465:1468  len */\n      dup5\n        /* \"ReverseString.sol\":1465:1472  len - i */\n      tag_34\n      swap2\n      swap1\n      tag_35\n      jump\t// in\n    tag_34:\n        /* \"ReverseString.sol\":1465:1475  len - i -1 */\n      tag_36\n      swap2\n      swap1\n      tag_35\n      jump\t// in\n    tag_36:\n        /* \"ReverseString.sol\":1455:1475  uint j =  len - i -1 */\n      swap1\n      pop\n        /* \"ReverseString.sol\":1509:1512  org */\n      dup4\n        /* \"ReverseString.sol\":1513:1514  j */\n      dup2\n        /* \"ReverseString.sol\":1509:1515  org[j] */\n      dup2\n      mload\n      dup2\n      lt\n      tag_37\n      jumpi\n      tag_38\n      tag_39\n      jump\t// in\n    tag_38:\n    tag_37:\n      0x20\n      add\n      add\n      mload\n      0xf8\n      shr\n      0xf8\n      shl\n        /* \"ReverseString.sol\":1516:1519  org */\n      dup5\n        /* \"ReverseString.sol\":1520:1521  i */\n      dup4\n        /* \"ReverseString.sol\":1516:1522  org[i] */\n      dup2\n      mload\n      dup2\n      lt\n      tag_40\n      jumpi\n      tag_41\n      tag_39\n      jump\t// in\n    tag_41:\n    tag_40:\n      0x20\n      add\n      add\n      mload\n      0xf8\n      shr\n      0xf8\n      shl\n        /* \"ReverseString.sol\":1491:1494  org */\n      dup6\n        /* \"ReverseString.sol\":1495:1496  i */\n      dup5\n        /* \"ReverseString.sol\":1491:1497  org[i] */\n      dup2\n      mload\n      dup2\n      lt\n      tag_42\n      jumpi\n      tag_43\n      tag_39\n      jump\t// in\n    tag_43:\n    tag_42:\n      0x20\n      add\n      add\n        /* \"ReverseString.sol\":1498:1501  org */\n      dup7\n        /* \"ReverseString.sol\":1502:1503  j */\n      dup5\n        /* \"ReverseString.sol\":1498:1504  org[j] */\n      dup2\n      mload\n      dup2\n      lt\n      tag_44\n      jumpi\n      tag_45\n      tag_39\n      jump\t// in\n    tag_45:\n    tag_44:\n      0x20\n      add\n      add\n        /* \"ReverseString.sol\":1490:1523  (org[i],org[j]) = (org[j],org[i]) */\n      dup3\n      not(0xffffffffffffffffffffffffffffffffffffffffffffffffffffffffffffff)\n      and\n      0x00\n      byte\n      swap1\n      mstore8\n      dup3\n      not(0xffffffffffffffffffffffffffffffffffffffffffffffffffffffffffffff)\n      and\n      0x00\n      byte\n      swap1\n      mstore8\n      pop\n      pop\n        /* \"ReverseString.sol\":1440:1535  {... */\n      pop\n        /* \"ReverseString.sol\":1435:1438  i++ */\n      dup1\n      dup1\n      0x01\n      add\n      swap2\n      pop\n      pop\n        /* \"ReverseString.sol\":1407:1535  for (uint i = 0; i < len/2; i++) {... */\n      jump(tag_29)\n    tag_30:\n      pop\n        /* \"ReverseString.sol\":1561:1564  org */\n      dup2\n        /* \"ReverseString.sol\":1547:1565  return string(org) */\n      swap3\n      pop\n      pop\n      pop\n        /* \"ReverseString.sol\":1183:1573  function reverse3(string memory str3) public pure returns (string memory) {... */\n      swap2\n      swap1\n      pop\n      jump\t// out\n        /* \"ReverseString.sol\":794:1175  function reverse2(string memory str2) public pure returns (string memory) {... */\n    tag_15:\n        /* \"ReverseString.sol\":853:866  string memory */\n      0x60\n        /* \"ReverseString.sol\":879:895  bytes memory org */\n      0x00\n        /* \"ReverseString.sol\":904:908  str2 */\n      dup3\n        /* \"ReverseString.sol\":879:909  bytes memory org = bytes(str2) */\n      swap1\n      pop\n        /* \"ReverseString.sol\":920:931  uint256 len */\n      0x00\n        /* \"ReverseString.sol\":934:937  org */\n      dup2\n        /* \"ReverseString.sol\":934:944  org.length */\n      mload\n        /* \"ReverseString.sol\":920:944  uint256 len = org.length */\n      swap1\n      pop\n        /* \"ReverseString.sol\":968:969  0 */\n      0x00\n        /* \"ReverseString.sol\":963:966  len */\n      dup2\n        /* \"ReverseString.sol\":963:969  len> 0 */\n      gt\n        /* \"ReverseString.sol\":955:995  require(len> 0, \"Input string is empty\") */\n      tag_47\n      jumpi\n      mload(0x40)\n      0x08c379a000000000000000000000000000000000000000000000000000000000\n      dup2\n      mstore\n      0x04\n      add\n      tag_48\n      swap1\n      tag_28\n      jump\t// in\n    tag_48:\n      mload(0x40)\n      dup1\n      swap2\n      sub\n      swap1\n      revert\n    tag_47:\n        /* \"ReverseString.sol\":1006:1023  bytes memory resb */\n      0x00\n        /* \"ReverseString.sol\":1036:1039  len */\n      dup2\n        /* \"ReverseString.sol\":1026:1040  new bytes(len) */\n      0xffffffffffffffff\n      dup2\n      gt\n      iszero\n      tag_49\n      jumpi\n      tag_50\n      tag_51\n      jump\t// in\n    tag_50:\n    tag_49:\n      mload(0x40)\n      swap1\n      dup1\n      dup3\n      mstore\n      dup1\n      0x1f\n      add\n      not(0x1f)\n      and\n      0x20\n      add\n      dup3\n      add\n      0x40\n      mstore\n      dup1\n      iszero\n      tag_52\n      jumpi\n      dup2\n      0x20\n      add\n      0x01\n      dup3\n      mul\n      dup1\n      calldatasize\n      dup4\n      calldatacopy\n      dup1\n      dup3\n      add\n      swap2\n      pop\n      pop\n      swap1\n      pop\n    tag_52:\n      pop\n        /* \"ReverseString.sol\":1006:1040  bytes memory resb = new bytes(len) */\n      swap1\n      pop\n        /* \"ReverseString.sol\":1058:1064  uint i */\n      0x00\n        /* \"ReverseString.sol\":1067:1068  0 */\n      0x00\n        /* \"ReverseString.sol\":1058:1068  uint i = 0 */\n      swap1\n      pop\n        /* \"ReverseString.sol\":1053:1136  for (uint i = 0; i < len; i++) {... */\n    tag_53:\n        /* \"ReverseString.sol\":1074:1077  len */\n      dup3\n        /* \"ReverseString.sol\":1070:1071  i */\n      dup2\n        /* \"ReverseString.sol\":1070:1077  i < len */\n      lt\n        /* \"ReverseString.sol\":1053:1136  for (uint i = 0; i < len; i++) {... */\n      iszero\n      tag_54\n      jumpi\n        /* \"ReverseString.sol\":1109:1112  org */\n      dup4\n        /* \"ReverseString.sol\":1122:1123  1 */\n      0x01\n        /* \"ReverseString.sol\":1118:1119  i */\n      dup3\n        /* \"ReverseString.sol\":1113:1116  len */\n      dup6\n        /* \"ReverseString.sol\":1113:1119  len -i */\n      tag_56\n      swap2\n      swap1\n      tag_35\n      jump\t// in\n    tag_56:\n        /* \"ReverseString.sol\":1113:1123  len -i - 1 */\n      tag_57\n      swap2\n      swap1\n      tag_35\n      jump\t// in\n    tag_57:\n        /* \"ReverseString.sol\":1109:1124  org[len -i - 1] */\n      dup2\n      mload\n      dup2\n      lt\n      tag_58\n      jumpi\n      tag_59\n      tag_39\n      jump\t// in\n    tag_59:\n    tag_58:\n      0x20\n      add\n      add\n      mload\n      0xf8\n      shr\n      0xf8\n      shl\n        /* \"ReverseString.sol\":1099:1103  resb */\n      dup3\n        /* \"ReverseString.sol\":1104:1105  i */\n      dup3\n        /* \"ReverseString.sol\":1099:1106  resb[i] */\n      dup2\n      mload\n      dup2\n      lt\n      tag_60\n      jumpi\n      tag_61\n      tag_39\n      jump\t// in\n    tag_61:\n    tag_60:\n      0x20\n      add\n      add\n        /* \"ReverseString.sol\":1099:1124  resb[i] = org[len -i - 1] */\n      swap1\n      not(0xffffffffffffffffffffffffffffffffffffffffffffffffffffffffffffff)\n      and\n      swap1\n      dup2\n      0x00\n      byte\n      swap1\n      mstore8\n      pop\n        /* \"ReverseString.sol\":1079:1082  i++ */\n      dup1\n      dup1\n      0x01\n      add\n      swap2\n      pop\n      pop\n        /* \"ReverseString.sol\":1053:1136  for (uint i = 0; i < len; i++) {... */\n      jump(tag_53)\n    tag_54:\n      pop\n        /* \"ReverseString.sol\":1160:1164  resb */\n      dup1\n        /* \"ReverseString.sol\":1146:1165  return string(resb) */\n      swap4\n      pop\n      pop\n      pop\n      pop\n        /* \"ReverseString.sol\":794:1175  function reverse2(string memory str2) public pure returns (string memory) {... */\n      swap2\n      swap1\n      pop\n      jump\t// out\n        /* \"ReverseString.sol\":181:786  function reverse1(string memory str) public pure returns (string memory) {... */\n    tag_19:\n        /* \"ReverseString.sol\":239:252  string memory */\n      0x60\n        /* \"ReverseString.sol\":265:281  bytes memory org */\n      0x00\n        /* \"ReverseString.sol\":290:293  str */\n      dup3\n        /* \"ReverseString.sol\":265:294  bytes memory org = bytes(str) */\n      swap1\n      pop\n        /* \"ReverseString.sol\":307:318  uint256 len */\n      0x00\n        /* \"ReverseString.sol\":321:324  org */\n      dup2\n        /* \"ReverseString.sol\":321:331  org.length */\n      mload\n        /* \"ReverseString.sol\":307:331  uint256 len = org.length */\n      swap1\n      pop\n        /* \"ReverseString.sol\":342:359  bytes memory resb */\n      0x00\n        /* \"ReverseString.sol\":372:375  len */\n      dup2\n        /* \"ReverseString.sol\":362:376  new bytes(len) */\n      0xffffffffffffffff\n      dup2\n      gt\n      iszero\n      tag_63\n      jumpi\n      tag_64\n      tag_51\n      jump\t// in\n    tag_64:\n    tag_63:\n      mload(0x40)\n      swap1\n      dup1\n      dup3\n      mstore\n      dup1\n      0x1f\n      add\n      not(0x1f)\n      and\n      0x20\n      add\n      dup3\n      add\n      0x40\n      mstore\n      dup1\n      iszero\n      tag_65\n      jumpi\n      dup2\n      0x20\n      add\n      0x01\n      dup3\n      mul\n      dup1\n      calldatasize\n      dup4\n      calldatacopy\n      dup1\n      dup3\n      add\n      swap2\n      pop\n      pop\n      swap1\n      pop\n    tag_65:\n      pop\n        /* \"ReverseString.sol\":342:376  bytes memory resb = new bytes(len) */\n      swap1\n      pop\n        /* \"ReverseString.sol\":410:411  0 */\n      0x00\n        /* \"ReverseString.sol\":405:408  len */\n      dup3\n        /* \"ReverseString.sol\":405:411  len> 0 */\n      gt\n        /* \"ReverseString.sol\":397:437  require(len> 0, \"Input string is empty\") */\n      tag_66\n      jumpi\n      mload(0x40)\n      0x08c379a000000000000000000000000000000000000000000000000000000000\n      dup2\n      mstore\n      0x04\n      add\n      tag_67\n      swap1\n      tag_28\n      jump\t// in\n    tag_67:\n      mload(0x40)\n      dup1\n      swap2\n      sub\n      swap1\n      revert\n    tag_66:\n        /* \"ReverseString.sol\":449:455  uint j */\n      0x00\n        /* \"ReverseString.sol\":458:459  0 */\n      0x00\n        /* \"ReverseString.sol\":449:459  uint j = 0 */\n      swap1\n      pop\n        /* \"ReverseString.sol\":476:482  uint i */\n      0x00\n        /* \"ReverseString.sol\":485:486  0 */\n      0x00\n        /* \"ReverseString.sol\":476:486  uint i = 0 */\n      swap1\n      pop\n        /* \"ReverseString.sol\":470:597  for ( uint i = 0; i <2 ; i++ ) {... */\n    tag_68:\n        /* \"ReverseString.sol\":491:492  2 */\n      0x02\n        /* \"ReverseString.sol\":488:489  i */\n      dup2\n        /* \"ReverseString.sol\":488:492  i <2 */\n      lt\n        /* \"ReverseString.sol\":470:597  for ( uint i = 0; i <2 ; i++ ) {... */\n      iszero\n      tag_69\n      jumpi\n        /* \"ReverseString.sol\":495:498  i++ */\n      dup1\n      dup1\n      0x01\n      add\n      swap2\n      pop\n      pop\n        /* \"ReverseString.sol\":470:597  for ( uint i = 0; i <2 ; i++ ) {... */\n      jump(tag_68)\n    tag_69:\n      pop\n        /* \"ReverseString.sol\":614:619  int i */\n      0x00\n        /* \"ReverseString.sol\":632:633  1 */\n      0x01\n        /* \"ReverseString.sol\":626:629  len */\n      dup5\n        /* \"ReverseString.sol\":626:633  len - 1 */\n      tag_74\n      swap2\n      swap1\n      tag_35\n      jump\t// in\n    tag_74:\n        /* \"ReverseString.sol\":614:634  int i = int(len - 1) */\n      swap1\n      pop\n        /* \"ReverseString.sol\":609:714  for (int i = int(len - 1); i >=0; i--){... */\n    tag_71:\n        /* \"ReverseString.sol\":640:641  0 */\n      0x00\n        /* \"ReverseString.sol\":636:637  i */\n      dup2\n        /* \"ReverseString.sol\":636:641  i >=0 */\n      slt\n        /* \"ReverseString.sol\":609:714  for (int i = int(len - 1); i >=0; i--){... */\n      tag_72\n      jumpi\n        /* \"ReverseString.sol\":672:675  org */\n      dup5\n        /* \"ReverseString.sol\":681:682  i */\n      dup2\n        /* \"ReverseString.sol\":672:684  org[uint(i)] */\n      dup2\n      mload\n      dup2\n      lt\n      tag_75\n      jumpi\n      tag_76\n      tag_39\n      jump\t// in\n    tag_76:\n    tag_75:\n      0x20\n      add\n      add\n      mload\n      0xf8\n      shr\n      0xf8\n      shl\n        /* \"ReverseString.sol\":662:666  resb */\n      dup4\n        /* \"ReverseString.sol\":667:668  j */\n      dup4\n        /* \"ReverseString.sol\":662:669  resb[j] */\n      dup2\n      mload\n      dup2\n      lt\n      tag_77\n      jumpi\n      tag_78\n      tag_39\n      jump\t// in\n    tag_78:\n    tag_77:\n      0x20\n      add\n      add\n        /* \"ReverseString.sol\":662:684  resb[j] = org[uint(i)] */\n      swap1\n      not(0xffffffffffffffffffffffffffffffffffffffffffffffffffffffffffffff)\n      and\n      swap1\n      dup2\n      0x00\n      byte\n      swap1\n      mstore8\n      pop\n        /* \"ReverseString.sol\":699:702  j++ */\n      dup2\n      dup1\n      tag_79\n      swap1\n      tag_80\n      jump\t// in\n    tag_79:\n      swap3\n      pop\n      pop\n        /* \"ReverseString.sol\":643:646  i-- */\n      dup1\n      dup1\n      tag_81\n      swap1\n      tag_82\n      jump\t// in\n    tag_81:\n      swap2\n      pop\n      pop\n        /* \"ReverseString.sol\":609:714  for (int i = int(len - 1); i >=0; i--){... */\n      jump(tag_71)\n    tag_72:\n      pop\n        /* \"ReverseString.sol\":738:742  resb */\n      dup2\n        /* \"ReverseString.sol\":724:743  return string(resb) */\n      swap5\n      pop\n      pop\n      pop\n      pop\n      pop\n        /* \"ReverseString.sol\":181:786  function reverse1(string memory str) public pure returns (string memory) {... */\n      swap2\n      swap1\n      pop\n      jump\t// out\n        /* \"ReverseString.sol\":1581:2025  function reverse4(string memory str3) public pure returns (string memory) {... */\n    tag_23:\n        /* \"ReverseString.sol\":1640:1653  string memory */\n      0x60\n        /* \"ReverseString.sol\":1666:1682  bytes memory org */\n      0x00\n        /* \"ReverseString.sol\":1691:1695  str3 */\n      dup3\n        /* \"ReverseString.sol\":1666:1696  bytes memory org = bytes(str3) */\n      swap1\n      pop\n        /* \"ReverseString.sol\":1707:1718  uint256 len */\n      0x00\n        /* \"ReverseString.sol\":1721:1724  org */\n      dup2\n        /* \"ReverseString.sol\":1721:1731  org.length */\n      mload\n        /* \"ReverseString.sol\":1707:1731  uint256 len = org.length */\n      swap1\n      pop\n        /* \"ReverseString.sol\":1755:1756  0 */\n      0x00\n        /* \"ReverseString.sol\":1750:1753  len */\n      dup2\n        /* \"ReverseString.sol\":1750:1756  len> 0 */\n      gt\n        /* \"ReverseString.sol\":1742:1782  require(len> 0, \"Input string is empty\") */\n      tag_84\n      jumpi\n      mload(0x40)\n      0x08c379a000000000000000000000000000000000000000000000000000000000\n      dup2\n      mstore\n      0x04\n      add\n      tag_85\n      swap1\n      tag_28\n      jump\t// in\n    tag_85:\n      mload(0x40)\n      dup1\n      swap2\n      sub\n      swap1\n      revert\n    tag_84:\n        /* \"ReverseString.sol\":1810:1816  uint i */\n      0x00\n        /* \"ReverseString.sol\":1819:1820  0 */\n      0x00\n        /* \"ReverseString.sol\":1810:1820  uint i = 0 */\n      swap1\n      pop\n        /* \"ReverseString.sol\":1805:1987  for (uint i = 0; i < len/2; i++) {... */\n    tag_86:\n        /* \"ReverseString.sol\":1830:1831  2 */\n      0x02\n        /* \"ReverseString.sol\":1826:1829  len */\n      dup3\n        /* \"ReverseString.sol\":1826:1831  len/2 */\n      tag_89\n      swap2\n      swap1\n      tag_33\n      jump\t// in\n    tag_89:\n        /* \"ReverseString.sol\":1822:1823  i */\n      dup2\n        /* \"ReverseString.sol\":1822:1831  i < len/2 */\n      lt\n        /* \"ReverseString.sol\":1805:1987  for (uint i = 0; i < len/2; i++) {... */\n      iszero\n      tag_87\n      jumpi\n        /* \"ReverseString.sol\":1853:1859  uint j */\n      0x00\n        /* \"ReverseString.sol\":1872:1873  1 */\n      0x01\n        /* \"ReverseString.sol\":1869:1870  i */\n      dup3\n        /* \"ReverseString.sol\":1863:1866  len */\n      dup5\n        /* \"ReverseString.sol\":1863:1870  len - i */\n      tag_90\n      swap2\n      swap1\n      tag_35\n      jump\t// in\n    tag_90:\n        /* \"ReverseString.sol\":1863:1873  len - i -1 */\n      tag_91\n      swap2\n      swap1\n      tag_35\n      jump\t// in\n    tag_91:\n        /* \"ReverseString.sol\":1853:1873  uint j =  len - i -1 */\n      swap1\n      pop\n        /* \"ReverseString.sol\":1899:1908  bytes1 bb */\n      0x00\n        /* \"ReverseString.sol\":1911:1914  org */\n      dup5\n        /* \"ReverseString.sol\":1915:1916  j */\n      dup3\n        /* \"ReverseString.sol\":1911:1917  org[j] */\n      dup2\n      mload\n      dup2\n      lt\n      tag_92\n      jumpi\n      tag_93\n      tag_39\n      jump\t// in\n    tag_93:\n    tag_92:\n      0x20\n      add\n      add\n      mload\n      0xf8\n      shr\n      0xf8\n      shl\n        /* \"ReverseString.sol\":1899:1917  bytes1 bb = org[j] */\n      swap1\n      pop\n        /* \"ReverseString.sol\":1941:1944  org */\n      dup5\n        /* \"ReverseString.sol\":1945:1946  i */\n      dup4\n        /* \"ReverseString.sol\":1941:1947  org[i] */\n      dup2\n      mload\n      dup2\n      lt\n      tag_94\n      jumpi\n      tag_95\n      tag_39\n      jump\t// in\n    tag_95:\n    tag_94:\n      0x20\n      add\n      add\n      mload\n      0xf8\n      shr\n      0xf8\n      shl\n        /* \"ReverseString.sol\":1932:1935  org */\n      dup6\n        /* \"ReverseString.sol\":1936:1937  j */\n      dup4\n        /* \"ReverseString.sol\":1932:1938  org[j] */\n      dup2\n      mload\n      dup2\n      lt\n      tag_96\n      jumpi\n      tag_97\n      tag_39\n      jump\t// in\n    tag_97:\n    tag_96:\n      0x20\n      add\n      add\n        /* \"ReverseString.sol\":1932:1947  org[j] = org[i] */\n      swap1\n      not(0xffffffffffffffffffffffffffffffffffffffffffffffffffffffffffffff)\n      and\n      swap1\n      dup2\n      0x00\n      byte\n      swap1\n      mstore8\n      pop\n        /* \"ReverseString.sol\":1971:1973  bb */\n      dup1\n        /* \"ReverseString.sol\":1962:1965  org */\n      dup6\n        /* \"ReverseString.sol\":1966:1967  i */\n      dup5\n        /* \"ReverseString.sol\":1962:1968  org[i] */\n      dup2\n      mload\n      dup2\n      lt\n      tag_98\n      jumpi\n      tag_99\n      tag_39\n      jump\t// in\n    tag_99:\n    tag_98:\n      0x20\n      add\n      add\n        /* \"ReverseString.sol\":1962:1973  org[i] = bb */\n      swap1\n      not(0xffffffffffffffffffffffffffffffffffffffffffffffffffffffffffffff)\n      and\n      swap1\n      dup2\n      0x00\n      byte\n      swap1\n      mstore8\n      pop\n        /* \"ReverseString.sol\":1838:1987  {... */\n      pop\n      pop\n        /* \"ReverseString.sol\":1833:1836  i++ */\n      dup1\n      dup1\n      0x01\n      add\n      swap2\n      pop\n      pop\n        /* \"ReverseString.sol\":1805:1987  for (uint i = 0; i < len/2; i++) {... */\n      jump(tag_86)\n    tag_87:\n      pop\n        /* \"ReverseString.sol\":2013:2016  org */\n      dup2\n        /* \"ReverseString.sol\":1999:2017  return string(org) */\n      swap3\n      pop\n      pop\n      pop\n        /* \"ReverseString.sol\":1581:2025  function reverse4(string memory str3) public pure returns (string memory) {... */\n      swap2\n      swap1\n      pop\n      jump\t// out\n        /* \"#utility.yul\":7:82   */\n    tag_100:\n        /* \"#utility.yul\":40:46   */\n      0x00\n        /* \"#utility.yul\":73:75   */\n      0x40\n        /* \"#utility.yul\":67:76   */\n      mload\n        /* \"#utility.yul\":57:76   */\n      swap1\n      pop\n        /* \"#utility.yul\":7:82   */\n      swap1\n      jump\t// out\n        /* \"#utility.yul\":88:205   */\n    tag_101:\n        /* \"#utility.yul\":197:198   */\n      0x00\n        /* \"#utility.yul\":194:195   */\n      0x00\n        /* \"#utility.yul\":187:199   */\n      revert\n        /* \"#utility.yul\":211:328   */\n    tag_102:\n        /* \"#utility.yul\":320:321   */\n      0x00\n        /* \"#utility.yul\":317:318   */\n      0x00\n        /* \"#utility.yul\":310:322   */\n      revert\n        /* \"#utility.yul\":334:451   */\n    tag_103:\n        /* \"#utility.yul\":443:444   */\n      0x00\n        /* \"#utility.yul\":440:441   */\n      0x00\n        /* \"#utility.yul\":433:445   */\n      revert\n        /* \"#utility.yul\":457:574   */\n    tag_104:\n        /* \"#utility.yul\":566:567   */\n      0x00\n        /* \"#utility.yul\":563:564   */\n      0x00\n        /* \"#utility.yul\":556:568   */\n      revert\n        /* \"#utility.yul\":580:682   */\n    tag_105:\n        /* \"#utility.yul\":621:627   */\n      0x00\n        /* \"#utility.yul\":672:674   */\n      0x1f\n        /* \"#utility.yul\":668:675   */\n      not\n        /* \"#utility.yul\":663:665   */\n      0x1f\n        /* \"#utility.yul\":656:661   */\n      dup4\n        /* \"#utility.yul\":652:666   */\n      add\n        /* \"#utility.yul\":648:676   */\n      and\n        /* \"#utility.yul\":638:676   */\n      swap1\n      pop\n        /* \"#utility.yul\":580:682   */\n      swap2\n      swap1\n      pop\n      jump\t// out\n        /* \"#utility.yul\":688:868   */\n    tag_51:\n        /* \"#utility.yul\":736:813   */\n      0x4e487b7100000000000000000000000000000000000000000000000000000000\n        /* \"#utility.yul\":733:734   */\n      0x00\n        /* \"#utility.yul\":726:814   */\n      mstore\n        /* \"#utility.yul\":833:837   */\n      0x41\n        /* \"#utility.yul\":830:831   */\n      0x04\n        /* \"#utility.yul\":823:838   */\n      mstore\n        /* \"#utility.yul\":857:861   */\n      0x24\n        /* \"#utility.yul\":854:855   */\n      0x00\n        /* \"#utility.yul\":847:862   */\n      revert\n        /* \"#utility.yul\":874:1155   */\n    tag_106:\n        /* \"#utility.yul\":957:984   */\n      tag_131\n        /* \"#utility.yul\":979:983   */\n      dup3\n        /* \"#utility.yul\":957:984   */\n      tag_105\n      jump\t// in\n    tag_131:\n        /* \"#utility.yul\":949:955   */\n      dup2\n        /* \"#utility.yul\":945:985   */\n      add\n        /* \"#utility.yul\":1087:1093   */\n      dup2\n        /* \"#utility.yul\":1075:1085   */\n      dup2\n        /* \"#utility.yul\":1072:1094   */\n      lt\n        /* \"#utility.yul\":1051:1069   */\n      0xffffffffffffffff\n        /* \"#utility.yul\":1039:1049   */\n      dup3\n        /* \"#utility.yul\":1036:1070   */\n      gt\n        /* \"#utility.yul\":1033:1095   */\n      or\n        /* \"#utility.yul\":1030:1118   */\n      iszero\n      tag_132\n      jumpi\n        /* \"#utility.yul\":1098:1116   */\n      tag_133\n      tag_51\n      jump\t// in\n    tag_133:\n        /* \"#utility.yul\":1030:1118   */\n    tag_132:\n        /* \"#utility.yul\":1138:1148   */\n      dup1\n        /* \"#utility.yul\":1134:1136   */\n      0x40\n        /* \"#utility.yul\":1127:1149   */\n      mstore\n        /* \"#utility.yul\":917:1155   */\n      pop\n        /* \"#utility.yul\":874:1155   */\n      pop\n      pop\n      jump\t// out\n        /* \"#utility.yul\":1161:1290   */\n    tag_107:\n        /* \"#utility.yul\":1195:1201   */\n      0x00\n        /* \"#utility.yul\":1222:1242   */\n      tag_135\n      tag_100\n      jump\t// in\n    tag_135:\n        /* \"#utility.yul\":1212:1242   */\n      swap1\n      pop\n        /* \"#utility.yul\":1251:1284   */\n      tag_136\n        /* \"#utility.yul\":1279:1283   */\n      dup3\n        /* \"#utility.yul\":1271:1277   */\n      dup3\n        /* \"#utility.yul\":1251:1284   */\n      tag_106\n      jump\t// in\n    tag_136:\n        /* \"#utility.yul\":1161:1290   */\n      swap2\n      swap1\n      pop\n      jump\t// out\n        /* \"#utility.yul\":1296:1604   */\n    tag_108:\n        /* \"#utility.yul\":1358:1362   */\n      0x00\n        /* \"#utility.yul\":1448:1466   */\n      0xffffffffffffffff\n        /* \"#utility.yul\":1440:1446   */\n      dup3\n        /* \"#utility.yul\":1437:1467   */\n      gt\n        /* \"#utility.yul\":1434:1490   */\n      iszero\n      tag_138\n      jumpi\n        /* \"#utility.yul\":1470:1488   */\n      tag_139\n      tag_51\n      jump\t// in\n    tag_139:\n        /* \"#utility.yul\":1434:1490   */\n    tag_138:\n        /* \"#utility.yul\":1508:1537   */\n      tag_140\n        /* \"#utility.yul\":1530:1536   */\n      dup3\n        /* \"#utility.yul\":1508:1537   */\n      tag_105\n      jump\t// in\n    tag_140:\n        /* \"#utility.yul\":1500:1537   */\n      swap1\n      pop\n        /* \"#utility.yul\":1592:1596   */\n      0x20\n        /* \"#utility.yul\":1586:1590   */\n      dup2\n        /* \"#utility.yul\":1582:1597   */\n      add\n        /* \"#utility.yul\":1574:1597   */\n      swap1\n      pop\n        /* \"#utility.yul\":1296:1604   */\n      swap2\n      swap1\n      pop\n      jump\t// out\n        /* \"#utility.yul\":1610:1758   */\n    tag_109:\n        /* \"#utility.yul\":1708:1714   */\n      dup3\n        /* \"#utility.yul\":1703:1706   */\n      dup2\n        /* \"#utility.yul\":1698:1701   */\n      dup4\n        /* \"#utility.yul\":1685:1715   */\n      calldatacopy\n        /* \"#utility.yul\":1749:1750   */\n      0x00\n        /* \"#utility.yul\":1740:1746   */\n      dup4\n        /* \"#utility.yul\":1735:1738   */\n      dup4\n        /* \"#utility.yul\":1731:1747   */\n      add\n        /* \"#utility.yul\":1724:1751   */\n      mstore\n        /* \"#utility.yul\":1610:1758   */\n      pop\n      pop\n      pop\n      jump\t// out\n        /* \"#utility.yul\":1764:2189   */\n    tag_110:\n        /* \"#utility.yul\":1842:1847   */\n      0x00\n        /* \"#utility.yul\":1867:1933   */\n      tag_143\n        /* \"#utility.yul\":1883:1932   */\n      tag_144\n        /* \"#utility.yul\":1925:1931   */\n      dup5\n        /* \"#utility.yul\":1883:1932   */\n      tag_108\n      jump\t// in\n    tag_144:\n        /* \"#utility.yul\":1867:1933   */\n      tag_107\n      jump\t// in\n    tag_143:\n        /* \"#utility.yul\":1858:1933   */\n      swap1\n      pop\n        /* \"#utility.yul\":1956:1962   */\n      dup3\n        /* \"#utility.yul\":1949:1954   */\n      dup2\n        /* \"#utility.yul\":1942:1963   */\n      mstore\n        /* \"#utility.yul\":1994:1998   */\n      0x20\n        /* \"#utility.yul\":1987:1992   */\n      dup2\n        /* \"#utility.yul\":1983:1999   */\n      add\n        /* \"#utility.yul\":2032:2035   */\n      dup5\n        /* \"#utility.yul\":2023:2029   */\n      dup5\n        /* \"#utility.yul\":2018:2021   */\n      dup5\n        /* \"#utility.yul\":2014:2030   */\n      add\n        /* \"#utility.yul\":2011:2036   */\n      gt\n        /* \"#utility.yul\":2008:2120   */\n      iszero\n      tag_145\n      jumpi\n        /* \"#utility.yul\":2039:2118   */\n      tag_146\n      tag_104\n      jump\t// in\n    tag_146:\n        /* \"#utility.yul\":2008:2120   */\n    tag_145:\n        /* \"#utility.yul\":2129:2183   */\n      tag_147\n        /* \"#utility.yul\":2176:2182   */\n      dup5\n        /* \"#utility.yul\":2171:2174   */\n      dup3\n        /* \"#utility.yul\":2166:2169   */\n      dup6\n        /* \"#utility.yul\":2129:2183   */\n      tag_109\n      jump\t// in\n    tag_147:\n        /* \"#utility.yul\":1848:2189   */\n      pop\n        /* \"#utility.yul\":1764:2189   */\n      swap4\n      swap3\n      pop\n      pop\n      pop\n      jump\t// out\n        /* \"#utility.yul\":2209:2549   */\n    tag_111:\n        /* \"#utility.yul\":2265:2270   */\n      0x00\n        /* \"#utility.yul\":2314:2317   */\n      dup3\n        /* \"#utility.yul\":2307:2311   */\n      0x1f\n        /* \"#utility.yul\":2299:2305   */\n      dup4\n        /* \"#utility.yul\":2295:2312   */\n      add\n        /* \"#utility.yul\":2291:2318   */\n      slt\n        /* \"#utility.yul\":2281:2403   */\n      tag_149\n      jumpi\n        /* \"#utility.yul\":2322:2401   */\n      tag_150\n      tag_103\n      jump\t// in\n    tag_150:\n        /* \"#utility.yul\":2281:2403   */\n    tag_149:\n        /* \"#utility.yul\":2439:2445   */\n      dup2\n        /* \"#utility.yul\":2426:2446   */\n      calldataload\n        /* \"#utility.yul\":2464:2543   */\n      tag_151\n        /* \"#utility.yul\":2539:2542   */\n      dup5\n        /* \"#utility.yul\":2531:2537   */\n      dup3\n        /* \"#utility.yul\":2524:2528   */\n      0x20\n        /* \"#utility.yul\":2516:2522   */\n      dup7\n        /* \"#utility.yul\":2512:2529   */\n      add\n        /* \"#utility.yul\":2464:2543   */\n      tag_110\n      jump\t// in\n    tag_151:\n        /* \"#utility.yul\":2455:2543   */\n      swap2\n      pop\n        /* \"#utility.yul\":2271:2549   */\n      pop\n        /* \"#utility.yul\":2209:2549   */\n      swap3\n      swap2\n      pop\n      pop\n      jump\t// out\n        /* \"#utility.yul\":2555:3064   */\n    tag_9:\n        /* \"#utility.yul\":2624:2630   */\n      0x00\n        /* \"#utility.yul\":2673:2675   */\n      0x20\n        /* \"#utility.yul\":2661:2670   */\n      dup3\n        /* \"#utility.yul\":2652:2659   */\n      dup5\n        /* \"#utility.yul\":2648:2671   */\n      sub\n        /* \"#utility.yul\":2644:2676   */\n      slt\n        /* \"#utility.yul\":2641:2760   */\n      iszero\n      tag_153\n      jumpi\n        /* \"#utility.yul\":2679:2758   */\n      tag_154\n      tag_101\n      jump\t// in\n    tag_154:\n        /* \"#utility.yul\":2641:2760   */\n    tag_153:\n        /* \"#utility.yul\":2827:2828   */\n      0x00\n        /* \"#utility.yul\":2816:2825   */\n      dup3\n        /* \"#utility.yul\":2812:2829   */\n      add\n        /* \"#utility.yul\":2799:2830   */\n      calldataload\n        /* \"#utility.yul\":2857:2875   */\n      0xffffffffffffffff\n        /* \"#utility.yul\":2849:2855   */\n      dup2\n        /* \"#utility.yul\":2846:2876   */\n      gt\n        /* \"#utility.yul\":2843:2960   */\n      iszero\n      tag_155\n      jumpi\n        /* \"#utility.yul\":2879:2958   */\n      tag_156\n      tag_102\n      jump\t// in\n    tag_156:\n        /* \"#utility.yul\":2843:2960   */\n    tag_155:\n        /* \"#utility.yul\":2984:3047   */\n      tag_157\n        /* \"#utility.yul\":3039:3046   */\n      dup5\n        /* \"#utility.yul\":3030:3036   */\n      dup3\n        /* \"#utility.yul\":3019:3028   */\n      dup6\n        /* \"#utility.yul\":3015:3037   */\n      add\n        /* \"#utility.yul\":2984:3047   */\n      tag_111\n      jump\t// in\n    tag_157:\n        /* \"#utility.yul\":2974:3047   */\n      swap2\n      pop\n        /* \"#utility.yul\":2770:3057   */\n      pop\n        /* \"#utility.yul\":2555:3064   */\n      swap3\n      swap2\n      pop\n      pop\n      jump\t// out\n        /* \"#utility.yul\":3070:3169   */\n    tag_112:\n        /* \"#utility.yul\":3122:3128   */\n      0x00\n        /* \"#utility.yul\":3156:3161   */\n      dup2\n        /* \"#utility.yul\":3150:3162   */\n      mload\n        /* \"#utility.yul\":3140:3162   */\n      swap1\n      pop\n        /* \"#utility.yul\":3070:3169   */\n      swap2\n      swap1\n      pop\n      jump\t// out\n        /* \"#utility.yul\":3175:3344   */\n    tag_113:\n        /* \"#utility.yul\":3259:3270   */\n      0x00\n        /* \"#utility.yul\":3293:3299   */\n      dup3\n        /* \"#utility.yul\":3288:3291   */\n      dup3\n        /* \"#utility.yul\":3281:3300   */\n      mstore\n        /* \"#utility.yul\":3333:3337   */\n      0x20\n        /* \"#utility.yul\":3328:3331   */\n      dup3\n        /* \"#utility.yul\":3324:3338   */\n      add\n        /* \"#utility.yul\":3309:3338   */\n      swap1\n      pop\n        /* \"#utility.yul\":3175:3344   */\n      swap3\n      swap2\n      pop\n      pop\n      jump\t// out\n        /* \"#utility.yul\":3350:3489   */\n    tag_114:\n        /* \"#utility.yul\":3439:3445   */\n      dup3\n        /* \"#utility.yul\":3434:3437   */\n      dup2\n        /* \"#utility.yul\":3429:3432   */\n      dup4\n        /* \"#utility.yul\":3423:3446   */\n      mcopy\n        /* \"#utility.yul\":3480:3481   */\n      0x00\n        /* \"#utility.yul\":3471:3477   */\n      dup4\n        /* \"#utility.yul\":3466:3469   */\n      dup4\n        /* \"#utility.yul\":3462:3478   */\n      add\n        /* \"#utility.yul\":3455:3482   */\n      mstore\n        /* \"#utility.yul\":3350:3489   */\n      pop\n      pop\n      pop\n      jump\t// out\n        /* \"#utility.yul\":3495:3872   */\n    tag_115:\n        /* \"#utility.yul\":3583:3586   */\n      0x00\n        /* \"#utility.yul\":3611:3650   */\n      tag_162\n        /* \"#utility.yul\":3644:3649   */\n      dup3\n        /* \"#utility.yul\":3611:3650   */\n      tag_112\n      jump\t// in\n    tag_162:\n        /* \"#utility.yul\":3666:3737   */\n      tag_163\n        /* \"#utility.yul\":3730:3736   */\n      dup2\n        /* \"#utility.yul\":3725:3728   */\n      dup6\n        /* \"#utility.yul\":3666:3737   */\n      tag_113\n      jump\t// in\n    tag_163:\n        /* \"#utility.yul\":3659:3737   */\n      swap4\n      pop\n        /* \"#utility.yul\":3746:3811   */\n      tag_164\n        /* \"#utility.yul\":3804:3810   */\n      dup2\n        /* \"#utility.yul\":3799:3802   */\n      dup6\n        /* \"#utility.yul\":3792:3796   */\n      0x20\n        /* \"#utility.yul\":3785:3790   */\n      dup7\n        /* \"#utility.yul\":3781:3797   */\n      add\n        /* \"#utility.yul\":3746:3811   */\n      tag_114\n      jump\t// in\n    tag_164:\n        /* \"#utility.yul\":3836:3865   */\n      tag_165\n        /* \"#utility.yul\":3858:3864   */\n      dup2\n        /* \"#utility.yul\":3836:3865   */\n      tag_105\n      jump\t// in\n    tag_165:\n        /* \"#utility.yul\":3831:3834   */\n      dup5\n        /* \"#utility.yul\":3827:3866   */\n      add\n        /* \"#utility.yul\":3820:3866   */\n      swap2\n      pop\n        /* \"#utility.yul\":3587:3872   */\n      pop\n        /* \"#utility.yul\":3495:3872   */\n      swap3\n      swap2\n      pop\n      pop\n      jump\t// out\n        /* \"#utility.yul\":3878:4191   */\n    tag_12:\n        /* \"#utility.yul\":3991:3995   */\n      0x00\n        /* \"#utility.yul\":4029:4031   */\n      0x20\n        /* \"#utility.yul\":4018:4027   */\n      dup3\n        /* \"#utility.yul\":4014:4032   */\n      add\n        /* \"#utility.yul\":4006:4032   */\n      swap1\n      pop\n        /* \"#utility.yul\":4078:4087   */\n      dup2\n        /* \"#utility.yul\":4072:4076   */\n      dup2\n        /* \"#utility.yul\":4068:4088   */\n      sub\n        /* \"#utility.yul\":4064:4065   */\n      0x00\n        /* \"#utility.yul\":4053:4062   */\n      dup4\n        /* \"#utility.yul\":4049:4066   */\n      add\n        /* \"#utility.yul\":4042:4089   */\n      mstore\n        /* \"#utility.yul\":4106:4184   */\n      tag_167\n        /* \"#utility.yul\":4179:4183   */\n      dup2\n        /* \"#utility.yul\":4170:4176   */\n      dup5\n        /* \"#utility.yul\":4106:4184   */\n      tag_115\n      jump\t// in\n    tag_167:\n        /* \"#utility.yul\":4098:4184   */\n      swap1\n      pop\n        /* \"#utility.yul\":3878:4191   */\n      swap3\n      swap2\n      pop\n      pop\n      jump\t// out\n        /* \"#utility.yul\":4197:4368   */\n    tag_116:\n        /* \"#utility.yul\":4337:4360   */\n      0x496e70757420737472696e6720697320656d7074790000000000000000000000\n        /* \"#utility.yul\":4333:4334   */\n      0x00\n        /* \"#utility.yul\":4325:4331   */\n      dup3\n        /* \"#utility.yul\":4321:4335   */\n      add\n        /* \"#utility.yul\":4314:4361   */\n      mstore\n        /* \"#utility.yul\":4197:4368   */\n      pop\n      jump\t// out\n        /* \"#utility.yul\":4374:4740   */\n    tag_117:\n        /* \"#utility.yul\":4516:4519   */\n      0x00\n        /* \"#utility.yul\":4537:4604   */\n      tag_170\n        /* \"#utility.yul\":4601:4603   */\n      0x15\n        /* \"#utility.yul\":4596:4599   */\n      dup4\n        /* \"#utility.yul\":4537:4604   */\n      tag_113\n      jump\t// in\n    tag_170:\n        /* \"#utility.yul\":4530:4604   */\n      swap2\n      pop\n        /* \"#utility.yul\":4613:4706   */\n      tag_171\n        /* \"#utility.yul\":4702:4705   */\n      dup3\n        /* \"#utility.yul\":4613:4706   */\n      tag_116\n      jump\t// in\n    tag_171:\n        /* \"#utility.yul\":4731:4733   */\n      0x20\n        /* \"#utility.yul\":4726:4729   */\n      dup3\n        /* \"#utility.yul\":4722:4734   */\n      add\n        /* \"#utility.yul\":4715:4734   */\n      swap1\n      pop\n        /* \"#utility.yul\":4374:4740   */\n      swap2\n      swap1\n      pop\n      jump\t// out\n        /* \"#utility.yul\":4746:5165   */\n    tag_28:\n        /* \"#utility.yul\":4912:4916   */\n      0x00\n        /* \"#utility.yul\":4950:4952   */\n      0x20\n        /* \"#utility.yul\":4939:4948   */\n      dup3\n        /* \"#utility.yul\":4935:4953   */\n      add\n        /* \"#utility.yul\":4927:4953   */\n      swap1\n      pop\n        /* \"#utility.yul\":4999:5008   */\n      dup2\n        /* \"#utility.yul\":4993:4997   */\n      dup2\n        /* \"#utility.yul\":4989:5009   */\n      sub\n        /* \"#utility.yul\":4985:4986   */\n      0x00\n        /* \"#utility.yul\":4974:4983   */\n      dup4\n        /* \"#utility.yul\":4970:4987   */\n      add\n        /* \"#utility.yul\":4963:5010   */\n      mstore\n        /* \"#utility.yul\":5027:5158   */\n      tag_173\n        /* \"#utility.yul\":5153:5157   */\n      dup2\n        /* \"#utility.yul\":5027:5158   */\n      tag_117\n      jump\t// in\n    tag_173:\n        /* \"#utility.yul\":5019:5158   */\n      swap1\n      pop\n        /* \"#utility.yul\":4746:5165   */\n      swap2\n      swap1\n      pop\n      jump\t// out\n        /* \"#utility.yul\":5171:5248   */\n    tag_118:\n        /* \"#utility.yul\":5208:5215   */\n      0x00\n        /* \"#utility.yul\":5237:5242   */\n      dup2\n        /* \"#utility.yul\":5226:5242   */\n      swap1\n      pop\n        /* \"#utility.yul\":5171:5248   */\n      swap2\n      swap1\n      pop\n      jump\t// out\n        /* \"#utility.yul\":5254:5434   */\n    tag_119:\n        /* \"#utility.yul\":5302:5379   */\n      0x4e487b7100000000000000000000000000000000000000000000000000000000\n        /* \"#utility.yul\":5299:5300   */\n      0x00\n        /* \"#utility.yul\":5292:5380   */\n      mstore\n        /* \"#utility.yul\":5399:5403   */\n      0x12\n        /* \"#utility.yul\":5396:5397   */\n      0x04\n        /* \"#utility.yul\":5389:5404   */\n      mstore\n        /* \"#utility.yul\":5423:5427   */\n      0x24\n        /* \"#utility.yul\":5420:5421   */\n      0x00\n        /* \"#utility.yul\":5413:5428   */\n      revert\n        /* \"#utility.yul\":5440:5620   */\n    tag_120:\n        /* \"#utility.yul\":5488:5565   */\n      0x4e487b7100000000000000000000000000000000000000000000000000000000\n        /* \"#utility.yul\":5485:5486   */\n      0x00\n        /* \"#utility.yul\":5478:5566   */\n      mstore\n        /* \"#utility.yul\":5585:5589   */\n      0x11\n        /* \"#utility.yul\":5582:5583   */\n      0x04\n        /* \"#utility.yul\":5575:5590   */\n      mstore\n        /* \"#utility.yul\":5609:5613   */\n      0x24\n        /* \"#utility.yul\":5606:5607   */\n      0x00\n        /* \"#utility.yul\":5599:5614   */\n      revert\n        /* \"#utility.yul\":5626:5811   */\n    tag_33:\n        /* \"#utility.yul\":5666:5667   */\n      0x00\n        /* \"#utility.yul\":5683:5703   */\n      tag_178\n        /* \"#utility.yul\":5701:5702   */\n      dup3\n        /* \"#utility.yul\":5683:5703   */\n      tag_118\n      jump\t// in\n    tag_178:\n        /* \"#utility.yul\":5678:5703   */\n      swap2\n      pop\n        /* \"#utility.yul\":5717:5737   */\n      tag_179\n        /* \"#utility.yul\":5735:5736   */\n      dup4\n        /* \"#utility.yul\":5717:5737   */\n      tag_118\n      jump\t// in\n    tag_179:\n        /* \"#utility.yul\":5712:5737   */\n      swap3\n      pop\n        /* \"#utility.yul\":5756:5757   */\n      dup3\n        /* \"#utility.yul\":5746:5781   */\n      tag_180\n      jumpi\n        /* \"#utility.yul\":5761:5779   */\n      tag_181\n      tag_119\n      jump\t// in\n    tag_181:\n        /* \"#utility.yul\":5746:5781   */\n    tag_180:\n        /* \"#utility.yul\":5803:5804   */\n      dup3\n        /* \"#utility.yul\":5800:5801   */\n      dup3\n        /* \"#utility.yul\":5796:5805   */\n      div\n        /* \"#utility.yul\":5791:5805   */\n      swap1\n      pop\n        /* \"#utility.yul\":5626:5811   */\n      swap3\n      swap2\n      pop\n      pop\n      jump\t// out\n        /* \"#utility.yul\":5817:6011   */\n    tag_35:\n        /* \"#utility.yul\":5857:5861   */\n      0x00\n        /* \"#utility.yul\":5877:5897   */\n      tag_183\n        /* \"#utility.yul\":5895:5896   */\n      dup3\n        /* \"#utility.yul\":5877:5897   */\n      tag_118\n      jump\t// in\n    tag_183:\n        /* \"#utility.yul\":5872:5897   */\n      swap2\n      pop\n        /* \"#utility.yul\":5911:5931   */\n      tag_184\n        /* \"#utility.yul\":5929:5930   */\n      dup4\n        /* \"#utility.yul\":5911:5931   */\n      tag_118\n      jump\t// in\n    tag_184:\n        /* \"#utility.yul\":5906:5931   */\n      swap3\n      pop\n        /* \"#utility.yul\":5955:5956   */\n      dup3\n        /* \"#utility.yul\":5952:5953   */\n      dup3\n        /* \"#utility.yul\":5948:5957   */\n      sub\n        /* \"#utility.yul\":5940:5957   */\n      swap1\n      pop\n        /* \"#utility.yul\":5979:5980   */\n      dup2\n        /* \"#utility.yul\":5973:5977   */\n      dup2\n        /* \"#utility.yul\":5970:5981   */\n      gt\n        /* \"#utility.yul\":5967:6004   */\n      iszero\n      tag_185\n      jumpi\n        /* \"#utility.yul\":5984:6002   */\n      tag_186\n      tag_120\n      jump\t// in\n    tag_186:\n        /* \"#utility.yul\":5967:6004   */\n    tag_185:\n        /* \"#utility.yul\":5817:6011   */\n      swap3\n      swap2\n      pop\n      pop\n      jump\t// out\n        /* \"#utility.yul\":6017:6197   */\n    tag_39:\n        /* \"#utility.yul\":6065:6142   */\n      0x4e487b7100000000000000000000000000000000000000000000000000000000\n        /* \"#utility.yul\":6062:6063   */\n      0x00\n        /* \"#utility.yul\":6055:6143   */\n      mstore\n        /* \"#utility.yul\":6162:6166   */\n      0x32\n        /* \"#utility.yul\":6159:6160   */\n      0x04\n        /* \"#utility.yul\":6152:6167   */\n      mstore\n        /* \"#utility.yul\":6186:6190   */\n      0x24\n        /* \"#utility.yul\":6183:6184   */\n      0x00\n        /* \"#utility.yul\":6176:6191   */\n      revert\n        /* \"#utility.yul\":6203:6436   */\n    tag_80:\n        /* \"#utility.yul\":6242:6245   */\n      0x00\n        /* \"#utility.yul\":6265:6289   */\n      tag_189\n        /* \"#utility.yul\":6283:6288   */\n      dup3\n        /* \"#utility.yul\":6265:6289   */\n      tag_118\n      jump\t// in\n    tag_189:\n        /* \"#utility.yul\":6256:6289   */\n      swap2\n      pop\n        /* \"#utility.yul\":6311:6377   */\n      0xffffffffffffffffffffffffffffffffffffffffffffffffffffffffffffffff\n        /* \"#utility.yul\":6304:6309   */\n      dup3\n        /* \"#utility.yul\":6301:6378   */\n      sub\n        /* \"#utility.yul\":6298:6401   */\n      tag_190\n      jumpi\n        /* \"#utility.yul\":6381:6399   */\n      tag_191\n      tag_120\n      jump\t// in\n    tag_191:\n        /* \"#utility.yul\":6298:6401   */\n    tag_190:\n        /* \"#utility.yul\":6428:6429   */\n      0x01\n        /* \"#utility.yul\":6421:6426   */\n      dup3\n        /* \"#utility.yul\":6417:6430   */\n      add\n        /* \"#utility.yul\":6410:6430   */\n      swap1\n      pop\n        /* \"#utility.yul\":6203:6436   */\n      swap2\n      swap1\n      pop\n      jump\t// out\n        /* \"#utility.yul\":6442:6518   */\n    tag_121:\n        /* \"#utility.yul\":6478:6485   */\n      0x00\n        /* \"#utility.yul\":6507:6512   */\n      dup2\n        /* \"#utility.yul\":6496:6512   */\n      swap1\n      pop\n        /* \"#utility.yul\":6442:6518   */\n      swap2\n      swap1\n      pop\n      jump\t// out\n        /* \"#utility.yul\":6524:6755   */\n    tag_82:\n        /* \"#utility.yul\":6562:6565   */\n      0x00\n        /* \"#utility.yul\":6585:6608   */\n      tag_194\n        /* \"#utility.yul\":6602:6607   */\n      dup3\n        /* \"#utility.yul\":6585:6608   */\n      tag_121\n      jump\t// in\n    tag_194:\n        /* \"#utility.yul\":6576:6608   */\n      swap2\n      pop\n        /* \"#utility.yul\":6630:6696   */\n      0x8000000000000000000000000000000000000000000000000000000000000000\n        /* \"#utility.yul\":6623:6628   */\n      dup3\n        /* \"#utility.yul\":6620:6697   */\n      sub\n        /* \"#utility.yul\":6617:6720   */\n      tag_195\n      jumpi\n        /* \"#utility.yul\":6700:6718   */\n      tag_196\n      tag_120\n      jump\t// in\n    tag_196:\n        /* \"#utility.yul\":6617:6720   */\n    tag_195:\n        /* \"#utility.yul\":6747:6748   */\n      0x01\n        /* \"#utility.yul\":6740:6745   */\n      dup3\n        /* \"#utility.yul\":6736:6749   */\n      sub\n        /* \"#utility.yul\":6729:6749   */\n      swap1\n      pop\n        /* \"#utility.yul\":6524:6755   */\n      swap2\n      swap1\n      pop\n      jump\t// out\n\n    auxdata: 0xa2646970667358221220043fcaf71fa3329a3d6aebcd0cc9e69d7acb940fce554e4a61334743ac3eb22464736f6c634300081e0033\n}\n",
				"bytecode": {
					"linkReferences": {},
					"object": "6080604052348015600e575f5ffd5b50610a968061001c5f395ff3fe608060405234801561000f575f5ffd5b506004361061004a575f3560e01c80630d31b3bc1461004e5780636dfc01521461007e5780639b09bcaa146100ae578063ca65d54b146100de575b5f5ffd5b610068600480360381019061006391906107a7565b61010e565b604051610075919061084e565b60405180910390f35b610098600480360381019061009391906107a7565b610262565b6040516100a5919061084e565b60405180910390f35b6100c860048036038101906100c391906107a7565b61039b565b6040516100d5919061084e565b60405180910390f35b6100f860048036038101906100f391906107a7565b6104fd565b604051610105919061084e565b60405180910390f35b60605f8290505f815190505f811161015b576040517f08c379a0000000000000000000000000000000000000000000000000000000008152600401610152906108b8565b60405180910390fd5b5f5f90505b60028261016d9190610939565b811015610257575f600182846101839190610969565b61018d9190610969565b90508381815181106101a2576101a161099c565b5b602001015160f81c60f81b8483815181106101c0576101bf61099c565b5b602001015160f81c60f81b8584815181106101de576101dd61099c565b5b602001018684815181106101f5576101f461099c565b5b60200101827effffffffffffffffffffffffffffffffffffffffffffffffffffffffffffff19165f1a9053827effffffffffffffffffffffffffffffffffffffffffffffffffffffffffffff19165f1a90535050508080600101915050610160565b508192505050919050565b60605f8290505f815190505f81116102af576040517f08c379a00000000000000000000000000000000000000000000000000000000081526004016102a6906108b8565b60405180910390fd5b5f8167ffffffffffffffff8111156102ca576102c9610683565b5b6040519080825280601f01601f1916602001820160405280156102fc5781602001600182028036833780820191505090505b5090505f5f90505b8281101561038f57836001828561031b9190610969565b6103259190610969565b815181106103365761033561099c565b5b602001015160f81c60f81b8282815181106103545761035361099c565b5b60200101907effffffffffffffffffffffffffffffffffffffffffffffffffffffffffffff191690815f1a9053508080600101915050610304565b50809350505050919050565b60605f8290505f815190505f8167ffffffffffffffff8111156103c1576103c0610683565b5b6040519080825280601f01601f1916602001820160405280156103f35781602001600182028036833780820191505090505b5090505f8211610438576040517f08c379a000000000000000000000000000000000000000000000000000000000815260040161042f906108b8565b60405180910390fd5b5f5f90505f5f90505b6002811015610457578080600101915050610441565b505f6001846104669190610969565b90505b5f81126104f0578481815181106104835761048261099c565b5b602001015160f81c60f81b8383815181106104a1576104a061099c565b5b60200101907effffffffffffffffffffffffffffffffffffffffffffffffffffffffffffff191690815f1a90535081806104da906109c9565b92505080806104e890610a19565b915050610469565b5081945050505050919050565b60605f8290505f815190505f811161054a576040517f08c379a0000000000000000000000000000000000000000000000000000000008152600401610541906108b8565b60405180910390fd5b5f5f90505b60028261055c9190610939565b81101561064f575f600182846105729190610969565b61057c9190610969565b90505f8482815181106105925761059161099c565b5b602001015160f81c60f81b90508483815181106105b2576105b161099c565b5b602001015160f81c60f81b8583815181106105d0576105cf61099c565b5b60200101907effffffffffffffffffffffffffffffffffffffffffffffffffffffffffffff191690815f1a905350808584815181106106125761061161099c565b5b60200101907effffffffffffffffffffffffffffffffffffffffffffffffffffffffffffff191690815f1a9053505050808060010191505061054f565b508192505050919050565b5f604051905090565b5f5ffd5b5f5ffd5b5f5ffd5b5f5ffd5b5f601f19601f8301169050919050565b7f4e487b71000000000000000000000000000000000000000000000000000000005f52604160045260245ffd5b6106b982610673565b810181811067ffffffffffffffff821117156106d8576106d7610683565b5b80604052505050565b5f6106ea61065a565b90506106f682826106b0565b919050565b5f67ffffffffffffffff82111561071557610714610683565b5b61071e82610673565b9050602081019050919050565b828183375f83830152505050565b5f61074b610746846106fb565b6106e1565b9050828152602081018484840111156107675761076661066f565b5b61077284828561072b565b509392505050565b5f82601f83011261078e5761078d61066b565b5b813561079e848260208601610739565b91505092915050565b5f602082840312156107bc576107bb610663565b5b5f82013567ffffffffffffffff8111156107d9576107d8610667565b5b6107e58482850161077a565b91505092915050565b5f81519050919050565b5f82825260208201905092915050565b8281835e5f83830152505050565b5f610820826107ee565b61082a81856107f8565b935061083a818560208601610808565b61084381610673565b840191505092915050565b5f6020820190508181035f8301526108668184610816565b905092915050565b7f496e70757420737472696e6720697320656d70747900000000000000000000005f82015250565b5f6108a26015836107f8565b91506108ad8261086e565b602082019050919050565b5f6020820190508181035f8301526108cf81610896565b9050919050565b5f819050919050565b7f4e487b71000000000000000000000000000000000000000000000000000000005f52601260045260245ffd5b7f4e487b71000000000000000000000000000000000000000000000000000000005f52601160045260245ffd5b5f610943826108d6565b915061094e836108d6565b92508261095e5761095d6108df565b5b828204905092915050565b5f610973826108d6565b915061097e836108d6565b92508282039050818111156109965761099561090c565b5b92915050565b7f4e487b71000000000000000000000000000000000000000000000000000000005f52603260045260245ffd5b5f6109d3826108d6565b91507fffffffffffffffffffffffffffffffffffffffffffffffffffffffffffffffff8203610a0557610a0461090c565b5b600182019050919050565b5f819050919050565b5f610a2382610a10565b91507f80000000000000000000000000000000000000000000000000000000000000008203610a5557610a5461090c565b5b60018203905091905056fea2646970667358221220043fcaf71fa3329a3d6aebcd0cc9e69d7acb940fce554e4a61334743ac3eb22464736f6c634300081e0033",
					"opcodes": "PUSH1 0x80 PUSH1 0x40 MSTORE CALLVALUE DUP1 ISZERO PUSH1 0xE JUMPI PUSH0 PUSH0 REVERT JUMPDEST POP PUSH2 0xA96 DUP1 PUSH2 0x1C PUSH0 CODECOPY PUSH0 RETURN INVALID PUSH1 0x80 PUSH1 0x40 MSTORE CALLVALUE DUP1 ISZERO PUSH2 0xF JUMPI PUSH0 PUSH0 REVERT JUMPDEST POP PUSH1 0x4 CALLDATASIZE LT PUSH2 0x4A JUMPI PUSH0 CALLDATALOAD PUSH1 0xE0 SHR DUP1 PUSH4 0xD31B3BC EQ PUSH2 0x4E JUMPI DUP1 PUSH4 0x6DFC0152 EQ PUSH2 0x7E JUMPI DUP1 PUSH4 0x9B09BCAA EQ PUSH2 0xAE JUMPI DUP1 PUSH4 0xCA65D54B EQ PUSH2 0xDE JUMPI JUMPDEST PUSH0 PUSH0 REVERT JUMPDEST PUSH2 0x68 PUSH1 0x4 DUP1 CALLDATASIZE SUB DUP2 ADD SWAP1 PUSH2 0x63 SWAP2 SWAP1 PUSH2 0x7A7 JUMP JUMPDEST PUSH2 0x10E JUMP JUMPDEST PUSH1 0x40 MLOAD PUSH2 0x75 SWAP2 SWAP1 PUSH2 0x84E JUMP JUMPDEST PUSH1 0x40 MLOAD DUP1 SWAP2 SUB SWAP1 RETURN JUMPDEST PUSH2 0x98 PUSH1 0x4 DUP1 CALLDATASIZE SUB DUP2 ADD SWAP1 PUSH2 0x93 SWAP2 SWAP1 PUSH2 0x7A7 JUMP JUMPDEST PUSH2 0x262 JUMP JUMPDEST PUSH1 0x40 MLOAD PUSH2 0xA5 SWAP2 SWAP1 PUSH2 0x84E JUMP JUMPDEST PUSH1 0x40 MLOAD DUP1 SWAP2 SUB SWAP1 RETURN JUMPDEST PUSH2 0xC8 PUSH1 0x4 DUP1 CALLDATASIZE SUB DUP2 ADD SWAP1 PUSH2 0xC3 SWAP2 SWAP1 PUSH2 0x7A7 JUMP JUMPDEST PUSH2 0x39B JUMP JUMPDEST PUSH1 0x40 MLOAD PUSH2 0xD5 SWAP2 SWAP1 PUSH2 0x84E JUMP JUMPDEST PUSH1 0x40 MLOAD DUP1 SWAP2 SUB SWAP1 RETURN JUMPDEST PUSH2 0xF8 PUSH1 0x4 DUP1 CALLDATASIZE SUB DUP2 ADD SWAP1 PUSH2 0xF3 SWAP2 SWAP1 PUSH2 0x7A7 JUMP JUMPDEST PUSH2 0x4FD JUMP JUMPDEST PUSH1 0x40 MLOAD PUSH2 0x105 SWAP2 SWAP1 PUSH2 0x84E JUMP JUMPDEST PUSH1 0x40 MLOAD DUP1 SWAP2 SUB SWAP1 RETURN JUMPDEST PUSH1 0x60 PUSH0 DUP3 SWAP1 POP PUSH0 DUP2 MLOAD SWAP1 POP PUSH0 DUP2 GT PUSH2 0x15B JUMPI PUSH1 0x40 MLOAD PUSH32 0x8C379A000000000000000000000000000000000000000000000000000000000 DUP2 MSTORE PUSH1 0x4 ADD PUSH2 0x152 SWAP1 PUSH2 0x8B8 JUMP JUMPDEST PUSH1 0x40 MLOAD DUP1 SWAP2 SUB SWAP1 REVERT JUMPDEST PUSH0 PUSH0 SWAP1 POP JUMPDEST PUSH1 0x2 DUP3 PUSH2 0x16D SWAP2 SWAP1 PUSH2 0x939 JUMP JUMPDEST DUP2 LT ISZERO PUSH2 0x257 JUMPI PUSH0 PUSH1 0x1 DUP3 DUP5 PUSH2 0x183 SWAP2 SWAP1 PUSH2 0x969 JUMP JUMPDEST PUSH2 0x18D SWAP2 SWAP1 PUSH2 0x969 JUMP JUMPDEST SWAP1 POP DUP4 DUP2 DUP2 MLOAD DUP2 LT PUSH2 0x1A2 JUMPI PUSH2 0x1A1 PUSH2 0x99C JUMP JUMPDEST JUMPDEST PUSH1 0x20 ADD ADD MLOAD PUSH1 0xF8 SHR PUSH1 0xF8 SHL DUP5 DUP4 DUP2 MLOAD DUP2 LT PUSH2 0x1C0 JUMPI PUSH2 0x1BF PUSH2 0x99C JUMP JUMPDEST JUMPDEST PUSH1 0x20 ADD ADD MLOAD PUSH1 0xF8 SHR PUSH1 0xF8 SHL DUP6 DUP5 DUP2 MLOAD DUP2 LT PUSH2 0x1DE JUMPI PUSH2 0x1DD PUSH2 0x99C JUMP JUMPDEST JUMPDEST PUSH1 0x20 ADD ADD DUP7 DUP5 DUP2 MLOAD DUP2 LT PUSH2 0x1F5 JUMPI PUSH2 0x1F4 PUSH2 0x99C JUMP JUMPDEST JUMPDEST PUSH1 0x20 ADD ADD DUP3 PUSH31 0xFFFFFFFFFFFFFFFFFFFFFFFFFFFFFFFFFFFFFFFFFFFFFFFFFFFFFFFFFFFFFF NOT AND PUSH0 BYTE SWAP1 MSTORE8 DUP3 PUSH31 0xFFFFFFFFFFFFFFFFFFFFFFFFFFFFFFFFFFFFFFFFFFFFFFFFFFFFFFFFFFFFFF NOT AND PUSH0 BYTE SWAP1 MSTORE8 POP POP POP DUP1 DUP1 PUSH1 0x1 ADD SWAP2 POP POP PUSH2 0x160 JUMP JUMPDEST POP DUP2 SWAP3 POP POP POP SWAP2 SWAP1 POP JUMP JUMPDEST PUSH1 0x60 PUSH0 DUP3 SWAP1 POP PUSH0 DUP2 MLOAD SWAP1 POP PUSH0 DUP2 GT PUSH2 0x2AF JUMPI PUSH1 0x40 MLOAD PUSH32 0x8C379A000000000000000000000000000000000000000000000000000000000 DUP2 MSTORE PUSH1 0x4 ADD PUSH2 0x2A6 SWAP1 PUSH2 0x8B8 JUMP JUMPDEST PUSH1 0x40 MLOAD DUP1 SWAP2 SUB SWAP1 REVERT JUMPDEST PUSH0 DUP2 PUSH8 0xFFFFFFFFFFFFFFFF DUP2 GT ISZERO PUSH2 0x2CA JUMPI PUSH2 0x2C9 PUSH2 0x683 JUMP JUMPDEST JUMPDEST PUSH1 0x40 MLOAD SWAP1 DUP1 DUP3 MSTORE DUP1 PUSH1 0x1F ADD PUSH1 0x1F NOT AND PUSH1 0x20 ADD DUP3 ADD PUSH1 0x40 MSTORE DUP1 ISZERO PUSH2 0x2FC JUMPI DUP2 PUSH1 0x20 ADD PUSH1 0x1 DUP3 MUL DUP1 CALLDATASIZE DUP4 CALLDATACOPY DUP1 DUP3 ADD SWAP2 POP POP SWAP1 POP JUMPDEST POP SWAP1 POP PUSH0 PUSH0 SWAP1 POP JUMPDEST DUP3 DUP2 LT ISZERO PUSH2 0x38F JUMPI DUP4 PUSH1 0x1 DUP3 DUP6 PUSH2 0x31B SWAP2 SWAP1 PUSH2 0x969 JUMP JUMPDEST PUSH2 0x325 SWAP2 SWAP1 PUSH2 0x969 JUMP JUMPDEST DUP2 MLOAD DUP2 LT PUSH2 0x336 JUMPI PUSH2 0x335 PUSH2 0x99C JUMP JUMPDEST JUMPDEST PUSH1 0x20 ADD ADD MLOAD PUSH1 0xF8 SHR PUSH1 0xF8 SHL DUP3 DUP3 DUP2 MLOAD DUP2 LT PUSH2 0x354 JUMPI PUSH2 0x353 PUSH2 0x99C JUMP JUMPDEST JUMPDEST PUSH1 0x20 ADD ADD SWAP1 PUSH31 0xFFFFFFFFFFFFFFFFFFFFFFFFFFFFFFFFFFFFFFFFFFFFFFFFFFFFFFFFFFFFFF NOT AND SWAP1 DUP2 PUSH0 BYTE SWAP1 MSTORE8 POP DUP1 DUP1 PUSH1 0x1 ADD SWAP2 POP POP PUSH2 0x304 JUMP JUMPDEST POP DUP1 SWAP4 POP POP POP POP SWAP2 SWAP1 POP JUMP JUMPDEST PUSH1 0x60 PUSH0 DUP3 SWAP1 POP PUSH0 DUP2 MLOAD SWAP1 POP PUSH0 DUP2 PUSH8 0xFFFFFFFFFFFFFFFF DUP2 GT ISZERO PUSH2 0x3C1 JUMPI PUSH2 0x3C0 PUSH2 0x683 JUMP JUMPDEST JUMPDEST PUSH1 0x40 MLOAD SWAP1 DUP1 DUP3 MSTORE DUP1 PUSH1 0x1F ADD PUSH1 0x1F NOT AND PUSH1 0x20 ADD DUP3 ADD PUSH1 0x40 MSTORE DUP1 ISZERO PUSH2 0x3F3 JUMPI DUP2 PUSH1 0x20 ADD PUSH1 0x1 DUP3 MUL DUP1 CALLDATASIZE DUP4 CALLDATACOPY DUP1 DUP3 ADD SWAP2 POP POP SWAP1 POP JUMPDEST POP SWAP1 POP PUSH0 DUP3 GT PUSH2 0x438 JUMPI PUSH1 0x40 MLOAD PUSH32 0x8C379A000000000000000000000000000000000000000000000000000000000 DUP2 MSTORE PUSH1 0x4 ADD PUSH2 0x42F SWAP1 PUSH2 0x8B8 JUMP JUMPDEST PUSH1 0x40 MLOAD DUP1 SWAP2 SUB SWAP1 REVERT JUMPDEST PUSH0 PUSH0 SWAP1 POP PUSH0 PUSH0 SWAP1 POP JUMPDEST PUSH1 0x2 DUP2 LT ISZERO PUSH2 0x457 JUMPI DUP1 DUP1 PUSH1 0x1 ADD SWAP2 POP POP PUSH2 0x441 JUMP JUMPDEST POP PUSH0 PUSH1 0x1 DUP5 PUSH2 0x466 SWAP2 SWAP1 PUSH2 0x969 JUMP JUMPDEST SWAP1 POP JUMPDEST PUSH0 DUP2 SLT PUSH2 0x4F0 JUMPI DUP5 DUP2 DUP2 MLOAD DUP2 LT PUSH2 0x483 JUMPI PUSH2 0x482 PUSH2 0x99C JUMP JUMPDEST JUMPDEST PUSH1 0x20 ADD ADD MLOAD PUSH1 0xF8 SHR PUSH1 0xF8 SHL DUP4 DUP4 DUP2 MLOAD DUP2 LT PUSH2 0x4A1 JUMPI PUSH2 0x4A0 PUSH2 0x99C JUMP JUMPDEST JUMPDEST PUSH1 0x20 ADD ADD SWAP1 PUSH31 0xFFFFFFFFFFFFFFFFFFFFFFFFFFFFFFFFFFFFFFFFFFFFFFFFFFFFFFFFFFFFFF NOT AND SWAP1 DUP2 PUSH0 BYTE SWAP1 MSTORE8 POP DUP2 DUP1 PUSH2 0x4DA SWAP1 PUSH2 0x9C9 JUMP JUMPDEST SWAP3 POP POP DUP1 DUP1 PUSH2 0x4E8 SWAP1 PUSH2 0xA19 JUMP JUMPDEST SWAP2 POP POP PUSH2 0x469 JUMP JUMPDEST POP DUP2 SWAP5 POP POP POP POP POP SWAP2 SWAP1 POP JUMP JUMPDEST PUSH1 0x60 PUSH0 DUP3 SWAP1 POP PUSH0 DUP2 MLOAD SWAP1 POP PUSH0 DUP2 GT PUSH2 0x54A JUMPI PUSH1 0x40 MLOAD PUSH32 0x8C379A000000000000000000000000000000000000000000000000000000000 DUP2 MSTORE PUSH1 0x4 ADD PUSH2 0x541 SWAP1 PUSH2 0x8B8 JUMP JUMPDEST PUSH1 0x40 MLOAD DUP1 SWAP2 SUB SWAP1 REVERT JUMPDEST PUSH0 PUSH0 SWAP1 POP JUMPDEST PUSH1 0x2 DUP3 PUSH2 0x55C SWAP2 SWAP1 PUSH2 0x939 JUMP JUMPDEST DUP2 LT ISZERO PUSH2 0x64F JUMPI PUSH0 PUSH1 0x1 DUP3 DUP5 PUSH2 0x572 SWAP2 SWAP1 PUSH2 0x969 JUMP JUMPDEST PUSH2 0x57C SWAP2 SWAP1 PUSH2 0x969 JUMP JUMPDEST SWAP1 POP PUSH0 DUP5 DUP3 DUP2 MLOAD DUP2 LT PUSH2 0x592 JUMPI PUSH2 0x591 PUSH2 0x99C JUMP JUMPDEST JUMPDEST PUSH1 0x20 ADD ADD MLOAD PUSH1 0xF8 SHR PUSH1 0xF8 SHL SWAP1 POP DUP5 DUP4 DUP2 MLOAD DUP2 LT PUSH2 0x5B2 JUMPI PUSH2 0x5B1 PUSH2 0x99C JUMP JUMPDEST JUMPDEST PUSH1 0x20 ADD ADD MLOAD PUSH1 0xF8 SHR PUSH1 0xF8 SHL DUP6 DUP4 DUP2 MLOAD DUP2 LT PUSH2 0x5D0 JUMPI PUSH2 0x5CF PUSH2 0x99C JUMP JUMPDEST JUMPDEST PUSH1 0x20 ADD ADD SWAP1 PUSH31 0xFFFFFFFFFFFFFFFFFFFFFFFFFFFFFFFFFFFFFFFFFFFFFFFFFFFFFFFFFFFFFF NOT AND SWAP1 DUP2 PUSH0 BYTE SWAP1 MSTORE8 POP DUP1 DUP6 DUP5 DUP2 MLOAD DUP2 LT PUSH2 0x612 JUMPI PUSH2 0x611 PUSH2 0x99C JUMP JUMPDEST JUMPDEST PUSH1 0x20 ADD ADD SWAP1 PUSH31 0xFFFFFFFFFFFFFFFFFFFFFFFFFFFFFFFFFFFFFFFFFFFFFFFFFFFFFFFFFFFFFF NOT AND SWAP1 DUP2 PUSH0 BYTE SWAP1 MSTORE8 POP POP POP DUP1 DUP1 PUSH1 0x1 ADD SWAP2 POP POP PUSH2 0x54F JUMP JUMPDEST POP DUP2 SWAP3 POP POP POP SWAP2 SWAP1 POP JUMP JUMPDEST PUSH0 PUSH1 0x40 MLOAD SWAP1 POP SWAP1 JUMP JUMPDEST PUSH0 PUSH0 REVERT JUMPDEST PUSH0 PUSH0 REVERT JUMPDEST PUSH0 PUSH0 REVERT JUMPDEST PUSH0 PUSH0 REVERT JUMPDEST PUSH0 PUSH1 0x1F NOT PUSH1 0x1F DUP4 ADD AND SWAP1 POP SWAP2 SWAP1 POP JUMP JUMPDEST PUSH32 0x4E487B7100000000000000000000000000000000000000000000000000000000 PUSH0 MSTORE PUSH1 0x41 PUSH1 0x4 MSTORE PUSH1 0x24 PUSH0 REVERT JUMPDEST PUSH2 0x6B9 DUP3 PUSH2 0x673 JUMP JUMPDEST DUP2 ADD DUP2 DUP2 LT PUSH8 0xFFFFFFFFFFFFFFFF DUP3 GT OR ISZERO PUSH2 0x6D8 JUMPI PUSH2 0x6D7 PUSH2 0x683 JUMP JUMPDEST JUMPDEST DUP1 PUSH1 0x40 MSTORE POP POP POP JUMP JUMPDEST PUSH0 PUSH2 0x6EA PUSH2 0x65A JUMP JUMPDEST SWAP1 POP PUSH2 0x6F6 DUP3 DUP3 PUSH2 0x6B0 JUMP JUMPDEST SWAP2 SWAP1 POP JUMP JUMPDEST PUSH0 PUSH8 0xFFFFFFFFFFFFFFFF DUP3 GT ISZERO PUSH2 0x715 JUMPI PUSH2 0x714 PUSH2 0x683 JUMP JUMPDEST JUMPDEST PUSH2 0x71E DUP3 PUSH2 0x673 JUMP JUMPDEST SWAP1 POP PUSH1 0x20 DUP2 ADD SWAP1 POP SWAP2 SWAP1 POP JUMP JUMPDEST DUP3 DUP2 DUP4 CALLDATACOPY PUSH0 DUP4 DUP4 ADD MSTORE POP POP POP JUMP JUMPDEST PUSH0 PUSH2 0x74B PUSH2 0x746 DUP5 PUSH2 0x6FB JUMP JUMPDEST PUSH2 0x6E1 JUMP JUMPDEST SWAP1 POP DUP3 DUP2 MSTORE PUSH1 0x20 DUP2 ADD DUP5 DUP5 DUP5 ADD GT ISZERO PUSH2 0x767 JUMPI PUSH2 0x766 PUSH2 0x66F JUMP JUMPDEST JUMPDEST PUSH2 0x772 DUP5 DUP3 DUP6 PUSH2 0x72B JUMP JUMPDEST POP SWAP4 SWAP3 POP POP POP JUMP JUMPDEST PUSH0 DUP3 PUSH1 0x1F DUP4 ADD SLT PUSH2 0x78E JUMPI PUSH2 0x78D PUSH2 0x66B JUMP JUMPDEST JUMPDEST DUP2 CALLDATALOAD PUSH2 0x79E DUP5 DUP3 PUSH1 0x20 DUP7 ADD PUSH2 0x739 JUMP JUMPDEST SWAP2 POP POP SWAP3 SWAP2 POP POP JUMP JUMPDEST PUSH0 PUSH1 0x20 DUP3 DUP5 SUB SLT ISZERO PUSH2 0x7BC JUMPI PUSH2 0x7BB PUSH2 0x663 JUMP JUMPDEST JUMPDEST PUSH0 DUP3 ADD CALLDATALOAD PUSH8 0xFFFFFFFFFFFFFFFF DUP2 GT ISZERO PUSH2 0x7D9 JUMPI PUSH2 0x7D8 PUSH2 0x667 JUMP JUMPDEST JUMPDEST PUSH2 0x7E5 DUP5 DUP3 DUP6 ADD PUSH2 0x77A JUMP JUMPDEST SWAP2 POP POP SWAP3 SWAP2 POP POP JUMP JUMPDEST PUSH0 DUP2 MLOAD SWAP1 POP SWAP2 SWAP1 POP JUMP JUMPDEST PUSH0 DUP3 DUP3 MSTORE PUSH1 0x20 DUP3 ADD SWAP1 POP SWAP3 SWAP2 POP POP JUMP JUMPDEST DUP3 DUP2 DUP4 MCOPY PUSH0 DUP4 DUP4 ADD MSTORE POP POP POP JUMP JUMPDEST PUSH0 PUSH2 0x820 DUP3 PUSH2 0x7EE JUMP JUMPDEST PUSH2 0x82A DUP2 DUP6 PUSH2 0x7F8 JUMP JUMPDEST SWAP4 POP PUSH2 0x83A DUP2 DUP6 PUSH1 0x20 DUP7 ADD PUSH2 0x808 JUMP JUMPDEST PUSH2 0x843 DUP2 PUSH2 0x673 JUMP JUMPDEST DUP5 ADD SWAP2 POP POP SWAP3 SWAP2 POP POP JUMP JUMPDEST PUSH0 PUSH1 0x20 DUP3 ADD SWAP1 POP DUP2 DUP2 SUB PUSH0 DUP4 ADD MSTORE PUSH2 0x866 DUP2 DUP5 PUSH2 0x816 JUMP JUMPDEST SWAP1 POP SWAP3 SWAP2 POP POP JUMP JUMPDEST PUSH32 0x496E70757420737472696E6720697320656D7074790000000000000000000000 PUSH0 DUP3 ADD MSTORE POP JUMP JUMPDEST PUSH0 PUSH2 0x8A2 PUSH1 0x15 DUP4 PUSH2 0x7F8 JUMP JUMPDEST SWAP2 POP PUSH2 0x8AD DUP3 PUSH2 0x86E JUMP JUMPDEST PUSH1 0x20 DUP3 ADD SWAP1 POP SWAP2 SWAP1 POP JUMP JUMPDEST PUSH0 PUSH1 0x20 DUP3 ADD SWAP1 POP DUP2 DUP2 SUB PUSH0 DUP4 ADD MSTORE PUSH2 0x8CF DUP2 PUSH2 0x896 JUMP JUMPDEST SWAP1 POP SWAP2 SWAP1 POP JUMP JUMPDEST PUSH0 DUP2 SWAP1 POP SWAP2 SWAP1 POP JUMP JUMPDEST PUSH32 0x4E487B7100000000000000000000000000000000000000000000000000000000 PUSH0 MSTORE PUSH1 0x12 PUSH1 0x4 MSTORE PUSH1 0x24 PUSH0 REVERT JUMPDEST PUSH32 0x4E487B7100000000000000000000000000000000000000000000000000000000 PUSH0 MSTORE PUSH1 0x11 PUSH1 0x4 MSTORE PUSH1 0x24 PUSH0 REVERT JUMPDEST PUSH0 PUSH2 0x943 DUP3 PUSH2 0x8D6 JUMP JUMPDEST SWAP2 POP PUSH2 0x94E DUP4 PUSH2 0x8D6 JUMP JUMPDEST SWAP3 POP DUP3 PUSH2 0x95E JUMPI PUSH2 0x95D PUSH2 0x8DF JUMP JUMPDEST JUMPDEST DUP3 DUP3 DIV SWAP1 POP SWAP3 SWAP2 POP POP JUMP JUMPDEST PUSH0 PUSH2 0x973 DUP3 PUSH2 0x8D6 JUMP JUMPDEST SWAP2 POP PUSH2 0x97E DUP4 PUSH2 0x8D6 JUMP JUMPDEST SWAP3 POP DUP3 DUP3 SUB SWAP1 POP DUP2 DUP2 GT ISZERO PUSH2 0x996 JUMPI PUSH2 0x995 PUSH2 0x90C JUMP JUMPDEST JUMPDEST SWAP3 SWAP2 POP POP JUMP JUMPDEST PUSH32 0x4E487B7100000000000000000000000000000000000000000000000000000000 PUSH0 MSTORE PUSH1 0x32 PUSH1 0x4 MSTORE PUSH1 0x24 PUSH0 REVERT JUMPDEST PUSH0 PUSH2 0x9D3 DUP3 PUSH2 0x8D6 JUMP JUMPDEST SWAP2 POP PUSH32 0xFFFFFFFFFFFFFFFFFFFFFFFFFFFFFFFFFFFFFFFFFFFFFFFFFFFFFFFFFFFFFFFF DUP3 SUB PUSH2 0xA05 JUMPI PUSH2 0xA04 PUSH2 0x90C JUMP JUMPDEST JUMPDEST PUSH1 0x1 DUP3 ADD SWAP1 POP SWAP2 SWAP1 POP JUMP JUMPDEST PUSH0 DUP2 SWAP1 POP SWAP2 SWAP1 POP JUMP JUMPDEST PUSH0 PUSH2 0xA23 DUP3 PUSH2 0xA10 JUMP JUMPDEST SWAP2 POP PUSH32 0x8000000000000000000000000000000000000000000000000000000000000000 DUP3 SUB PUSH2 0xA55 JUMPI PUSH2 0xA54 PUSH2 0x90C JUMP JUMPDEST JUMPDEST PUSH1 0x1 DUP3 SUB SWAP1 POP SWAP2 SWAP1 POP JUMP INVALID LOG2 PUSH5 0x6970667358 0x22 SLT KECCAK256 DIV EXTCODEHASH 0xCA 0xF7 0x1F LOG3 ORIGIN SWAP11 RETURNDATASIZE PUSH11 0xEBCD0CC9E69D7ACB940FCE SSTORE 0x4E BLOBBASEFEE PUSH2 0x3347 NUMBER 0xAC RETURNDATACOPY 0xB2 0x24 PUSH5 0x736F6C6343 STOP ADDMOD 0x1E STOP CALLER "
				},
				"gasEstimates": {
					"creation": {
						"codeDepositCost": "542000",
						"executionCost": "573",
						"totalCost": "542573"
					},
					"external": {
						"reverse1(string)": "infinite",
						"reverse2(string)": "infinite",
						"reverse3(string)": "infinite",
						"reverse4(string)": "infinite"
					}
				},
				"methodIdentifiers": {
					"reverse1(string)": "9b09bcaa",
					"reverse2(string)": "6dfc0152",
					"reverse3(string)": "0d31b3bc",
					"reverse4(string)": "ca65d54b"
				}
			},
			"storageLayout": {
				"storage": [],
				"types": null
			},
			"userdoc": {
				"kind": "user",
				"methods": {},
				"version": 1
			}
		}
	}
}