{
	"BeggingContract.sol": {
		"BeggingContract": {
			"abi": [
				{
					"inputs": [],
					"stateMutability": "nonpayable",
					"type": "constructor"
				},
				{
					"inputs": [
						{
							"internalType": "address",
							"name": "owner",
							"type": "address"
						}
					],
					"name": "OwnableInvalidOwner",
					"type": "error"
				},
				{
					"inputs": [
						{
							"internalType": "address",
							"name": "account",
							"type": "address"
						}
					],
					"name": "OwnableUnauthorizedAccount",
					"type": "error"
				},
				{
					"anonymous": false,
					"inputs": [
						{
							"indexed": true,
							"internalType": "address",
							"name": "",
							"type": "address"
						},
						{
							"indexed": false,
							"internalType": "uint256",
							"name": "value",
							"type": "uint256"
						}
					],
					"name": "Donation",
					"type": "event"
				},
				{
					"anonymous": false,
					"inputs": [
						{
							"indexed": true,
							"internalType": "address",
							"name": "previousOwner",
							"type": "address"
						},
						{
							"indexed": true,
							"internalType": "address",
							"name": "newOwner",
							"type": "address"
						}
					],
					"name": "OwnershipTransferred",
					"type": "event"
				},
				{
					"stateMutability": "payable",
					"type": "fallback"
				},
				{
					"inputs": [],
					"name": "donate",
					"outputs": [],
					"stateMutability": "payable",
					"type": "function"
				},
				{
					"inputs": [
						{
							"internalType": "address",
							"name": "aa",
							"type": "address"
						}
					],
					"name": "getDonation",
					"outputs": [
						{
							"internalType": "uint256",
							"name": "",
							"type": "uint256"
						}
					],
					"stateMutability": "view",
					"type": "function"
				},
				{
					"inputs": [],
					"name": "owner",
					"outputs": [
						{
							"internalType": "address",
							"name": "",
							"type": "address"
						}
					],
					"stateMutability": "view",
					"type": "function"
				},
				{
					"inputs": [],
					"name": "renounceOwnership",
					"outputs": [],
					"stateMutability": "nonpayable",
					"type": "function"
				},
				{
					"inputs": [
						{
							"internalType": "address",
							"name": "newOwner",
							"type": "address"
						}
					],
					"name": "transferOwnership",
					"outputs": [],
					"stateMutability": "nonpayable",
					"type": "function"
				},
				{
					"inputs": [],
					"name": "withdraw",
					"outputs": [
						{
							"internalType": "bool",
							"name": "",
							"type": "bool"
						}
					],
					"stateMutability": "nonpayable",
					"type": "function"
				},
				{
					"stateMutability": "payable",
					"type": "receive"
				}
			],
			"devdoc": {
				"errors": {
					"OwnableInvalidOwner(address)": [
						{
							"details": "The owner is not a valid owner account. (eg. `address(0)`)"
						}
					],
					"OwnableUnauthorizedAccount(address)": [
						{
							"details": "The caller account is not authorized to perform an operation."
						}
					]
				},
				"kind": "dev",
				"methods": {
					"owner()": {
						"details": "Returns the address of the current owner."
					},
					"renounceOwnership()": {
						"details": "Leaves the contract without owner. It will not be possible to call `onlyOwner` functions. Can only be called by the current owner. NOTE: Renouncing ownership will leave the contract without an owner, thereby disabling any functionality that is only available to the owner."
					},
					"transferOwnership(address)": {
						"details": "Transfers ownership of the contract to a new account (`newOwner`). Can only be called by the current owner."
					}
				},
				"version": 1
			},
			"evm": {
				"assembly": "    /* \"BeggingContract.sol\":112:1203  contract BeggingContract is Ownable {... */\n  mstore(0x40, 0xc0)\n    /* \"BeggingContract.sol\":397:523  constructor() Ownable(msg.sender) {... */\n  callvalue\n  dup1\n  iszero\n  tag_1\n  jumpi\n  revert(0x00, 0x00)\ntag_1:\n  pop\n    /* \"BeggingContract.sol\":419:429  msg.sender */\n  caller\n    /* \"@openzeppelin/contracts/access/Ownable.sol\":1297:1298  0 */\n  0x00\n    /* \"@openzeppelin/contracts/access/Ownable.sol\":1273:1299  initialOwner == address(0) */\n  0xffffffffffffffffffffffffffffffffffffffff\n  and\n    /* \"@openzeppelin/contracts/access/Ownable.sol\":1273:1285  initialOwner */\n  dup2\n    /* \"@openzeppelin/contracts/access/Ownable.sol\":1273:1299  initialOwner == address(0) */\n  0xffffffffffffffffffffffffffffffffffffffff\n  and\n  sub\n    /* \"@openzeppelin/contracts/access/Ownable.sol\":1269:1364  if (initialOwner == address(0)) {... */\n  tag_5\n  jumpi\n    /* \"@openzeppelin/contracts/access/Ownable.sol\":1350:1351  0 */\n  0x00\n    /* \"@openzeppelin/contracts/access/Ownable.sol\":1322:1353  OwnableInvalidOwner(address(0)) */\n  mload(0x40)\n  0x1e4fbdf700000000000000000000000000000000000000000000000000000000\n  dup2\n  mstore\n  0x04\n  add\n  tag_6\n  swap2\n  swap1\n  tag_7\n  jump\t// in\ntag_6:\n  mload(0x40)\n  dup1\n  swap2\n  sub\n  swap1\n  revert\n    /* \"@openzeppelin/contracts/access/Ownable.sol\":1269:1364  if (initialOwner == address(0)) {... */\ntag_5:\n    /* \"@openzeppelin/contracts/access/Ownable.sol\":1373:1405  _transferOwnership(initialOwner) */\n  tag_8\n    /* \"@openzeppelin/contracts/access/Ownable.sol\":1392:1404  initialOwner */\n  dup2\n    /* \"@openzeppelin/contracts/access/Ownable.sol\":1373:1391  _transferOwnership */\n  shl(0x20, tag_9)\n    /* \"@openzeppelin/contracts/access/Ownable.sol\":1373:1405  _transferOwnership(initialOwner) */\n  0x20\n  shr\n  jump\t// in\ntag_8:\n    /* \"@openzeppelin/contracts/access/Ownable.sol\":1225:1412  constructor(address initialOwner) {... */\n  pop\n    /* \"BeggingContract.sol\":454:469  block.timestamp */\n  timestamp\n    /* \"BeggingContract.sol\":442:469  startTime = block.timestamp */\n  0x80\n  dup2\n  dup2\n  mstore\n  pop\n  pop\n    /* \"BeggingContract.sol\":513:515  60 */\n  0x3c\n    /* \"BeggingContract.sol\":332:333  1 */\n  0x01\n    /* \"BeggingContract.sol\":502:515  _duration *60 */\n  tag_11\n  swap2\n  swap1\n  tag_12\n  jump\t// in\ntag_11:\n    /* \"BeggingContract.sol\":490:499  startTime */\n  mload(0x80)\n    /* \"BeggingContract.sol\":490:515  startTime + _duration *60 */\n  tag_13\n  swap2\n  swap1\n  tag_14\n  jump\t// in\ntag_13:\n    /* \"BeggingContract.sol\":480:515  endTime = startTime + _duration *60 */\n  0xa0\n  dup2\n  dup2\n  mstore\n  pop\n  pop\n    /* \"BeggingContract.sol\":112:1203  contract BeggingContract is Ownable {... */\n  jump(tag_15)\n    /* \"@openzeppelin/contracts/access/Ownable.sol\":2912:3099  function _transferOwnership(address newOwner) internal virtual {... */\ntag_9:\n    /* \"@openzeppelin/contracts/access/Ownable.sol\":2985:3001  address oldOwner */\n  0x00\n    /* \"@openzeppelin/contracts/access/Ownable.sol\":3004:3010  _owner */\n  0x00\n  0x00\n  swap1\n  sload\n  swap1\n  0x0100\n  exp\n  swap1\n  div\n  0xffffffffffffffffffffffffffffffffffffffff\n  and\n    /* \"@openzeppelin/contracts/access/Ownable.sol\":2985:3010  address oldOwner = _owner */\n  swap1\n  pop\n    /* \"@openzeppelin/contracts/access/Ownable.sol\":3029:3037  newOwner */\n  dup2\n    /* \"@openzeppelin/contracts/access/Ownable.sol\":3020:3026  _owner */\n  0x00\n  0x00\n    /* \"@openzeppelin/contracts/access/Ownable.sol\":3020:3037  _owner = newOwner */\n  0x0100\n  exp\n  dup2\n  sload\n  dup2\n  0xffffffffffffffffffffffffffffffffffffffff\n  mul\n  not\n  and\n  swap1\n  dup4\n  0xffffffffffffffffffffffffffffffffffffffff\n  and\n  mul\n  or\n  swap1\n  sstore\n  pop\n    /* \"@openzeppelin/contracts/access/Ownable.sol\":3083:3091  newOwner */\n  dup2\n    /* \"@openzeppelin/contracts/access/Ownable.sol\":3052:3092  OwnershipTransferred(oldOwner, newOwner) */\n  0xffffffffffffffffffffffffffffffffffffffff\n  and\n    /* \"@openzeppelin/contracts/access/Ownable.sol\":3073:3081  oldOwner */\n  dup2\n    /* \"@openzeppelin/contracts/access/Ownable.sol\":3052:3092  OwnershipTransferred(oldOwner, newOwner) */\n  0xffffffffffffffffffffffffffffffffffffffff\n  and\n  0x8be0079c531659141344cd1fd0a4f28419497f9722a3daafe3b4186f6b6457e0\n  mload(0x40)\n  mload(0x40)\n  dup1\n  swap2\n  sub\n  swap1\n  log3\n    /* \"@openzeppelin/contracts/access/Ownable.sol\":2975:3099  {... */\n  pop\n    /* \"@openzeppelin/contracts/access/Ownable.sol\":2912:3099  function _transferOwnership(address newOwner) internal virtual {... */\n  pop\n  jump\t// out\n    /* \"#utility.yul\":7:133   */\ntag_17:\n    /* \"#utility.yul\":44:51   */\n  0x00\n    /* \"#utility.yul\":84:126   */\n  0xffffffffffffffffffffffffffffffffffffffff\n    /* \"#utility.yul\":77:82   */\n  dup3\n    /* \"#utility.yul\":73:127   */\n  and\n    /* \"#utility.yul\":62:127   */\n  swap1\n  pop\n    /* \"#utility.yul\":7:133   */\n  swap2\n  swap1\n  pop\n  jump\t// out\n    /* \"#utility.yul\":139:235   */\ntag_18:\n    /* \"#utility.yul\":176:183   */\n  0x00\n    /* \"#utility.yul\":205:229   */\n  tag_25\n    /* \"#utility.yul\":223:228   */\n  dup3\n    /* \"#utility.yul\":205:229   */\n  tag_17\n  jump\t// in\ntag_25:\n    /* \"#utility.yul\":194:229   */\n  swap1\n  pop\n    /* \"#utility.yul\":139:235   */\n  swap2\n  swap1\n  pop\n  jump\t// out\n    /* \"#utility.yul\":241:359   */\ntag_19:\n    /* \"#utility.yul\":328:352   */\n  tag_27\n    /* \"#utility.yul\":346:351   */\n  dup2\n    /* \"#utility.yul\":328:352   */\n  tag_18\n  jump\t// in\ntag_27:\n    /* \"#utility.yul\":323:326   */\n  dup3\n    /* \"#utility.yul\":316:353   */\n  mstore\n    /* \"#utility.yul\":241:359   */\n  pop\n  pop\n  jump\t// out\n    /* \"#utility.yul\":365:587   */\ntag_7:\n    /* \"#utility.yul\":458:462   */\n  0x00\n    /* \"#utility.yul\":496:498   */\n  0x20\n    /* \"#utility.yul\":485:494   */\n  dup3\n    /* \"#utility.yul\":481:499   */\n  add\n    /* \"#utility.yul\":473:499   */\n  swap1\n  pop\n    /* \"#utility.yul\":509:580   */\n  tag_29\n    /* \"#utility.yul\":577:578   */\n  0x00\n    /* \"#utility.yul\":566:575   */\n  dup4\n    /* \"#utility.yul\":562:579   */\n  add\n    /* \"#utility.yul\":553:559   */\n  dup5\n    /* \"#utility.yul\":509:580   */\n  tag_19\n  jump\t// in\ntag_29:\n    /* \"#utility.yul\":365:587   */\n  swap3\n  swap2\n  pop\n  pop\n  jump\t// out\n    /* \"#utility.yul\":593:670   */\ntag_20:\n    /* \"#utility.yul\":630:637   */\n  0x00\n    /* \"#utility.yul\":659:664   */\n  dup2\n    /* \"#utility.yul\":648:664   */\n  swap1\n  pop\n    /* \"#utility.yul\":593:670   */\n  swap2\n  swap1\n  pop\n  jump\t// out\n    /* \"#utility.yul\":676:856   */\ntag_21:\n    /* \"#utility.yul\":724:801   */\n  0x4e487b7100000000000000000000000000000000000000000000000000000000\n    /* \"#utility.yul\":721:722   */\n  0x00\n    /* \"#utility.yul\":714:802   */\n  mstore\n    /* \"#utility.yul\":821:825   */\n  0x11\n    /* \"#utility.yul\":818:819   */\n  0x04\n    /* \"#utility.yul\":811:826   */\n  mstore\n    /* \"#utility.yul\":845:849   */\n  0x24\n    /* \"#utility.yul\":842:843   */\n  0x00\n    /* \"#utility.yul\":835:850   */\n  revert\n    /* \"#utility.yul\":862:1272   */\ntag_12:\n    /* \"#utility.yul\":902:909   */\n  0x00\n    /* \"#utility.yul\":925:945   */\n  tag_33\n    /* \"#utility.yul\":943:944   */\n  dup3\n    /* \"#utility.yul\":925:945   */\n  tag_20\n  jump\t// in\ntag_33:\n    /* \"#utility.yul\":920:945   */\n  swap2\n  pop\n    /* \"#utility.yul\":959:979   */\n  tag_34\n    /* \"#utility.yul\":977:978   */\n  dup4\n    /* \"#utility.yul\":959:979   */\n  tag_20\n  jump\t// in\ntag_34:\n    /* \"#utility.yul\":954:979   */\n  swap3\n  pop\n    /* \"#utility.yul\":1014:1015   */\n  dup3\n    /* \"#utility.yul\":1011:1012   */\n  dup3\n    /* \"#utility.yul\":1007:1016   */\n  mul\n    /* \"#utility.yul\":1036:1066   */\n  tag_35\n    /* \"#utility.yul\":1054:1065   */\n  dup2\n    /* \"#utility.yul\":1036:1066   */\n  tag_20\n  jump\t// in\ntag_35:\n    /* \"#utility.yul\":1025:1066   */\n  swap2\n  pop\n    /* \"#utility.yul\":1215:1216   */\n  dup3\n    /* \"#utility.yul\":1206:1213   */\n  dup3\n    /* \"#utility.yul\":1202:1217   */\n  div\n    /* \"#utility.yul\":1199:1200   */\n  dup5\n    /* \"#utility.yul\":1196:1218   */\n  eq\n    /* \"#utility.yul\":1176:1177   */\n  dup4\n    /* \"#utility.yul\":1169:1178   */\n  iszero\n    /* \"#utility.yul\":1149:1232   */\n  or\n    /* \"#utility.yul\":1126:1265   */\n  tag_36\n  jumpi\n    /* \"#utility.yul\":1245:1263   */\n  tag_37\n  tag_21\n  jump\t// in\ntag_37:\n    /* \"#utility.yul\":1126:1265   */\ntag_36:\n    /* \"#utility.yul\":910:1272   */\n  pop\n    /* \"#utility.yul\":862:1272   */\n  swap3\n  swap2\n  pop\n  pop\n  jump\t// out\n    /* \"#utility.yul\":1278:1469   */\ntag_14:\n    /* \"#utility.yul\":1318:1321   */\n  0x00\n    /* \"#utility.yul\":1337:1357   */\n  tag_39\n    /* \"#utility.yul\":1355:1356   */\n  dup3\n    /* \"#utility.yul\":1337:1357   */\n  tag_20\n  jump\t// in\ntag_39:\n    /* \"#utility.yul\":1332:1357   */\n  swap2\n  pop\n    /* \"#utility.yul\":1371:1391   */\n  tag_40\n    /* \"#utility.yul\":1389:1390   */\n  dup4\n    /* \"#utility.yul\":1371:1391   */\n  tag_20\n  jump\t// in\ntag_40:\n    /* \"#utility.yul\":1366:1391   */\n  swap3\n  pop\n    /* \"#utility.yul\":1414:1415   */\n  dup3\n    /* \"#utility.yul\":1411:1412   */\n  dup3\n    /* \"#utility.yul\":1407:1416   */\n  add\n    /* \"#utility.yul\":1400:1416   */\n  swap1\n  pop\n    /* \"#utility.yul\":1435:1438   */\n  dup1\n    /* \"#utility.yul\":1432:1433   */\n  dup3\n    /* \"#utility.yul\":1429:1439   */\n  gt\n    /* \"#utility.yul\":1426:1462   */\n  iszero\n  tag_41\n  jumpi\n    /* \"#utility.yul\":1442:1460   */\n  tag_42\n  tag_21\n  jump\t// in\ntag_42:\n    /* \"#utility.yul\":1426:1462   */\ntag_41:\n    /* \"#utility.yul\":1278:1469   */\n  swap3\n  swap2\n  pop\n  pop\n  jump\t// out\n    /* \"BeggingContract.sol\":112:1203  contract BeggingContract is Ownable {... */\ntag_15:\n  mload(0x80)\n  mload(0xa0)\n  codecopy(0x00, dataOffset(sub_0), dataSize(sub_0))\n  0x00\n  assignImmutable(\"0xe056e162080d5da78663154decfd308f0383b8d138d504e8a4cde93086ac2fef\")\n  0x00\n  assignImmutable(\"0xac8a4843910b5569f3915173c70dbcbb8947a9742ff1536cccc8b4f26cbdef89\")\n  return(0x00, dataSize(sub_0))\nstop\n\nsub_0: assembly {\n        /* \"BeggingContract.sol\":112:1203  contract BeggingContract is Ownable {... */\n      mstore(0x40, 0x80)\n      jumpi(tag_1, lt(calldatasize, 0x04))\n      shr(0xe0, calldataload(0x00))\n      dup1\n      0x3ccfd60b\n      eq\n      tag_3\n      jumpi\n      dup1\n      0x410a1d32\n      eq\n      tag_4\n      jumpi\n      dup1\n      0x715018a6\n      eq\n      tag_5\n      jumpi\n      dup1\n      0x8da5cb5b\n      eq\n      tag_6\n      jumpi\n      dup1\n      0xed88c68e\n      eq\n      tag_7\n      jumpi\n      dup1\n      0xf2fde38b\n      eq\n      tag_8\n      jumpi\n      jump(tag_2)\n    tag_1:\n    tag_2:\n      stop\n        /* \"BeggingContract.sol\":848:1019  function withdraw() public onlyOwner returns(bool){... */\n    tag_3:\n      callvalue\n      dup1\n      iszero\n      tag_13\n      jumpi\n      revert(0x00, 0x00)\n    tag_13:\n      pop\n      tag_14\n      tag_15\n      jump\t// in\n    tag_14:\n      mload(0x40)\n      tag_16\n      swap2\n      swap1\n      tag_17\n      jump\t// in\n    tag_16:\n      mload(0x40)\n      dup1\n      swap2\n      sub\n      swap1\n      return\n        /* \"BeggingContract.sol\":1025:1125  function getDonation(address aa) public view returns (uint256) {... */\n    tag_4:\n      callvalue\n      dup1\n      iszero\n      tag_18\n      jumpi\n      revert(0x00, 0x00)\n    tag_18:\n      pop\n      tag_19\n      0x04\n      dup1\n      calldatasize\n      sub\n      dup2\n      add\n      swap1\n      tag_20\n      swap2\n      swap1\n      tag_21\n      jump\t// in\n    tag_20:\n      tag_22\n      jump\t// in\n    tag_19:\n      mload(0x40)\n      tag_23\n      swap2\n      swap1\n      tag_24\n      jump\t// in\n    tag_23:\n      mload(0x40)\n      dup1\n      swap2\n      sub\n      swap1\n      return\n        /* \"@openzeppelin/contracts/access/Ownable.sol\":2293:2394  function renounceOwnership() public virtual onlyOwner {... */\n    tag_5:\n      callvalue\n      dup1\n      iszero\n      tag_25\n      jumpi\n      revert(0x00, 0x00)\n    tag_25:\n      pop\n      tag_26\n      tag_27\n      jump\t// in\n    tag_26:\n      stop\n        /* \"@openzeppelin/contracts/access/Ownable.sol\":1638:1723  function owner() public view virtual returns (address) {... */\n    tag_6:\n      callvalue\n      dup1\n      iszero\n      tag_28\n      jumpi\n      revert(0x00, 0x00)\n    tag_28:\n      pop\n      tag_29\n      tag_30\n      jump\t// in\n    tag_29:\n      mload(0x40)\n      tag_31\n      swap2\n      swap1\n      tag_32\n      jump\t// in\n    tag_31:\n      mload(0x40)\n      dup1\n      swap2\n      sub\n      swap1\n      return\n        /* \"BeggingContract.sol\":531:840  function donate() public payable {... */\n    tag_7:\n      tag_33\n      tag_34\n      jump\t// in\n    tag_33:\n      stop\n        /* \"@openzeppelin/contracts/access/Ownable.sol\":2543:2758  function transferOwnership(address newOwner) public virtual onlyOwner {... */\n    tag_8:\n      callvalue\n      dup1\n      iszero\n      tag_35\n      jumpi\n      revert(0x00, 0x00)\n    tag_35:\n      pop\n      tag_36\n      0x04\n      dup1\n      calldatasize\n      sub\n      dup2\n      add\n      swap1\n      tag_37\n      swap2\n      swap1\n      tag_21\n      jump\t// in\n    tag_37:\n      tag_38\n      jump\t// in\n    tag_36:\n      stop\n        /* \"BeggingContract.sol\":848:1019  function withdraw() public onlyOwner returns(bool){... */\n    tag_15:\n        /* \"BeggingContract.sol\":893:897  bool */\n      0x00\n        /* \"@openzeppelin/contracts/access/Ownable.sol\":1531:1544  _checkOwner() */\n      tag_40\n        /* \"@openzeppelin/contracts/access/Ownable.sol\":1531:1542  _checkOwner */\n      tag_41\n        /* \"@openzeppelin/contracts/access/Ownable.sol\":1531:1544  _checkOwner() */\n      jump\t// in\n    tag_40:\n        /* \"BeggingContract.sol\":910:922  bool success */\n      0x00\n        /* \"BeggingContract.sol\":936:946  msg.sender */\n      caller\n        /* \"BeggingContract.sol\":928:952  payable(msg.sender).call */\n      0xffffffffffffffffffffffffffffffffffffffff\n      and\n        /* \"BeggingContract.sol\":960:981  address(this).balance */\n      selfbalance\n        /* \"BeggingContract.sol\":928:986  payable(msg.sender).call{value: address(this).balance}(\"\") */\n      mload(0x40)\n      tag_43\n      swap1\n      tag_44\n      jump\t// in\n    tag_43:\n      0x00\n      mload(0x40)\n      dup1\n      dup4\n      sub\n      dup2\n      dup6\n      dup8\n      gas\n      call\n      swap3\n      pop\n      pop\n      pop\n      returndatasize\n      dup1\n      0x00\n      dup2\n      eq\n      tag_47\n      jumpi\n      mload(0x40)\n      swap2\n      pop\n      and(add(returndatasize, 0x3f), not(0x1f))\n      dup3\n      add\n      0x40\n      mstore\n      returndatasize\n      dup3\n      mstore\n      returndatasize\n      0x00\n      0x20\n      dup5\n      add\n      returndatacopy\n      jump(tag_46)\n    tag_47:\n      0x60\n      swap2\n      pop\n    tag_46:\n      pop\n        /* \"BeggingContract.sol\":909:986  (bool success, ) = payable(msg.sender).call{value: address(this).balance}(\"\") */\n      pop\n      swap1\n      pop\n        /* \"BeggingContract.sol\":1004:1011  success */\n      dup1\n        /* \"BeggingContract.sol\":997:1011  return success */\n      swap2\n      pop\n      pop\n        /* \"BeggingContract.sol\":848:1019  function withdraw() public onlyOwner returns(bool){... */\n      swap1\n      jump\t// out\n        /* \"BeggingContract.sol\":1025:1125  function getDonation(address aa) public view returns (uint256) {... */\n    tag_22:\n        /* \"BeggingContract.sol\":1079:1086  uint256 */\n      0x00\n        /* \"BeggingContract.sol\":1106:1113  _donate */\n      0x01\n        /* \"BeggingContract.sol\":1106:1117  _donate[aa] */\n      0x00\n        /* \"BeggingContract.sol\":1114:1116  aa */\n      dup4\n        /* \"BeggingContract.sol\":1106:1117  _donate[aa] */\n      0xffffffffffffffffffffffffffffffffffffffff\n      and\n      0xffffffffffffffffffffffffffffffffffffffff\n      and\n      dup2\n      mstore\n      0x20\n      add\n      swap1\n      dup2\n      mstore\n      0x20\n      add\n      0x00\n      keccak256\n      sload\n        /* \"BeggingContract.sol\":1099:1117  return _donate[aa] */\n      swap1\n      pop\n        /* \"BeggingContract.sol\":1025:1125  function getDonation(address aa) public view returns (uint256) {... */\n      swap2\n      swap1\n      pop\n      jump\t// out\n        /* \"@openzeppelin/contracts/access/Ownable.sol\":2293:2394  function renounceOwnership() public virtual onlyOwner {... */\n    tag_27:\n        /* \"@openzeppelin/contracts/access/Ownable.sol\":1531:1544  _checkOwner() */\n      tag_50\n        /* \"@openzeppelin/contracts/access/Ownable.sol\":1531:1542  _checkOwner */\n      tag_41\n        /* \"@openzeppelin/contracts/access/Ownable.sol\":1531:1544  _checkOwner() */\n      jump\t// in\n    tag_50:\n        /* \"@openzeppelin/contracts/access/Ownable.sol\":2357:2387  _transferOwnership(address(0)) */\n      tag_52\n        /* \"@openzeppelin/contracts/access/Ownable.sol\":2384:2385  0 */\n      0x00\n        /* \"@openzeppelin/contracts/access/Ownable.sol\":2357:2375  _transferOwnership */\n      tag_53\n        /* \"@openzeppelin/contracts/access/Ownable.sol\":2357:2387  _transferOwnership(address(0)) */\n      jump\t// in\n    tag_52:\n        /* \"@openzeppelin/contracts/access/Ownable.sol\":2293:2394  function renounceOwnership() public virtual onlyOwner {... */\n      jump\t// out\n        /* \"@openzeppelin/contracts/access/Ownable.sol\":1638:1723  function owner() public view virtual returns (address) {... */\n    tag_30:\n        /* \"@openzeppelin/contracts/access/Ownable.sol\":1684:1691  address */\n      0x00\n        /* \"@openzeppelin/contracts/access/Ownable.sol\":1710:1716  _owner */\n      0x00\n      0x00\n      swap1\n      sload\n      swap1\n      0x0100\n      exp\n      swap1\n      div\n      0xffffffffffffffffffffffffffffffffffffffff\n      and\n        /* \"@openzeppelin/contracts/access/Ownable.sol\":1703:1716  return _owner */\n      swap1\n      pop\n        /* \"@openzeppelin/contracts/access/Ownable.sol\":1638:1723  function owner() public view virtual returns (address) {... */\n      swap1\n      jump\t// out\n        /* \"BeggingContract.sol\":531:840  function donate() public payable {... */\n    tag_34:\n        /* \"BeggingContract.sol\":604:605  0 */\n      0x00\n        /* \"BeggingContract.sol\":593:602  msg.value */\n      callvalue\n        /* \"BeggingContract.sol\":593:605  msg.value >0 */\n      gt\n        /* \"BeggingContract.sol\":585:640  require(msg.value >0, \"donate value must great than 0\") */\n      tag_56\n      jumpi\n      mload(0x40)\n      0x08c379a000000000000000000000000000000000000000000000000000000000\n      dup2\n      mstore\n      0x04\n      add\n      tag_57\n      swap1\n      tag_58\n      jump\t// in\n    tag_57:\n      mload(0x40)\n      dup1\n      swap2\n      sub\n      swap1\n      revert\n    tag_56:\n        /* \"BeggingContract.sol\":678:687  startTime */\n      immutable(\"0xac8a4843910b5569f3915173c70dbcbb8947a9742ff1536cccc8b4f26cbdef89\")\n        /* \"BeggingContract.sol\":659:674  block.timestamp */\n      timestamp\n        /* \"BeggingContract.sol\":659:687  block.timestamp >= startTime */\n      lt\n      iszero\n        /* \"BeggingContract.sol\":659:717  block.timestamp >= startTime && block.timestamp <= endTime */\n      dup1\n      iszero\n      tag_59\n      jumpi\n      pop\n        /* \"BeggingContract.sol\":710:717  endTime */\n      immutable(\"0xe056e162080d5da78663154decfd308f0383b8d138d504e8a4cde93086ac2fef\")\n        /* \"BeggingContract.sol\":691:706  block.timestamp */\n      timestamp\n        /* \"BeggingContract.sol\":691:717  block.timestamp <= endTime */\n      gt\n      iszero\n        /* \"BeggingContract.sol\":659:717  block.timestamp >= startTime && block.timestamp <= endTime */\n    tag_59:\n        /* \"BeggingContract.sol\":651:741  require(block.timestamp >= startTime && block.timestamp <= endTime, \"time is not allowed\") */\n      tag_60\n      jumpi\n      mload(0x40)\n      0x08c379a000000000000000000000000000000000000000000000000000000000\n      dup2\n      mstore\n      0x04\n      add\n      tag_61\n      swap1\n      tag_62\n      jump\t// in\n    tag_61:\n      mload(0x40)\n      dup1\n      swap2\n      sub\n      swap1\n      revert\n    tag_60:\n        /* \"BeggingContract.sol\":776:785  msg.value */\n      callvalue\n        /* \"BeggingContract.sol\":752:759  _donate */\n      0x01\n        /* \"BeggingContract.sol\":752:771  _donate[msg.sender] */\n      0x00\n        /* \"BeggingContract.sol\":760:770  msg.sender */\n      caller\n        /* \"BeggingContract.sol\":752:771  _donate[msg.sender] */\n      0xffffffffffffffffffffffffffffffffffffffff\n      and\n      0xffffffffffffffffffffffffffffffffffffffff\n      and\n      dup2\n      mstore\n      0x20\n      add\n      swap1\n      dup2\n      mstore\n      0x20\n      add\n      0x00\n      keccak256\n      0x00\n        /* \"BeggingContract.sol\":752:785  _donate[msg.sender] +=  msg.value */\n      dup3\n      dup3\n      sload\n      tag_63\n      swap2\n      swap1\n      tag_64\n      jump\t// in\n    tag_63:\n      swap3\n      pop\n      pop\n      dup2\n      swap1\n      sstore\n      pop\n        /* \"BeggingContract.sol\":810:820  msg.sender */\n      caller\n        /* \"BeggingContract.sol\":801:832  Donation(msg.sender, msg.value) */\n      0xffffffffffffffffffffffffffffffffffffffff\n      and\n      0x5d8bc849764969eb1bcc6d0a2f55999d0167c1ccec240a4f39cf664ca9c4148e\n        /* \"BeggingContract.sol\":822:831  msg.value */\n      callvalue\n        /* \"BeggingContract.sol\":801:832  Donation(msg.sender, msg.value) */\n      mload(0x40)\n      tag_65\n      swap2\n      swap1\n      tag_24\n      jump\t// in\n    tag_65:\n      mload(0x40)\n      dup1\n      swap2\n      sub\n      swap1\n      log2\n        /* \"BeggingContract.sol\":531:840  function donate() public payable {... */\n      jump\t// out\n        /* \"@openzeppelin/contracts/access/Ownable.sol\":2543:2758  function transferOwnership(address newOwner) public virtual onlyOwner {... */\n    tag_38:\n        /* \"@openzeppelin/contracts/access/Ownable.sol\":1531:1544  _checkOwner() */\n      tag_67\n        /* \"@openzeppelin/contracts/access/Ownable.sol\":1531:1542  _checkOwner */\n      tag_41\n        /* \"@openzeppelin/contracts/access/Ownable.sol\":1531:1544  _checkOwner() */\n      jump\t// in\n    tag_67:\n        /* \"@openzeppelin/contracts/access/Ownable.sol\":2647:2648  0 */\n      0x00\n        /* \"@openzeppelin/contracts/access/Ownable.sol\":2627:2649  newOwner == address(0) */\n      0xffffffffffffffffffffffffffffffffffffffff\n      and\n        /* \"@openzeppelin/contracts/access/Ownable.sol\":2627:2635  newOwner */\n      dup2\n        /* \"@openzeppelin/contracts/access/Ownable.sol\":2627:2649  newOwner == address(0) */\n      0xffffffffffffffffffffffffffffffffffffffff\n      and\n      sub\n        /* \"@openzeppelin/contracts/access/Ownable.sol\":2623:2714  if (newOwner == address(0)) {... */\n      tag_69\n      jumpi\n        /* \"@openzeppelin/contracts/access/Ownable.sol\":2700:2701  0 */\n      0x00\n        /* \"@openzeppelin/contracts/access/Ownable.sol\":2672:2703  OwnableInvalidOwner(address(0)) */\n      mload(0x40)\n      0x1e4fbdf700000000000000000000000000000000000000000000000000000000\n      dup2\n      mstore\n      0x04\n      add\n      tag_70\n      swap2\n      swap1\n      tag_32\n      jump\t// in\n    tag_70:\n      mload(0x40)\n      dup1\n      swap2\n      sub\n      swap1\n      revert\n        /* \"@openzeppelin/contracts/access/Ownable.sol\":2623:2714  if (newOwner == address(0)) {... */\n    tag_69:\n        /* \"@openzeppelin/contracts/access/Ownable.sol\":2723:2751  _transferOwnership(newOwner) */\n      tag_71\n        /* \"@openzeppelin/contracts/access/Ownable.sol\":2742:2750  newOwner */\n      dup2\n        /* \"@openzeppelin/contracts/access/Ownable.sol\":2723:2741  _transferOwnership */\n      tag_53\n        /* \"@openzeppelin/contracts/access/Ownable.sol\":2723:2751  _transferOwnership(newOwner) */\n      jump\t// in\n    tag_71:\n        /* \"@openzeppelin/contracts/access/Ownable.sol\":2543:2758  function transferOwnership(address newOwner) public virtual onlyOwner {... */\n      pop\n      jump\t// out\n        /* \"@openzeppelin/contracts/access/Ownable.sol\":1796:1958  function _checkOwner() internal view virtual {... */\n    tag_41:\n        /* \"@openzeppelin/contracts/access/Ownable.sol\":1866:1878  _msgSender() */\n      tag_73\n        /* \"@openzeppelin/contracts/access/Ownable.sol\":1866:1876  _msgSender */\n      tag_74\n        /* \"@openzeppelin/contracts/access/Ownable.sol\":1866:1878  _msgSender() */\n      jump\t// in\n    tag_73:\n        /* \"@openzeppelin/contracts/access/Ownable.sol\":1855:1878  owner() != _msgSender() */\n      0xffffffffffffffffffffffffffffffffffffffff\n      and\n        /* \"@openzeppelin/contracts/access/Ownable.sol\":1855:1862  owner() */\n      tag_75\n        /* \"@openzeppelin/contracts/access/Ownable.sol\":1855:1860  owner */\n      tag_30\n        /* \"@openzeppelin/contracts/access/Ownable.sol\":1855:1862  owner() */\n      jump\t// in\n    tag_75:\n        /* \"@openzeppelin/contracts/access/Ownable.sol\":1855:1878  owner() != _msgSender() */\n      0xffffffffffffffffffffffffffffffffffffffff\n      and\n      eq\n        /* \"@openzeppelin/contracts/access/Ownable.sol\":1851:1952  if (owner() != _msgSender()) {... */\n      tag_76\n      jumpi\n        /* \"@openzeppelin/contracts/access/Ownable.sol\":1928:1940  _msgSender() */\n      tag_77\n        /* \"@openzeppelin/contracts/access/Ownable.sol\":1928:1938  _msgSender */\n      tag_74\n        /* \"@openzeppelin/contracts/access/Ownable.sol\":1928:1940  _msgSender() */\n      jump\t// in\n    tag_77:\n        /* \"@openzeppelin/contracts/access/Ownable.sol\":1901:1941  OwnableUnauthorizedAccount(_msgSender()) */\n      mload(0x40)\n      0x118cdaa700000000000000000000000000000000000000000000000000000000\n      dup2\n      mstore\n      0x04\n      add\n      tag_78\n      swap2\n      swap1\n      tag_32\n      jump\t// in\n    tag_78:\n      mload(0x40)\n      dup1\n      swap2\n      sub\n      swap1\n      revert\n        /* \"@openzeppelin/contracts/access/Ownable.sol\":1851:1952  if (owner() != _msgSender()) {... */\n    tag_76:\n        /* \"@openzeppelin/contracts/access/Ownable.sol\":1796:1958  function _checkOwner() internal view virtual {... */\n      jump\t// out\n        /* \"@openzeppelin/contracts/access/Ownable.sol\":2912:3099  function _transferOwnership(address newOwner) internal virtual {... */\n    tag_53:\n        /* \"@openzeppelin/contracts/access/Ownable.sol\":2985:3001  address oldOwner */\n      0x00\n        /* \"@openzeppelin/contracts/access/Ownable.sol\":3004:3010  _owner */\n      0x00\n      0x00\n      swap1\n      sload\n      swap1\n      0x0100\n      exp\n      swap1\n      div\n      0xffffffffffffffffffffffffffffffffffffffff\n      and\n        /* \"@openzeppelin/contracts/access/Ownable.sol\":2985:3010  address oldOwner = _owner */\n      swap1\n      pop\n        /* \"@openzeppelin/contracts/access/Ownable.sol\":3029:3037  newOwner */\n      dup2\n        /* \"@openzeppelin/contracts/access/Ownable.sol\":3020:3026  _owner */\n      0x00\n      0x00\n        /* \"@openzeppelin/contracts/access/Ownable.sol\":3020:3037  _owner = newOwner */\n      0x0100\n      exp\n      dup2\n      sload\n      dup2\n      0xffffffffffffffffffffffffffffffffffffffff\n      mul\n      not\n      and\n      swap1\n      dup4\n      0xffffffffffffffffffffffffffffffffffffffff\n      and\n      mul\n      or\n      swap1\n      sstore\n      pop\n        /* \"@openzeppelin/contracts/access/Ownable.sol\":3083:3091  newOwner */\n      dup2\n        /* \"@openzeppelin/contracts/access/Ownable.sol\":3052:3092  OwnershipTransferred(oldOwner, newOwner) */\n      0xffffffffffffffffffffffffffffffffffffffff\n      and\n        /* \"@openzeppelin/contracts/access/Ownable.sol\":3073:3081  oldOwner */\n      dup2\n        /* \"@openzeppelin/contracts/access/Ownable.sol\":3052:3092  OwnershipTransferred(oldOwner, newOwner) */\n      0xffffffffffffffffffffffffffffffffffffffff\n      and\n      0x8be0079c531659141344cd1fd0a4f28419497f9722a3daafe3b4186f6b6457e0\n      mload(0x40)\n      mload(0x40)\n      dup1\n      swap2\n      sub\n      swap1\n      log3\n        /* \"@openzeppelin/contracts/access/Ownable.sol\":2975:3099  {... */\n      pop\n        /* \"@openzeppelin/contracts/access/Ownable.sol\":2912:3099  function _transferOwnership(address newOwner) internal virtual {... */\n      pop\n      jump\t// out\n        /* \"@openzeppelin/contracts/utils/Context.sol\":656:752  function _msgSender() internal view virtual returns (address) {... */\n    tag_74:\n        /* \"@openzeppelin/contracts/utils/Context.sol\":709:716  address */\n      0x00\n        /* \"@openzeppelin/contracts/utils/Context.sol\":735:745  msg.sender */\n      caller\n        /* \"@openzeppelin/contracts/utils/Context.sol\":728:745  return msg.sender */\n      swap1\n      pop\n        /* \"@openzeppelin/contracts/utils/Context.sol\":656:752  function _msgSender() internal view virtual returns (address) {... */\n      swap1\n      jump\t// out\n        /* \"#utility.yul\":7:97   */\n    tag_81:\n        /* \"#utility.yul\":41:48   */\n      0x00\n        /* \"#utility.yul\":84:89   */\n      dup2\n        /* \"#utility.yul\":77:90   */\n      iszero\n        /* \"#utility.yul\":70:91   */\n      iszero\n        /* \"#utility.yul\":59:91   */\n      swap1\n      pop\n        /* \"#utility.yul\":7:97   */\n      swap2\n      swap1\n      pop\n      jump\t// out\n        /* \"#utility.yul\":103:212   */\n    tag_82:\n        /* \"#utility.yul\":184:205   */\n      tag_105\n        /* \"#utility.yul\":199:204   */\n      dup2\n        /* \"#utility.yul\":184:205   */\n      tag_81\n      jump\t// in\n    tag_105:\n        /* \"#utility.yul\":179:182   */\n      dup3\n        /* \"#utility.yul\":172:206   */\n      mstore\n        /* \"#utility.yul\":103:212   */\n      pop\n      pop\n      jump\t// out\n        /* \"#utility.yul\":218:428   */\n    tag_17:\n        /* \"#utility.yul\":305:309   */\n      0x00\n        /* \"#utility.yul\":343:345   */\n      0x20\n        /* \"#utility.yul\":332:341   */\n      dup3\n        /* \"#utility.yul\":328:346   */\n      add\n        /* \"#utility.yul\":320:346   */\n      swap1\n      pop\n        /* \"#utility.yul\":356:421   */\n      tag_107\n        /* \"#utility.yul\":418:419   */\n      0x00\n        /* \"#utility.yul\":407:416   */\n      dup4\n        /* \"#utility.yul\":403:420   */\n      add\n        /* \"#utility.yul\":394:400   */\n      dup5\n        /* \"#utility.yul\":356:421   */\n      tag_82\n      jump\t// in\n    tag_107:\n        /* \"#utility.yul\":218:428   */\n      swap3\n      swap2\n      pop\n      pop\n      jump\t// out\n        /* \"#utility.yul\":515:632   */\n    tag_84:\n        /* \"#utility.yul\":624:625   */\n      0x00\n        /* \"#utility.yul\":621:622   */\n      0x00\n        /* \"#utility.yul\":614:626   */\n      revert\n        /* \"#utility.yul\":761:887   */\n    tag_86:\n        /* \"#utility.yul\":798:805   */\n      0x00\n        /* \"#utility.yul\":838:880   */\n      0xffffffffffffffffffffffffffffffffffffffff\n        /* \"#utility.yul\":831:836   */\n      dup3\n        /* \"#utility.yul\":827:881   */\n      and\n        /* \"#utility.yul\":816:881   */\n      swap1\n      pop\n        /* \"#utility.yul\":761:887   */\n      swap2\n      swap1\n      pop\n      jump\t// out\n        /* \"#utility.yul\":893:989   */\n    tag_87:\n        /* \"#utility.yul\":930:937   */\n      0x00\n        /* \"#utility.yul\":959:983   */\n      tag_113\n        /* \"#utility.yul\":977:982   */\n      dup3\n        /* \"#utility.yul\":959:983   */\n      tag_86\n      jump\t// in\n    tag_113:\n        /* \"#utility.yul\":948:983   */\n      swap1\n      pop\n        /* \"#utility.yul\":893:989   */\n      swap2\n      swap1\n      pop\n      jump\t// out\n        /* \"#utility.yul\":995:1117   */\n    tag_88:\n        /* \"#utility.yul\":1068:1092   */\n      tag_115\n        /* \"#utility.yul\":1086:1091   */\n      dup2\n        /* \"#utility.yul\":1068:1092   */\n      tag_87\n      jump\t// in\n    tag_115:\n        /* \"#utility.yul\":1061:1066   */\n      dup2\n        /* \"#utility.yul\":1058:1093   */\n      eq\n        /* \"#utility.yul\":1048:1111   */\n      tag_116\n      jumpi\n        /* \"#utility.yul\":1107:1108   */\n      0x00\n        /* \"#utility.yul\":1104:1105   */\n      0x00\n        /* \"#utility.yul\":1097:1109   */\n      revert\n        /* \"#utility.yul\":1048:1111   */\n    tag_116:\n        /* \"#utility.yul\":995:1117   */\n      pop\n      jump\t// out\n        /* \"#utility.yul\":1123:1262   */\n    tag_89:\n        /* \"#utility.yul\":1169:1174   */\n      0x00\n        /* \"#utility.yul\":1207:1213   */\n      dup2\n        /* \"#utility.yul\":1194:1214   */\n      calldataload\n        /* \"#utility.yul\":1185:1214   */\n      swap1\n      pop\n        /* \"#utility.yul\":1223:1256   */\n      tag_118\n        /* \"#utility.yul\":1250:1255   */\n      dup2\n        /* \"#utility.yul\":1223:1256   */\n      tag_88\n      jump\t// in\n    tag_118:\n        /* \"#utility.yul\":1123:1262   */\n      swap3\n      swap2\n      pop\n      pop\n      jump\t// out\n        /* \"#utility.yul\":1268:1597   */\n    tag_21:\n        /* \"#utility.yul\":1327:1333   */\n      0x00\n        /* \"#utility.yul\":1376:1378   */\n      0x20\n        /* \"#utility.yul\":1364:1373   */\n      dup3\n        /* \"#utility.yul\":1355:1362   */\n      dup5\n        /* \"#utility.yul\":1351:1374   */\n      sub\n        /* \"#utility.yul\":1347:1379   */\n      slt\n        /* \"#utility.yul\":1344:1463   */\n      iszero\n      tag_120\n      jumpi\n        /* \"#utility.yul\":1382:1461   */\n      tag_121\n      tag_84\n      jump\t// in\n    tag_121:\n        /* \"#utility.yul\":1344:1463   */\n    tag_120:\n        /* \"#utility.yul\":1502:1503   */\n      0x00\n        /* \"#utility.yul\":1527:1580   */\n      tag_122\n        /* \"#utility.yul\":1572:1579   */\n      dup5\n        /* \"#utility.yul\":1563:1569   */\n      dup3\n        /* \"#utility.yul\":1552:1561   */\n      dup6\n        /* \"#utility.yul\":1548:1570   */\n      add\n        /* \"#utility.yul\":1527:1580   */\n      tag_89\n      jump\t// in\n    tag_122:\n        /* \"#utility.yul\":1517:1580   */\n      swap2\n      pop\n        /* \"#utility.yul\":1473:1590   */\n      pop\n        /* \"#utility.yul\":1268:1597   */\n      swap3\n      swap2\n      pop\n      pop\n      jump\t// out\n        /* \"#utility.yul\":1603:1680   */\n    tag_90:\n        /* \"#utility.yul\":1640:1647   */\n      0x00\n        /* \"#utility.yul\":1669:1674   */\n      dup2\n        /* \"#utility.yul\":1658:1674   */\n      swap1\n      pop\n        /* \"#utility.yul\":1603:1680   */\n      swap2\n      swap1\n      pop\n      jump\t// out\n        /* \"#utility.yul\":1686:1804   */\n    tag_91:\n        /* \"#utility.yul\":1773:1797   */\n      tag_125\n        /* \"#utility.yul\":1791:1796   */\n      dup2\n        /* \"#utility.yul\":1773:1797   */\n      tag_90\n      jump\t// in\n    tag_125:\n        /* \"#utility.yul\":1768:1771   */\n      dup3\n        /* \"#utility.yul\":1761:1798   */\n      mstore\n        /* \"#utility.yul\":1686:1804   */\n      pop\n      pop\n      jump\t// out\n        /* \"#utility.yul\":1810:2032   */\n    tag_24:\n        /* \"#utility.yul\":1903:1907   */\n      0x00\n        /* \"#utility.yul\":1941:1943   */\n      0x20\n        /* \"#utility.yul\":1930:1939   */\n      dup3\n        /* \"#utility.yul\":1926:1944   */\n      add\n        /* \"#utility.yul\":1918:1944   */\n      swap1\n      pop\n        /* \"#utility.yul\":1954:2025   */\n      tag_127\n        /* \"#utility.yul\":2022:2023   */\n      0x00\n        /* \"#utility.yul\":2011:2020   */\n      dup4\n        /* \"#utility.yul\":2007:2024   */\n      add\n        /* \"#utility.yul\":1998:2004   */\n      dup5\n        /* \"#utility.yul\":1954:2025   */\n      tag_91\n      jump\t// in\n    tag_127:\n        /* \"#utility.yul\":1810:2032   */\n      swap3\n      swap2\n      pop\n      pop\n      jump\t// out\n        /* \"#utility.yul\":2038:2156   */\n    tag_92:\n        /* \"#utility.yul\":2125:2149   */\n      tag_129\n        /* \"#utility.yul\":2143:2148   */\n      dup2\n        /* \"#utility.yul\":2125:2149   */\n      tag_87\n      jump\t// in\n    tag_129:\n        /* \"#utility.yul\":2120:2123   */\n      dup3\n        /* \"#utility.yul\":2113:2150   */\n      mstore\n        /* \"#utility.yul\":2038:2156   */\n      pop\n      pop\n      jump\t// out\n        /* \"#utility.yul\":2162:2384   */\n    tag_32:\n        /* \"#utility.yul\":2255:2259   */\n      0x00\n        /* \"#utility.yul\":2293:2295   */\n      0x20\n        /* \"#utility.yul\":2282:2291   */\n      dup3\n        /* \"#utility.yul\":2278:2296   */\n      add\n        /* \"#utility.yul\":2270:2296   */\n      swap1\n      pop\n        /* \"#utility.yul\":2306:2377   */\n      tag_131\n        /* \"#utility.yul\":2374:2375   */\n      0x00\n        /* \"#utility.yul\":2363:2372   */\n      dup4\n        /* \"#utility.yul\":2359:2376   */\n      add\n        /* \"#utility.yul\":2350:2356   */\n      dup5\n        /* \"#utility.yul\":2306:2377   */\n      tag_92\n      jump\t// in\n    tag_131:\n        /* \"#utility.yul\":2162:2384   */\n      swap3\n      swap2\n      pop\n      pop\n      jump\t// out\n        /* \"#utility.yul\":2390:2537   */\n    tag_93:\n        /* \"#utility.yul\":2491:2502   */\n      0x00\n        /* \"#utility.yul\":2528:2531   */\n      dup2\n        /* \"#utility.yul\":2513:2531   */\n      swap1\n      pop\n        /* \"#utility.yul\":2390:2537   */\n      swap3\n      swap2\n      pop\n      pop\n      jump\t// out\n        /* \"#utility.yul\":2543:2657   */\n    tag_94:\n      pop\n      jump\t// out\n        /* \"#utility.yul\":2663:3061   */\n    tag_95:\n        /* \"#utility.yul\":2822:2825   */\n      0x00\n        /* \"#utility.yul\":2843:2926   */\n      tag_135\n        /* \"#utility.yul\":2924:2925   */\n      0x00\n        /* \"#utility.yul\":2919:2922   */\n      dup4\n        /* \"#utility.yul\":2843:2926   */\n      tag_93\n      jump\t// in\n    tag_135:\n        /* \"#utility.yul\":2836:2926   */\n      swap2\n      pop\n        /* \"#utility.yul\":2935:3028   */\n      tag_136\n        /* \"#utility.yul\":3024:3027   */\n      dup3\n        /* \"#utility.yul\":2935:3028   */\n      tag_94\n      jump\t// in\n    tag_136:\n        /* \"#utility.yul\":3053:3054   */\n      0x00\n        /* \"#utility.yul\":3048:3051   */\n      dup3\n        /* \"#utility.yul\":3044:3055   */\n      add\n        /* \"#utility.yul\":3037:3055   */\n      swap1\n      pop\n        /* \"#utility.yul\":2663:3061   */\n      swap2\n      swap1\n      pop\n      jump\t// out\n        /* \"#utility.yul\":3067:3446   */\n    tag_44:\n        /* \"#utility.yul\":3251:3254   */\n      0x00\n        /* \"#utility.yul\":3273:3420   */\n      tag_138\n        /* \"#utility.yul\":3416:3419   */\n      dup3\n        /* \"#utility.yul\":3273:3420   */\n      tag_95\n      jump\t// in\n    tag_138:\n        /* \"#utility.yul\":3266:3420   */\n      swap2\n      pop\n        /* \"#utility.yul\":3437:3440   */\n      dup2\n        /* \"#utility.yul\":3430:3440   */\n      swap1\n      pop\n        /* \"#utility.yul\":3067:3446   */\n      swap2\n      swap1\n      pop\n      jump\t// out\n        /* \"#utility.yul\":3452:3621   */\n    tag_96:\n        /* \"#utility.yul\":3536:3547   */\n      0x00\n        /* \"#utility.yul\":3570:3576   */\n      dup3\n        /* \"#utility.yul\":3565:3568   */\n      dup3\n        /* \"#utility.yul\":3558:3577   */\n      mstore\n        /* \"#utility.yul\":3610:3614   */\n      0x20\n        /* \"#utility.yul\":3605:3608   */\n      dup3\n        /* \"#utility.yul\":3601:3615   */\n      add\n        /* \"#utility.yul\":3586:3615   */\n      swap1\n      pop\n        /* \"#utility.yul\":3452:3621   */\n      swap3\n      swap2\n      pop\n      pop\n      jump\t// out\n        /* \"#utility.yul\":3627:3807   */\n    tag_97:\n        /* \"#utility.yul\":3767:3799   */\n      0x646f6e6174652076616c7565206d757374206772656174207468616e20300000\n        /* \"#utility.yul\":3763:3764   */\n      0x00\n        /* \"#utility.yul\":3755:3761   */\n      dup3\n        /* \"#utility.yul\":3751:3765   */\n      add\n        /* \"#utility.yul\":3744:3800   */\n      mstore\n        /* \"#utility.yul\":3627:3807   */\n      pop\n      jump\t// out\n        /* \"#utility.yul\":3813:4179   */\n    tag_98:\n        /* \"#utility.yul\":3955:3958   */\n      0x00\n        /* \"#utility.yul\":3976:4043   */\n      tag_142\n        /* \"#utility.yul\":4040:4042   */\n      0x1e\n        /* \"#utility.yul\":4035:4038   */\n      dup4\n        /* \"#utility.yul\":3976:4043   */\n      tag_96\n      jump\t// in\n    tag_142:\n        /* \"#utility.yul\":3969:4043   */\n      swap2\n      pop\n        /* \"#utility.yul\":4052:4145   */\n      tag_143\n        /* \"#utility.yul\":4141:4144   */\n      dup3\n        /* \"#utility.yul\":4052:4145   */\n      tag_97\n      jump\t// in\n    tag_143:\n        /* \"#utility.yul\":4170:4172   */\n      0x20\n        /* \"#utility.yul\":4165:4168   */\n      dup3\n        /* \"#utility.yul\":4161:4173   */\n      add\n        /* \"#utility.yul\":4154:4173   */\n      swap1\n      pop\n        /* \"#utility.yul\":3813:4179   */\n      swap2\n      swap1\n      pop\n      jump\t// out\n        /* \"#utility.yul\":4185:4604   */\n    tag_58:\n        /* \"#utility.yul\":4351:4355   */\n      0x00\n        /* \"#utility.yul\":4389:4391   */\n      0x20\n        /* \"#utility.yul\":4378:4387   */\n      dup3\n        /* \"#utility.yul\":4374:4392   */\n      add\n        /* \"#utility.yul\":4366:4392   */\n      swap1\n      pop\n        /* \"#utility.yul\":4438:4447   */\n      dup2\n        /* \"#utility.yul\":4432:4436   */\n      dup2\n        /* \"#utility.yul\":4428:4448   */\n      sub\n        /* \"#utility.yul\":4424:4425   */\n      0x00\n        /* \"#utility.yul\":4413:4422   */\n      dup4\n        /* \"#utility.yul\":4409:4426   */\n      add\n        /* \"#utility.yul\":4402:4449   */\n      mstore\n        /* \"#utility.yul\":4466:4597   */\n      tag_145\n        /* \"#utility.yul\":4592:4596   */\n      dup2\n        /* \"#utility.yul\":4466:4597   */\n      tag_98\n      jump\t// in\n    tag_145:\n        /* \"#utility.yul\":4458:4597   */\n      swap1\n      pop\n        /* \"#utility.yul\":4185:4604   */\n      swap2\n      swap1\n      pop\n      jump\t// out\n        /* \"#utility.yul\":4610:4779   */\n    tag_99:\n        /* \"#utility.yul\":4750:4771   */\n      0x74696d65206973206e6f7420616c6c6f77656400000000000000000000000000\n        /* \"#utility.yul\":4746:4747   */\n      0x00\n        /* \"#utility.yul\":4738:4744   */\n      dup3\n        /* \"#utility.yul\":4734:4748   */\n      add\n        /* \"#utility.yul\":4727:4772   */\n      mstore\n        /* \"#utility.yul\":4610:4779   */\n      pop\n      jump\t// out\n        /* \"#utility.yul\":4785:5151   */\n    tag_100:\n        /* \"#utility.yul\":4927:4930   */\n      0x00\n        /* \"#utility.yul\":4948:5015   */\n      tag_148\n        /* \"#utility.yul\":5012:5014   */\n      0x13\n        /* \"#utility.yul\":5007:5010   */\n      dup4\n        /* \"#utility.yul\":4948:5015   */\n      tag_96\n      jump\t// in\n    tag_148:\n        /* \"#utility.yul\":4941:5015   */\n      swap2\n      pop\n        /* \"#utility.yul\":5024:5117   */\n      tag_149\n        /* \"#utility.yul\":5113:5116   */\n      dup3\n        /* \"#utility.yul\":5024:5117   */\n      tag_99\n      jump\t// in\n    tag_149:\n        /* \"#utility.yul\":5142:5144   */\n      0x20\n        /* \"#utility.yul\":5137:5140   */\n      dup3\n        /* \"#utility.yul\":5133:5145   */\n      add\n        /* \"#utility.yul\":5126:5145   */\n      swap1\n      pop\n        /* \"#utility.yul\":4785:5151   */\n      swap2\n      swap1\n      pop\n      jump\t// out\n        /* \"#utility.yul\":5157:5576   */\n    tag_62:\n        /* \"#utility.yul\":5323:5327   */\n      0x00\n        /* \"#utility.yul\":5361:5363   */\n      0x20\n        /* \"#utility.yul\":5350:5359   */\n      dup3\n        /* \"#utility.yul\":5346:5364   */\n      add\n        /* \"#utility.yul\":5338:5364   */\n      swap1\n      pop\n        /* \"#utility.yul\":5410:5419   */\n      dup2\n        /* \"#utility.yul\":5404:5408   */\n      dup2\n        /* \"#utility.yul\":5400:5420   */\n      sub\n        /* \"#utility.yul\":5396:5397   */\n      0x00\n        /* \"#utility.yul\":5385:5394   */\n      dup4\n        /* \"#utility.yul\":5381:5398   */\n      add\n        /* \"#utility.yul\":5374:5421   */\n      mstore\n        /* \"#utility.yul\":5438:5569   */\n      tag_151\n        /* \"#utility.yul\":5564:5568   */\n      dup2\n        /* \"#utility.yul\":5438:5569   */\n      tag_100\n      jump\t// in\n    tag_151:\n        /* \"#utility.yul\":5430:5569   */\n      swap1\n      pop\n        /* \"#utility.yul\":5157:5576   */\n      swap2\n      swap1\n      pop\n      jump\t// out\n        /* \"#utility.yul\":5582:5762   */\n    tag_101:\n        /* \"#utility.yul\":5630:5707   */\n      0x4e487b7100000000000000000000000000000000000000000000000000000000\n        /* \"#utility.yul\":5627:5628   */\n      0x00\n        /* \"#utility.yul\":5620:5708   */\n      mstore\n        /* \"#utility.yul\":5727:5731   */\n      0x11\n        /* \"#utility.yul\":5724:5725   */\n      0x04\n        /* \"#utility.yul\":5717:5732   */\n      mstore\n        /* \"#utility.yul\":5751:5755   */\n      0x24\n        /* \"#utility.yul\":5748:5749   */\n      0x00\n        /* \"#utility.yul\":5741:5756   */\n      revert\n        /* \"#utility.yul\":5768:5959   */\n    tag_64:\n        /* \"#utility.yul\":5808:5811   */\n      0x00\n        /* \"#utility.yul\":5827:5847   */\n      tag_154\n        /* \"#utility.yul\":5845:5846   */\n      dup3\n        /* \"#utility.yul\":5827:5847   */\n      tag_90\n      jump\t// in\n    tag_154:\n        /* \"#utility.yul\":5822:5847   */\n      swap2\n      pop\n        /* \"#utility.yul\":5861:5881   */\n      tag_155\n        /* \"#utility.yul\":5879:5880   */\n      dup4\n        /* \"#utility.yul\":5861:5881   */\n      tag_90\n      jump\t// in\n    tag_155:\n        /* \"#utility.yul\":5856:5881   */\n      swap3\n      pop\n        /* \"#utility.yul\":5904:5905   */\n      dup3\n        /* \"#utility.yul\":5901:5902   */\n      dup3\n        /* \"#utility.yul\":5897:5906   */\n      add\n        /* \"#utility.yul\":5890:5906   */\n      swap1\n      pop\n        /* \"#utility.yul\":5925:5928   */\n      dup1\n        /* \"#utility.yul\":5922:5923   */\n      dup3\n        /* \"#utility.yul\":5919:5929   */\n      gt\n        /* \"#utility.yul\":5916:5952   */\n      iszero\n      tag_156\n      jumpi\n        /* \"#utility.yul\":5932:5950   */\n      tag_157\n      tag_101\n      jump\t// in\n    tag_157:\n        /* \"#utility.yul\":5916:5952   */\n    tag_156:\n        /* \"#utility.yul\":5768:5959   */\n      swap3\n      swap2\n      pop\n      pop\n      jump\t// out\n\n    auxdata: 0xa264697066735822122097b50db7705908c10bc5a8e70799cb5a54097ef99a215c847a5758c0a5ccf9d664736f6c634300081e0033\n}\n",
				"bytecode": {
					"linkReferences": {},
					"object": "60c060405234801561000f575f5ffd5b50335f73ffffffffffffffffffffffffffffffffffffffff168173ffffffffffffffffffffffffffffffffffffffff1603610081575f6040517f1e4fbdf700000000000000000000000000000000000000000000000000000000815260040161007891906101c0565b60405180910390fd5b610090816100c060201b60201c565b504260808181525050603c60016100a7919061020f565b6080516100b49190610250565b60a08181525050610283565b5f5f5f9054906101000a900473ffffffffffffffffffffffffffffffffffffffff169050815f5f6101000a81548173ffffffffffffffffffffffffffffffffffffffff021916908373ffffffffffffffffffffffffffffffffffffffff1602179055508173ffffffffffffffffffffffffffffffffffffffff168173ffffffffffffffffffffffffffffffffffffffff167f8be0079c531659141344cd1fd0a4f28419497f9722a3daafe3b4186f6b6457e060405160405180910390a35050565b5f73ffffffffffffffffffffffffffffffffffffffff82169050919050565b5f6101aa82610181565b9050919050565b6101ba816101a0565b82525050565b5f6020820190506101d35f8301846101b1565b92915050565b5f819050919050565b7f4e487b71000000000000000000000000000000000000000000000000000000005f52601160045260245ffd5b5f610219826101d9565b9150610224836101d9565b9250828202610232816101d9565b91508282048414831517610249576102486101e2565b5b5092915050565b5f61025a826101d9565b9150610265836101d9565b925082820190508082111561027d5761027c6101e2565b5b92915050565b60805160a05161083e6102a45f395f61029a01525f61026f015261083e5ff3fe608060405260043610610058575f3560e01c80633ccfd60b1461005b578063410a1d3214610085578063715018a6146100c15780638da5cb5b146100d7578063ed88c68e14610101578063f2fde38b1461010b57610059565b5b005b348015610066575f5ffd5b5061006f610133565b60405161007c919061058c565b60405180910390f35b348015610090575f5ffd5b506100ab60048036038101906100a69190610603565b6101ab565b6040516100b89190610646565b60405180910390f35b3480156100cc575f5ffd5b506100d56101f1565b005b3480156100e2575f5ffd5b506100eb610204565b6040516100f8919061066e565b60405180910390f35b61010961022b565b005b348015610116575f5ffd5b50610131600480360381019061012c9190610603565b61039f565b005b5f61013c610423565b5f3373ffffffffffffffffffffffffffffffffffffffff1647604051610161906106b4565b5f6040518083038185875af1925050503d805f811461019b576040519150601f19603f3d011682016040523d82523d5f602084013e6101a0565b606091505b505090508091505090565b5f60015f8373ffffffffffffffffffffffffffffffffffffffff1673ffffffffffffffffffffffffffffffffffffffff1681526020019081526020015f20549050919050565b6101f9610423565b6102025f6104aa565b565b5f5f5f9054906101000a900473ffffffffffffffffffffffffffffffffffffffff16905090565b5f341161026d576040517f08c379a000000000000000000000000000000000000000000000000000000000815260040161026490610722565b60405180910390fd5b7f000000000000000000000000000000000000000000000000000000000000000042101580156102bd57507f00000000000000000000000000000000000000000000000000000000000000004211155b6102fc576040517f08c379a00000000000000000000000000000000000000000000000000000000081526004016102f39061078a565b60405180910390fd5b3460015f3373ffffffffffffffffffffffffffffffffffffffff1673ffffffffffffffffffffffffffffffffffffffff1681526020019081526020015f205f82825461034891906107d5565b925050819055503373ffffffffffffffffffffffffffffffffffffffff167f5d8bc849764969eb1bcc6d0a2f55999d0167c1ccec240a4f39cf664ca9c4148e346040516103959190610646565b60405180910390a2565b6103a7610423565b5f73ffffffffffffffffffffffffffffffffffffffff168173ffffffffffffffffffffffffffffffffffffffff1603610417575f6040517f1e4fbdf700000000000000000000000000000000000000000000000000000000815260040161040e919061066e565b60405180910390fd5b610420816104aa565b50565b61042b61056b565b73ffffffffffffffffffffffffffffffffffffffff16610449610204565b73ffffffffffffffffffffffffffffffffffffffff16146104a85761046c61056b565b6040517f118cdaa700000000000000000000000000000000000000000000000000000000815260040161049f919061066e565b60405180910390fd5b565b5f5f5f9054906101000a900473ffffffffffffffffffffffffffffffffffffffff169050815f5f6101000a81548173ffffffffffffffffffffffffffffffffffffffff021916908373ffffffffffffffffffffffffffffffffffffffff1602179055508173ffffffffffffffffffffffffffffffffffffffff168173ffffffffffffffffffffffffffffffffffffffff167f8be0079c531659141344cd1fd0a4f28419497f9722a3daafe3b4186f6b6457e060405160405180910390a35050565b5f33905090565b5f8115159050919050565b61058681610572565b82525050565b5f60208201905061059f5f83018461057d565b92915050565b5f5ffd5b5f73ffffffffffffffffffffffffffffffffffffffff82169050919050565b5f6105d2826105a9565b9050919050565b6105e2816105c8565b81146105ec575f5ffd5b50565b5f813590506105fd816105d9565b92915050565b5f60208284031215610618576106176105a5565b5b5f610625848285016105ef565b91505092915050565b5f819050919050565b6106408161062e565b82525050565b5f6020820190506106595f830184610637565b92915050565b610668816105c8565b82525050565b5f6020820190506106815f83018461065f565b92915050565b5f81905092915050565b50565b5f61069f5f83610687565b91506106aa82610691565b5f82019050919050565b5f6106be82610694565b9150819050919050565b5f82825260208201905092915050565b7f646f6e6174652076616c7565206d757374206772656174207468616e203000005f82015250565b5f61070c601e836106c8565b9150610717826106d8565b602082019050919050565b5f6020820190508181035f83015261073981610700565b9050919050565b7f74696d65206973206e6f7420616c6c6f776564000000000000000000000000005f82015250565b5f6107746013836106c8565b915061077f82610740565b602082019050919050565b5f6020820190508181035f8301526107a181610768565b9050919050565b7f4e487b71000000000000000000000000000000000000000000000000000000005f52601160045260245ffd5b5f6107df8261062e565b91506107ea8361062e565b9250828201905080821115610802576108016107a8565b5b9291505056fea264697066735822122097b50db7705908c10bc5a8e70799cb5a54097ef99a215c847a5758c0a5ccf9d664736f6c634300081e0033",
					"opcodes": "PUSH1 0xC0 PUSH1 0x40 MSTORE CALLVALUE DUP1 ISZERO PUSH2 0xF JUMPI PUSH0 PUSH0 REVERT JUMPDEST POP CALLER PUSH0 PUSH20 0xFFFFFFFFFFFFFFFFFFFFFFFFFFFFFFFFFFFFFFFF AND DUP2 PUSH20 0xFFFFFFFFFFFFFFFFFFFFFFFFFFFFFFFFFFFFFFFF AND SUB PUSH2 0x81 JUMPI PUSH0 PUSH1 0x40 MLOAD PUSH32 0x1E4FBDF700000000000000000000000000000000000000000000000000000000 DUP2 MSTORE PUSH1 0x4 ADD PUSH2 0x78 SWAP2 SWAP1 PUSH2 0x1C0 JUMP JUMPDEST PUSH1 0x40 MLOAD DUP1 SWAP2 SUB SWAP1 REVERT JUMPDEST PUSH2 0x90 DUP2 PUSH2 0xC0 PUSH1 0x20 SHL PUSH1 0x20 SHR JUMP JUMPDEST POP TIMESTAMP PUSH1 0x80 DUP2 DUP2 MSTORE POP POP PUSH1 0x3C PUSH1 0x1 PUSH2 0xA7 SWAP2 SWAP1 PUSH2 0x20F JUMP JUMPDEST PUSH1 0x80 MLOAD PUSH2 0xB4 SWAP2 SWAP1 PUSH2 0x250 JUMP JUMPDEST PUSH1 0xA0 DUP2 DUP2 MSTORE POP POP PUSH2 0x283 JUMP JUMPDEST PUSH0 PUSH0 PUSH0 SWAP1 SLOAD SWAP1 PUSH2 0x100 EXP SWAP1 DIV PUSH20 0xFFFFFFFFFFFFFFFFFFFFFFFFFFFFFFFFFFFFFFFF AND SWAP1 POP DUP2 PUSH0 PUSH0 PUSH2 0x100 EXP DUP2 SLOAD DUP2 PUSH20 0xFFFFFFFFFFFFFFFFFFFFFFFFFFFFFFFFFFFFFFFF MUL NOT AND SWAP1 DUP4 PUSH20 0xFFFFFFFFFFFFFFFFFFFFFFFFFFFFFFFFFFFFFFFF AND MUL OR SWAP1 SSTORE POP DUP2 PUSH20 0xFFFFFFFFFFFFFFFFFFFFFFFFFFFFFFFFFFFFFFFF AND DUP2 PUSH20 0xFFFFFFFFFFFFFFFFFFFFFFFFFFFFFFFFFFFFFFFF AND PUSH32 0x8BE0079C531659141344CD1FD0A4F28419497F9722A3DAAFE3B4186F6B6457E0 PUSH1 0x40 MLOAD PUSH1 0x40 MLOAD DUP1 SWAP2 SUB SWAP1 LOG3 POP POP JUMP JUMPDEST PUSH0 PUSH20 0xFFFFFFFFFFFFFFFFFFFFFFFFFFFFFFFFFFFFFFFF DUP3 AND SWAP1 POP SWAP2 SWAP1 POP JUMP JUMPDEST PUSH0 PUSH2 0x1AA DUP3 PUSH2 0x181 JUMP JUMPDEST SWAP1 POP SWAP2 SWAP1 POP JUMP JUMPDEST PUSH2 0x1BA DUP2 PUSH2 0x1A0 JUMP JUMPDEST DUP3 MSTORE POP POP JUMP JUMPDEST PUSH0 PUSH1 0x20 DUP3 ADD SWAP1 POP PUSH2 0x1D3 PUSH0 DUP4 ADD DUP5 PUSH2 0x1B1 JUMP JUMPDEST SWAP3 SWAP2 POP POP JUMP JUMPDEST PUSH0 DUP2 SWAP1 POP SWAP2 SWAP1 POP JUMP JUMPDEST PUSH32 0x4E487B7100000000000000000000000000000000000000000000000000000000 PUSH0 MSTORE PUSH1 0x11 PUSH1 0x4 MSTORE PUSH1 0x24 PUSH0 REVERT JUMPDEST PUSH0 PUSH2 0x219 DUP3 PUSH2 0x1D9 JUMP JUMPDEST SWAP2 POP PUSH2 0x224 DUP4 PUSH2 0x1D9 JUMP JUMPDEST SWAP3 POP DUP3 DUP3 MUL PUSH2 0x232 DUP2 PUSH2 0x1D9 JUMP JUMPDEST SWAP2 POP DUP3 DUP3 DIV DUP5 EQ DUP4 ISZERO OR PUSH2 0x249 JUMPI PUSH2 0x248 PUSH2 0x1E2 JUMP JUMPDEST JUMPDEST POP SWAP3 SWAP2 POP POP JUMP JUMPDEST PUSH0 PUSH2 0x25A DUP3 PUSH2 0x1D9 JUMP JUMPDEST SWAP2 POP PUSH2 0x265 DUP4 PUSH2 0x1D9 JUMP JUMPDEST SWAP3 POP DUP3 DUP3 ADD SWAP1 POP DUP1 DUP3 GT ISZERO PUSH2 0x27D JUMPI PUSH2 0x27C PUSH2 0x1E2 JUMP JUMPDEST JUMPDEST SWAP3 SWAP2 POP POP JUMP JUMPDEST PUSH1 0x80 MLOAD PUSH1 0xA0 MLOAD PUSH2 0x83E PUSH2 0x2A4 PUSH0 CODECOPY PUSH0 PUSH2 0x29A ADD MSTORE PUSH0 PUSH2 0x26F ADD MSTORE PUSH2 0x83E PUSH0 RETURN INVALID PUSH1 0x80 PUSH1 0x40 MSTORE PUSH1 0x4 CALLDATASIZE LT PUSH2 0x58 JUMPI PUSH0 CALLDATALOAD PUSH1 0xE0 SHR DUP1 PUSH4 0x3CCFD60B EQ PUSH2 0x5B JUMPI DUP1 PUSH4 0x410A1D32 EQ PUSH2 0x85 JUMPI DUP1 PUSH4 0x715018A6 EQ PUSH2 0xC1 JUMPI DUP1 PUSH4 0x8DA5CB5B EQ PUSH2 0xD7 JUMPI DUP1 PUSH4 0xED88C68E EQ PUSH2 0x101 JUMPI DUP1 PUSH4 0xF2FDE38B EQ PUSH2 0x10B JUMPI PUSH2 0x59 JUMP JUMPDEST JUMPDEST STOP JUMPDEST CALLVALUE DUP1 ISZERO PUSH2 0x66 JUMPI PUSH0 PUSH0 REVERT JUMPDEST POP PUSH2 0x6F PUSH2 0x133 JUMP JUMPDEST PUSH1 0x40 MLOAD PUSH2 0x7C SWAP2 SWAP1 PUSH2 0x58C JUMP JUMPDEST PUSH1 0x40 MLOAD DUP1 SWAP2 SUB SWAP1 RETURN JUMPDEST CALLVALUE DUP1 ISZERO PUSH2 0x90 JUMPI PUSH0 PUSH0 REVERT JUMPDEST POP PUSH2 0xAB PUSH1 0x4 DUP1 CALLDATASIZE SUB DUP2 ADD SWAP1 PUSH2 0xA6 SWAP2 SWAP1 PUSH2 0x603 JUMP JUMPDEST PUSH2 0x1AB JUMP JUMPDEST PUSH1 0x40 MLOAD PUSH2 0xB8 SWAP2 SWAP1 PUSH2 0x646 JUMP JUMPDEST PUSH1 0x40 MLOAD DUP1 SWAP2 SUB SWAP1 RETURN JUMPDEST CALLVALUE DUP1 ISZERO PUSH2 0xCC JUMPI PUSH0 PUSH0 REVERT JUMPDEST POP PUSH2 0xD5 PUSH2 0x1F1 JUMP JUMPDEST STOP JUMPDEST CALLVALUE DUP1 ISZERO PUSH2 0xE2 JUMPI PUSH0 PUSH0 REVERT JUMPDEST POP PUSH2 0xEB PUSH2 0x204 JUMP JUMPDEST PUSH1 0x40 MLOAD PUSH2 0xF8 SWAP2 SWAP1 PUSH2 0x66E JUMP JUMPDEST PUSH1 0x40 MLOAD DUP1 SWAP2 SUB SWAP1 RETURN JUMPDEST PUSH2 0x109 PUSH2 0x22B JUMP JUMPDEST STOP JUMPDEST CALLVALUE DUP1 ISZERO PUSH2 0x116 JUMPI PUSH0 PUSH0 REVERT JUMPDEST POP PUSH2 0x131 PUSH1 0x4 DUP1 CALLDATASIZE SUB DUP2 ADD SWAP1 PUSH2 0x12C SWAP2 SWAP1 PUSH2 0x603 JUMP JUMPDEST PUSH2 0x39F JUMP JUMPDEST STOP JUMPDEST PUSH0 PUSH2 0x13C PUSH2 0x423 JUMP JUMPDEST PUSH0 CALLER PUSH20 0xFFFFFFFFFFFFFFFFFFFFFFFFFFFFFFFFFFFFFFFF AND SELFBALANCE PUSH1 0x40 MLOAD PUSH2 0x161 SWAP1 PUSH2 0x6B4 JUMP JUMPDEST PUSH0 PUSH1 0x40 MLOAD DUP1 DUP4 SUB DUP2 DUP6 DUP8 GAS CALL SWAP3 POP POP POP RETURNDATASIZE DUP1 PUSH0 DUP2 EQ PUSH2 0x19B JUMPI PUSH1 0x40 MLOAD SWAP2 POP PUSH1 0x1F NOT PUSH1 0x3F RETURNDATASIZE ADD AND DUP3 ADD PUSH1 0x40 MSTORE RETURNDATASIZE DUP3 MSTORE RETURNDATASIZE PUSH0 PUSH1 0x20 DUP5 ADD RETURNDATACOPY PUSH2 0x1A0 JUMP JUMPDEST PUSH1 0x60 SWAP2 POP JUMPDEST POP POP SWAP1 POP DUP1 SWAP2 POP POP SWAP1 JUMP JUMPDEST PUSH0 PUSH1 0x1 PUSH0 DUP4 PUSH20 0xFFFFFFFFFFFFFFFFFFFFFFFFFFFFFFFFFFFFFFFF AND PUSH20 0xFFFFFFFFFFFFFFFFFFFFFFFFFFFFFFFFFFFFFFFF AND DUP2 MSTORE PUSH1 0x20 ADD SWAP1 DUP2 MSTORE PUSH1 0x20 ADD PUSH0 KECCAK256 SLOAD SWAP1 POP SWAP2 SWAP1 POP JUMP JUMPDEST PUSH2 0x1F9 PUSH2 0x423 JUMP JUMPDEST PUSH2 0x202 PUSH0 PUSH2 0x4AA JUMP JUMPDEST JUMP JUMPDEST PUSH0 PUSH0 PUSH0 SWAP1 SLOAD SWAP1 PUSH2 0x100 EXP SWAP1 DIV PUSH20 0xFFFFFFFFFFFFFFFFFFFFFFFFFFFFFFFFFFFFFFFF AND SWAP1 POP SWAP1 JUMP JUMPDEST PUSH0 CALLVALUE GT PUSH2 0x26D JUMPI PUSH1 0x40 MLOAD PUSH32 0x8C379A000000000000000000000000000000000000000000000000000000000 DUP2 MSTORE PUSH1 0x4 ADD PUSH2 0x264 SWAP1 PUSH2 0x722 JUMP JUMPDEST PUSH1 0x40 MLOAD DUP1 SWAP2 SUB SWAP1 REVERT JUMPDEST PUSH32 0x0 TIMESTAMP LT ISZERO DUP1 ISZERO PUSH2 0x2BD JUMPI POP PUSH32 0x0 TIMESTAMP GT ISZERO JUMPDEST PUSH2 0x2FC JUMPI PUSH1 0x40 MLOAD PUSH32 0x8C379A000000000000000000000000000000000000000000000000000000000 DUP2 MSTORE PUSH1 0x4 ADD PUSH2 0x2F3 SWAP1 PUSH2 0x78A JUMP JUMPDEST PUSH1 0x40 MLOAD DUP1 SWAP2 SUB SWAP1 REVERT JUMPDEST CALLVALUE PUSH1 0x1 PUSH0 CALLER PUSH20 0xFFFFFFFFFFFFFFFFFFFFFFFFFFFFFFFFFFFFFFFF AND PUSH20 0xFFFFFFFFFFFFFFFFFFFFFFFFFFFFFFFFFFFFFFFF AND DUP2 MSTORE PUSH1 0x20 ADD SWAP1 DUP2 MSTORE PUSH1 0x20 ADD PUSH0 KECCAK256 PUSH0 DUP3 DUP3 SLOAD PUSH2 0x348 SWAP2 SWAP1 PUSH2 0x7D5 JUMP JUMPDEST SWAP3 POP POP DUP2 SWAP1 SSTORE POP CALLER PUSH20 0xFFFFFFFFFFFFFFFFFFFFFFFFFFFFFFFFFFFFFFFF AND PUSH32 0x5D8BC849764969EB1BCC6D0A2F55999D0167C1CCEC240A4F39CF664CA9C4148E CALLVALUE PUSH1 0x40 MLOAD PUSH2 0x395 SWAP2 SWAP1 PUSH2 0x646 JUMP JUMPDEST PUSH1 0x40 MLOAD DUP1 SWAP2 SUB SWAP1 LOG2 JUMP JUMPDEST PUSH2 0x3A7 PUSH2 0x423 JUMP JUMPDEST PUSH0 PUSH20 0xFFFFFFFFFFFFFFFFFFFFFFFFFFFFFFFFFFFFFFFF AND DUP2 PUSH20 0xFFFFFFFFFFFFFFFFFFFFFFFFFFFFFFFFFFFFFFFF AND SUB PUSH2 0x417 JUMPI PUSH0 PUSH1 0x40 MLOAD PUSH32 0x1E4FBDF700000000000000000000000000000000000000000000000000000000 DUP2 MSTORE PUSH1 0x4 ADD PUSH2 0x40E SWAP2 SWAP1 PUSH2 0x66E JUMP JUMPDEST PUSH1 0x40 MLOAD DUP1 SWAP2 SUB SWAP1 REVERT JUMPDEST PUSH2 0x420 DUP2 PUSH2 0x4AA JUMP JUMPDEST POP JUMP JUMPDEST PUSH2 0x42B PUSH2 0x56B JUMP JUMPDEST PUSH20 0xFFFFFFFFFFFFFFFFFFFFFFFFFFFFFFFFFFFFFFFF AND PUSH2 0x449 PUSH2 0x204 JUMP JUMPDEST PUSH20 0xFFFFFFFFFFFFFFFFFFFFFFFFFFFFFFFFFFFFFFFF AND EQ PUSH2 0x4A8 JUMPI PUSH2 0x46C PUSH2 0x56B JUMP JUMPDEST PUSH1 0x40 MLOAD PUSH32 0x118CDAA700000000000000000000000000000000000000000000000000000000 DUP2 MSTORE PUSH1 0x4 ADD PUSH2 0x49F SWAP2 SWAP1 PUSH2 0x66E JUMP JUMPDEST PUSH1 0x40 MLOAD DUP1 SWAP2 SUB SWAP1 REVERT JUMPDEST JUMP JUMPDEST PUSH0 PUSH0 PUSH0 SWAP1 SLOAD SWAP1 PUSH2 0x100 EXP SWAP1 DIV PUSH20 0xFFFFFFFFFFFFFFFFFFFFFFFFFFFFFFFFFFFFFFFF AND SWAP1 POP DUP2 PUSH0 PUSH0 PUSH2 0x100 EXP DUP2 SLOAD DUP2 PUSH20 0xFFFFFFFFFFFFFFFFFFFFFFFFFFFFFFFFFFFFFFFF MUL NOT AND SWAP1 DUP4 PUSH20 0xFFFFFFFFFFFFFFFFFFFFFFFFFFFFFFFFFFFFFFFF AND MUL OR SWAP1 SSTORE POP DUP2 PUSH20 0xFFFFFFFFFFFFFFFFFFFFFFFFFFFFFFFFFFFFFFFF AND DUP2 PUSH20 0xFFFFFFFFFFFFFFFFFFFFFFFFFFFFFFFFFFFFFFFF AND PUSH32 0x8BE0079C531659141344CD1FD0A4F28419497F9722A3DAAFE3B4186F6B6457E0 PUSH1 0x40 MLOAD PUSH1 0x40 MLOAD DUP1 SWAP2 SUB SWAP1 LOG3 POP POP JUMP JUMPDEST PUSH0 CALLER SWAP1 POP SWAP1 JUMP JUMPDEST PUSH0 DUP2 ISZERO ISZERO SWAP1 POP SWAP2 SWAP1 POP JUMP JUMPDEST PUSH2 0x586 DUP2 PUSH2 0x572 JUMP JUMPDEST DUP3 MSTORE POP POP JUMP JUMPDEST PUSH0 PUSH1 0x20 DUP3 ADD SWAP1 POP PUSH2 0x59F PUSH0 DUP4 ADD DUP5 PUSH2 0x57D JUMP JUMPDEST SWAP3 SWAP2 POP POP JUMP JUMPDEST PUSH0 PUSH0 REVERT JUMPDEST PUSH0 PUSH20 0xFFFFFFFFFFFFFFFFFFFFFFFFFFFFFFFFFFFFFFFF DUP3 AND SWAP1 POP SWAP2 SWAP1 POP JUMP JUMPDEST PUSH0 PUSH2 0x5D2 DUP3 PUSH2 0x5A9 JUMP JUMPDEST SWAP1 POP SWAP2 SWAP1 POP JUMP JUMPDEST PUSH2 0x5E2 DUP2 PUSH2 0x5C8 JUMP JUMPDEST DUP2 EQ PUSH2 0x5EC JUMPI PUSH0 PUSH0 REVERT JUMPDEST POP JUMP JUMPDEST PUSH0 DUP2 CALLDATALOAD SWAP1 POP PUSH2 0x5FD DUP2 PUSH2 0x5D9 JUMP JUMPDEST SWAP3 SWAP2 POP POP JUMP JUMPDEST PUSH0 PUSH1 0x20 DUP3 DUP5 SUB SLT ISZERO PUSH2 0x618 JUMPI PUSH2 0x617 PUSH2 0x5A5 JUMP JUMPDEST JUMPDEST PUSH0 PUSH2 0x625 DUP5 DUP3 DUP6 ADD PUSH2 0x5EF JUMP JUMPDEST SWAP2 POP POP SWAP3 SWAP2 POP POP JUMP JUMPDEST PUSH0 DUP2 SWAP1 POP SWAP2 SWAP1 POP JUMP JUMPDEST PUSH2 0x640 DUP2 PUSH2 0x62E JUMP JUMPDEST DUP3 MSTORE POP POP JUMP JUMPDEST PUSH0 PUSH1 0x20 DUP3 ADD SWAP1 POP PUSH2 0x659 PUSH0 DUP4 ADD DUP5 PUSH2 0x637 JUMP JUMPDEST SWAP3 SWAP2 POP POP JUMP JUMPDEST PUSH2 0x668 DUP2 PUSH2 0x5C8 JUMP JUMPDEST DUP3 MSTORE POP POP JUMP JUMPDEST PUSH0 PUSH1 0x20 DUP3 ADD SWAP1 POP PUSH2 0x681 PUSH0 DUP4 ADD DUP5 PUSH2 0x65F JUMP JUMPDEST SWAP3 SWAP2 POP POP JUMP JUMPDEST PUSH0 DUP2 SWAP1 POP SWAP3 SWAP2 POP POP JUMP JUMPDEST POP JUMP JUMPDEST PUSH0 PUSH2 0x69F PUSH0 DUP4 PUSH2 0x687 JUMP JUMPDEST SWAP2 POP PUSH2 0x6AA DUP3 PUSH2 0x691 JUMP JUMPDEST PUSH0 DUP3 ADD SWAP1 POP SWAP2 SWAP1 POP JUMP JUMPDEST PUSH0 PUSH2 0x6BE DUP3 PUSH2 0x694 JUMP JUMPDEST SWAP2 POP DUP2 SWAP1 POP SWAP2 SWAP1 POP JUMP JUMPDEST PUSH0 DUP3 DUP3 MSTORE PUSH1 0x20 DUP3 ADD SWAP1 POP SWAP3 SWAP2 POP POP JUMP JUMPDEST PUSH32 0x646F6E6174652076616C7565206D757374206772656174207468616E20300000 PUSH0 DUP3 ADD MSTORE POP JUMP JUMPDEST PUSH0 PUSH2 0x70C PUSH1 0x1E DUP4 PUSH2 0x6C8 JUMP JUMPDEST SWAP2 POP PUSH2 0x717 DUP3 PUSH2 0x6D8 JUMP JUMPDEST PUSH1 0x20 DUP3 ADD SWAP1 POP SWAP2 SWAP1 POP JUMP JUMPDEST PUSH0 PUSH1 0x20 DUP3 ADD SWAP1 POP DUP2 DUP2 SUB PUSH0 DUP4 ADD MSTORE PUSH2 0x739 DUP2 PUSH2 0x700 JUMP JUMPDEST SWAP1 POP SWAP2 SWAP1 POP JUMP JUMPDEST PUSH32 0x74696D65206973206E6F7420616C6C6F77656400000000000000000000000000 PUSH0 DUP3 ADD MSTORE POP JUMP JUMPDEST PUSH0 PUSH2 0x774 PUSH1 0x13 DUP4 PUSH2 0x6C8 JUMP JUMPDEST SWAP2 POP PUSH2 0x77F DUP3 PUSH2 0x740 JUMP JUMPDEST PUSH1 0x20 DUP3 ADD SWAP1 POP SWAP2 SWAP1 POP JUMP JUMPDEST PUSH0 PUSH1 0x20 DUP3 ADD SWAP1 POP DUP2 DUP2 SUB PUSH0 DUP4 ADD MSTORE PUSH2 0x7A1 DUP2 PUSH2 0x768 JUMP JUMPDEST SWAP1 POP SWAP2 SWAP1 POP JUMP JUMPDEST PUSH32 0x4E487B7100000000000000000000000000000000000000000000000000000000 PUSH0 MSTORE PUSH1 0x11 PUSH1 0x4 MSTORE PUSH1 0x24 PUSH0 REVERT JUMPDEST PUSH0 PUSH2 0x7DF DUP3 PUSH2 0x62E JUMP JUMPDEST SWAP2 POP PUSH2 0x7EA DUP4 PUSH2 0x62E JUMP JUMPDEST SWAP3 POP DUP3 DUP3 ADD SWAP1 POP DUP1 DUP3 GT ISZERO PUSH2 0x802 JUMPI PUSH2 0x801 PUSH2 0x7A8 JUMP JUMPDEST JUMPDEST SWAP3 SWAP2 POP POP JUMP INVALID LOG2 PUSH5 0x6970667358 0x22 SLT KECCAK256 SWAP8 0xB5 0xD 0xB7 PUSH17 0x5908C10BC5A8E70799CB5A54097EF99A21 TLOAD DUP5 PUSH27 0x5758C0A5CCF9D664736F6C634300081E0033000000000000000000 "
				},
				"gasEstimates": {
					"creation": {
						"codeDepositCost": "422000",
						"executionCost": "infinite",
						"totalCost": "infinite"
					},
					"external": {
						"": "194",
						"donate()": "infinite",
						"getDonation(address)": "2829",
						"owner()": "2558",
						"renounceOwnership()": "infinite",
						"transferOwnership(address)": "infinite",
						"withdraw()": "infinite"
					}
				},
				"methodIdentifiers": {
					"donate()": "ed88c68e",
					"getDonation(address)": "410a1d32",
					"owner()": "8da5cb5b",
					"renounceOwnership()": "715018a6",
					"transferOwnership(address)": "f2fde38b",
					"withdraw()": "3ccfd60b"
				}
			},
			"storageLayout": {
				"storage": [
					{
						"astId": 8,
						"contract": "BeggingContract.sol:BeggingContract",
						"label": "_owner",
						"offset": 0,
						"slot": "0",
						"type": "t_address"
					},
					{
						"astId": 186,
						"contract": "BeggingContract.sol:BeggingContract",
						"label": "_donate",
						"offset": 0,
						"slot": "1",
						"type": "t_mapping(t_address,t_uint256)"
					}
				],
				"types": {
					"t_address": {
						"encoding": "inplace",
						"label": "address",
						"numberOfBytes": "20"
					},
					"t_mapping(t_address,t_uint256)": {
						"encoding": "mapping",
						"key": "t_address",
						"label": "mapping(address => uint256)",
						"numberOfBytes": "32",
						"value": "t_uint256"
					},
					"t_uint256": {
						"encoding": "inplace",
						"label": "uint256",
						"numberOfBytes": "32"
					}
				}
			},
			"userdoc": {
				"kind": "user",
				"methods": {},
				"version": 1
			}
		}
	}
}