{
	"data": {
		"bytecode": {
			"linkReferences": {},
			"object": "6080604052348015600e575f5ffd5b5061058a8061001c5f395ff3fe608060405234801561000f575f5ffd5b5060043610610029575f3560e01c8063d4781d111461002d575b5f5ffd5b61004760048036038101906100429190610334565b61005d565b604051610054919061039d565b60405180910390f35b5f5f8351116100a1576040517f08c379a000000000000000000000000000000000000000000000000000000000815260040161009890610410565b60405180910390fd5b5f5f90505f600185516100b49190610464565b90505b808211610174575f600282846100cd9190610497565b6100d791906104f7565b9050848682815181106100ed576100ec610527565b5b6020026020010151036101055780935050505061019a565b8486828151811061011957610118610527565b5b6020026020010151121561013b576001816101349190610497565b925061016e565b8486828151811061014f5761014e610527565b5b6020026020010151131561016d5760018161016a9190610464565b91505b5b506100b7565b7fffffffffffffffffffffffffffffffffffffffffffffffffffffffffffffffff925050505b92915050565b5f604051905090565b5f5ffd5b5f5ffd5b5f5ffd5b5f601f19601f8301169050919050565b7f4e487b71000000000000000000000000000000000000000000000000000000005f52604160045260245ffd5b6101fb826101b5565b810181811067ffffffffffffffff8211171561021a576102196101c5565b5b80604052505050565b5f61022c6101a0565b905061023882826101f2565b919050565b5f67ffffffffffffffff821115610257576102566101c5565b5b602082029050602081019050919050565b5f5ffd5b5f819050919050565b61027e8161026c565b8114610288575f5ffd5b50565b5f8135905061029981610275565b92915050565b5f6102b16102ac8461023d565b610223565b905080838252602082019050602084028301858111156102d4576102d3610268565b5b835b818110156102fd57806102e9888261028b565b8452602084019350506020810190506102d6565b5050509392505050565b5f82601f83011261031b5761031a6101b1565b5b813561032b84826020860161029f565b91505092915050565b5f5f6040838503121561034a576103496101a9565b5b5f83013567ffffffffffffffff811115610367576103666101ad565b5b61037385828601610307565b92505060206103848582860161028b565b9150509250929050565b6103978161026c565b82525050565b5f6020820190506103b05f83018461038e565b92915050565b5f82825260208201905092915050565b7f617272206c656e677468206774203020000000000000000000000000000000005f82015250565b5f6103fa6010836103b6565b9150610405826103c6565b602082019050919050565b5f6020820190508181035f830152610427816103ee565b9050919050565b5f819050919050565b7f4e487b71000000000000000000000000000000000000000000000000000000005f52601160045260245ffd5b5f61046e8261042e565b91506104798361042e565b925082820390508181111561049157610490610437565b5b92915050565b5f6104a18261042e565b91506104ac8361042e565b92508282019050808211156104c4576104c3610437565b5b92915050565b7f4e487b71000000000000000000000000000000000000000000000000000000005f52601260045260245ffd5b5f6105018261042e565b915061050c8361042e565b92508261051c5761051b6104ca565b5b828204905092915050565b7f4e487b71000000000000000000000000000000000000000000000000000000005f52603260045260245ffdfea26469706673582212206c39a6bb310cdd1f2f324cf803ad00ee828f9e74b0d6ebc671ba291ea294339564736f6c634300081e0033",
			"opcodes": "PUSH1 0x80 PUSH1 0x40 MSTORE CALLVALUE DUP1 ISZERO PUSH1 0xE JUMPI PUSH0 PUSH0 REVERT JUMPDEST POP PUSH2 0x58A DUP1 PUSH2 0x1C PUSH0 CODECOPY PUSH0 RETURN INVALID PUSH1 0x80 PUSH1 0x40 MSTORE CALLVALUE DUP1 ISZERO PUSH2 0xF JUMPI PUSH0 PUSH0 REVERT JUMPDEST POP PUSH1 0x4 CALLDATASIZE LT PUSH2 0x29 JUMPI PUSH0 CALLDATALOAD PUSH1 0xE0 SHR DUP1 PUSH4 0xD4781D11 EQ PUSH2 0x2D JUMPI JUMPDEST PUSH0 PUSH0 REVERT JUMPDEST PUSH2 0x47 PUSH1 0x4 DUP1 CALLDATASIZE SUB DUP2 ADD SWAP1 PUSH2 0x42 SWAP2 SWAP1 PUSH2 0x334 JUMP JUMPDEST PUSH2 0x5D JUMP JUMPDEST PUSH1 0x40 MLOAD PUSH2 0x54 SWAP2 SWAP1 PUSH2 0x39D JUMP JUMPDEST PUSH1 0x40 MLOAD DUP1 SWAP2 SUB SWAP1 RETURN JUMPDEST PUSH0 PUSH0 DUP4 MLOAD GT PUSH2 0xA1 JUMPI PUSH1 0x40 MLOAD PUSH32 0x8C379A000000000000000000000000000000000000000000000000000000000 DUP2 MSTORE PUSH1 0x4 ADD PUSH2 0x98 SWAP1 PUSH2 0x410 JUMP JUMPDEST PUSH1 0x40 MLOAD DUP1 SWAP2 SUB SWAP1 REVERT JUMPDEST PUSH0 PUSH0 SWAP1 POP PUSH0 PUSH1 0x1 DUP6 MLOAD PUSH2 0xB4 SWAP2 SWAP1 PUSH2 0x464 JUMP JUMPDEST SWAP1 POP JUMPDEST DUP1 DUP3 GT PUSH2 0x174 JUMPI PUSH0 PUSH1 0x2 DUP3 DUP5 PUSH2 0xCD SWAP2 SWAP1 PUSH2 0x497 JUMP JUMPDEST PUSH2 0xD7 SWAP2 SWAP1 PUSH2 0x4F7 JUMP JUMPDEST SWAP1 POP DUP5 DUP7 DUP3 DUP2 MLOAD DUP2 LT PUSH2 0xED JUMPI PUSH2 0xEC PUSH2 0x527 JUMP JUMPDEST JUMPDEST PUSH1 0x20 MUL PUSH1 0x20 ADD ADD MLOAD SUB PUSH2 0x105 JUMPI DUP1 SWAP4 POP POP POP POP PUSH2 0x19A JUMP JUMPDEST DUP5 DUP7 DUP3 DUP2 MLOAD DUP2 LT PUSH2 0x119 JUMPI PUSH2 0x118 PUSH2 0x527 JUMP JUMPDEST JUMPDEST PUSH1 0x20 MUL PUSH1 0x20 ADD ADD MLOAD SLT ISZERO PUSH2 0x13B JUMPI PUSH1 0x1 DUP2 PUSH2 0x134 SWAP2 SWAP1 PUSH2 0x497 JUMP JUMPDEST SWAP3 POP PUSH2 0x16E JUMP JUMPDEST DUP5 DUP7 DUP3 DUP2 MLOAD DUP2 LT PUSH2 0x14F JUMPI PUSH2 0x14E PUSH2 0x527 JUMP JUMPDEST JUMPDEST PUSH1 0x20 MUL PUSH1 0x20 ADD ADD MLOAD SGT ISZERO PUSH2 0x16D JUMPI PUSH1 0x1 DUP2 PUSH2 0x16A SWAP2 SWAP1 PUSH2 0x464 JUMP JUMPDEST SWAP2 POP JUMPDEST JUMPDEST POP PUSH2 0xB7 JUMP JUMPDEST PUSH32 0xFFFFFFFFFFFFFFFFFFFFFFFFFFFFFFFFFFFFFFFFFFFFFFFFFFFFFFFFFFFFFFFF SWAP3 POP POP POP JUMPDEST SWAP3 SWAP2 POP POP JUMP JUMPDEST PUSH0 PUSH1 0x40 MLOAD SWAP1 POP SWAP1 JUMP JUMPDEST PUSH0 PUSH0 REVERT JUMPDEST PUSH0 PUSH0 REVERT JUMPDEST PUSH0 PUSH0 REVERT JUMPDEST PUSH0 PUSH1 0x1F NOT PUSH1 0x1F DUP4 ADD AND SWAP1 POP SWAP2 SWAP1 POP JUMP JUMPDEST PUSH32 0x4E487B7100000000000000000000000000000000000000000000000000000000 PUSH0 MSTORE PUSH1 0x41 PUSH1 0x4 MSTORE PUSH1 0x24 PUSH0 REVERT JUMPDEST PUSH2 0x1FB DUP3 PUSH2 0x1B5 JUMP JUMPDEST DUP2 ADD DUP2 DUP2 LT PUSH8 0xFFFFFFFFFFFFFFFF DUP3 GT OR ISZERO PUSH2 0x21A JUMPI PUSH2 0x219 PUSH2 0x1C5 JUMP JUMPDEST JUMPDEST DUP1 PUSH1 0x40 MSTORE POP POP POP JUMP JUMPDEST PUSH0 PUSH2 0x22C PUSH2 0x1A0 JUMP JUMPDEST SWAP1 POP PUSH2 0x238 DUP3 DUP3 PUSH2 0x1F2 JUMP JUMPDEST SWAP2 SWAP1 POP JUMP JUMPDEST PUSH0 PUSH8 0xFFFFFFFFFFFFFFFF DUP3 GT ISZERO PUSH2 0x257 JUMPI PUSH2 0x256 PUSH2 0x1C5 JUMP JUMPDEST JUMPDEST PUSH1 0x20 DUP3 MUL SWAP1 POP PUSH1 0x20 DUP2 ADD SWAP1 POP SWAP2 SWAP1 POP JUMP JUMPDEST PUSH0 PUSH0 REVERT JUMPDEST PUSH0 DUP2 SWAP1 POP SWAP2 SWAP1 POP JUMP JUMPDEST PUSH2 0x27E DUP2 PUSH2 0x26C JUMP JUMPDEST DUP2 EQ PUSH2 0x288 JUMPI PUSH0 PUSH0 REVERT JUMPDEST POP JUMP JUMPDEST PUSH0 DUP2 CALLDATALOAD SWAP1 POP PUSH2 0x299 DUP2 PUSH2 0x275 JUMP JUMPDEST SWAP3 SWAP2 POP POP JUMP JUMPDEST PUSH0 PUSH2 0x2B1 PUSH2 0x2AC DUP5 PUSH2 0x23D JUMP JUMPDEST PUSH2 0x223 JUMP JUMPDEST SWAP1 POP DUP1 DUP4 DUP3 MSTORE PUSH1 0x20 DUP3 ADD SWAP1 POP PUSH1 0x20 DUP5 MUL DUP4 ADD DUP6 DUP2 GT ISZERO PUSH2 0x2D4 JUMPI PUSH2 0x2D3 PUSH2 0x268 JUMP JUMPDEST JUMPDEST DUP4 JUMPDEST DUP2 DUP2 LT ISZERO PUSH2 0x2FD JUMPI DUP1 PUSH2 0x2E9 DUP9 DUP3 PUSH2 0x28B JUMP JUMPDEST DUP5 MSTORE PUSH1 0x20 DUP5 ADD SWAP4 POP POP PUSH1 0x20 DUP2 ADD SWAP1 POP PUSH2 0x2D6 JUMP JUMPDEST POP POP POP SWAP4 SWAP3 POP POP POP JUMP JUMPDEST PUSH0 DUP3 PUSH1 0x1F DUP4 ADD SLT PUSH2 0x31B JUMPI PUSH2 0x31A PUSH2 0x1B1 JUMP JUMPDEST JUMPDEST DUP2 CALLDATALOAD PUSH2 0x32B DUP5 DUP3 PUSH1 0x20 DUP7 ADD PUSH2 0x29F JUMP JUMPDEST SWAP2 POP POP SWAP3 SWAP2 POP POP JUMP JUMPDEST PUSH0 PUSH0 PUSH1 0x40 DUP4 DUP6 SUB SLT ISZERO PUSH2 0x34A JUMPI PUSH2 0x349 PUSH2 0x1A9 JUMP JUMPDEST JUMPDEST PUSH0 DUP4 ADD CALLDATALOAD PUSH8 0xFFFFFFFFFFFFFFFF DUP2 GT ISZERO PUSH2 0x367 JUMPI PUSH2 0x366 PUSH2 0x1AD JUMP JUMPDEST JUMPDEST PUSH2 0x373 DUP6 DUP3 DUP7 ADD PUSH2 0x307 JUMP JUMPDEST SWAP3 POP POP PUSH1 0x20 PUSH2 0x384 DUP6 DUP3 DUP7 ADD PUSH2 0x28B JUMP JUMPDEST SWAP2 POP POP SWAP3 POP SWAP3 SWAP1 POP JUMP JUMPDEST PUSH2 0x397 DUP2 PUSH2 0x26C JUMP JUMPDEST DUP3 MSTORE POP POP JUMP JUMPDEST PUSH0 PUSH1 0x20 DUP3 ADD SWAP1 POP PUSH2 0x3B0 PUSH0 DUP4 ADD DUP5 PUSH2 0x38E JUMP JUMPDEST SWAP3 SWAP2 POP POP JUMP JUMPDEST PUSH0 DUP3 DUP3 MSTORE PUSH1 0x20 DUP3 ADD SWAP1 POP SWAP3 SWAP2 POP POP JUMP JUMPDEST PUSH32 0x617272206C656E67746820677420302000000000000000000000000000000000 PUSH0 DUP3 ADD MSTORE POP JUMP JUMPDEST PUSH0 PUSH2 0x3FA PUSH1 0x10 DUP4 PUSH2 0x3B6 JUMP JUMPDEST SWAP2 POP PUSH2 0x405 DUP3 PUSH2 0x3C6 JUMP JUMPDEST PUSH1 0x20 DUP3 ADD SWAP1 POP SWAP2 SWAP1 POP JUMP JUMPDEST PUSH0 PUSH1 0x20 DUP3 ADD SWAP1 POP DUP2 DUP2 SUB PUSH0 DUP4 ADD MSTORE PUSH2 0x427 DUP2 PUSH2 0x3EE JUMP JUMPDEST SWAP1 POP SWAP2 SWAP1 POP JUMP JUMPDEST PUSH0 DUP2 SWAP1 POP SWAP2 SWAP1 POP JUMP JUMPDEST PUSH32 0x4E487B7100000000000000000000000000000000000000000000000000000000 PUSH0 MSTORE PUSH1 0x11 PUSH1 0x4 MSTORE PUSH1 0x24 PUSH0 REVERT JUMPDEST PUSH0 PUSH2 0x46E DUP3 PUSH2 0x42E JUMP JUMPDEST SWAP2 POP PUSH2 0x479 DUP4 PUSH2 0x42E JUMP JUMPDEST SWAP3 POP DUP3 DUP3 SUB SWAP1 POP DUP2 DUP2 GT ISZERO PUSH2 0x491 JUMPI PUSH2 0x490 PUSH2 0x437 JUMP JUMPDEST JUMPDEST SWAP3 SWAP2 POP POP JUMP JUMPDEST PUSH0 PUSH2 0x4A1 DUP3 PUSH2 0x42E JUMP JUMPDEST SWAP2 POP PUSH2 0x4AC DUP4 PUSH2 0x42E JUMP JUMPDEST SWAP3 POP DUP3 DUP3 ADD SWAP1 POP DUP1 DUP3 GT ISZERO PUSH2 0x4C4 JUMPI PUSH2 0x4C3 PUSH2 0x437 JUMP JUMPDEST JUMPDEST SWAP3 SWAP2 POP POP JUMP JUMPDEST PUSH32 0x4E487B7100000000000000000000000000000000000000000000000000000000 PUSH0 MSTORE PUSH1 0x12 PUSH1 0x4 MSTORE PUSH1 0x24 PUSH0 REVERT JUMPDEST PUSH0 PUSH2 0x501 DUP3 PUSH2 0x42E JUMP JUMPDEST SWAP2 POP PUSH2 0x50C DUP4 PUSH2 0x42E JUMP JUMPDEST SWAP3 POP DUP3 PUSH2 0x51C JUMPI PUSH2 0x51B PUSH2 0x4CA JUMP JUMPDEST JUMPDEST DUP3 DUP3 DIV SWAP1 POP SWAP3 SWAP2 POP POP JUMP JUMPDEST PUSH32 0x4E487B7100000000000000000000000000000000000000000000000000000000 PUSH0 MSTORE PUSH1 0x32 PUSH1 0x4 MSTORE PUSH1 0x24 PUSH0 REVERT INVALID LOG2 PUSH5 0x6970667358 0x22 SLT KECCAK256 PUSH13 0x39A6BB310CDD1F2F324CF803AD STOP RETURNCONTRACT 0x82 DUP16 SWAP15 PUSH21 0xB0D6EBC671BA291EA294339564736F6C634300081E STOP CALLER "
		},
		"gasEstimates": {
			"creation": {
				"codeDepositCost": "283600",
				"executionCost": "322",
				"totalCost": "283922"
			},
			"external": {
				"binSearch(int256[],int256)": "infinite"
			}
		},
		"methodIdentifiers": {
			"binSearch(int256[],int256)": "d4781d11"
		}
	},
	"abi": [
		{
			"inputs": [
				{
					"internalType": "int256[]",
					"name": "a1",
					"type": "int256[]"
				},
				{
					"internalType": "int256",
					"name": "target",
					"type": "int256"
				}
			],
			"name": "binSearch",
			"outputs": [
				{
					"internalType": "int256",
					"name": "index",
					"type": "int256"
				}
			],
			"stateMutability": "pure",
			"type": "function"
		}
	]
}