{
	"data": {
		"bytecode": {
			"linkReferences": {},
			"object": "6080604052348015600e575f5ffd5b50610c6e8061001c5f395ff3fe608060405234801561000f575f5ffd5b5060043610610029575f3560e01c80638e13aff11461002d575b5f5ffd5b610047600480360381019061004291906107d2565b61005d565b60405161005491906108ff565b60405180910390f35b60605f8351116100a2576040517f08c379a000000000000000000000000000000000000000000000000000000000815260040161009990610979565b60405180910390fd5b5f8251116100e5576040517f08c379a00000000000000000000000000000000000000000000000000000000081526004016100dc906109e1565b60405180910390fd5b5f825184516100f49190610a35565b90505f8167ffffffffffffffff81111561011157610110610663565b5b60405190808252806020026020018201604052801561013f5781602001602082028036833780820191505090505b5090505f5f90505f5f90505f5f90505b875182108061015e5750865181105b1561032e5761019d61016f8361033c565b6101788361033c565b604051602001610189929190610ae0565b604051602081830303815290604052610406565b875182106101f2578681815181106101b8576101b7610b12565b5b60200260200101518484815181106101d3576101d2610b12565b5b60200260200101818152505080806101ea90610b3f565b91505061031b565b865181106102475787828151811061020d5761020c610b12565b5b602002602001015184848151811061022857610227610b12565b5b602002602001018181525050818061023f90610b3f565b92505061031a565b86818151811061025a57610259610b12565b5b602002602001015188838151811061027557610274610b12565b5b602002602001015112156102d05787828151811061029657610295610b12565b5b60200260200101518484815181106102b1576102b0610b12565b5b60200260200101818152505081806102c890610b3f565b925050610319565b8681815181106102e3576102e2610b12565b5b60200260200101518484815181106102fe576102fd610b12565b5b602002602001018181525050808061031590610b3f565b9150505b5b5b828061032690610b3f565b93505061014f565b839550505050505092915050565b60605f600161034a8461049f565b0190505f8167ffffffffffffffff81111561036857610367610663565b5b6040519080825280601f01601f19166020018201604052801561039a5781602001600182028036833780820191505090505b5090505f82602083010190505b6001156103fb578080600190039150507f3031323334353637383961626364656600000000000000000000000000000000600a86061a8153600a85816103f0576103ef610b86565b5b0494505f85036103a7575b819350505050919050565b61049c8160405160240161041a9190610beb565b6040516020818303038152906040527f41304fac000000000000000000000000000000000000000000000000000000007bffffffffffffffffffffffffffffffffffffffffffffffffffffffff19166020820180517bffffffffffffffffffffffffffffffffffffffffffffffffffffffff83818316178352505050506105f0565b50565b5f5f5f90507a184f03e93ff9f4daa797ed6e38ed64bf6a1f01000000000000000083106104fb577a184f03e93ff9f4daa797ed6e38ed64bf6a1f01000000000000000083816104f1576104f0610b86565b5b0492506040810190505b6d04ee2d6d415b85acef81000000008310610538576d04ee2d6d415b85acef8100000000838161052e5761052d610b86565b5b0492506020810190505b662386f26fc10000831061056757662386f26fc10000838161055d5761055c610b86565b5b0492506010810190505b6305f5e1008310610590576305f5e100838161058657610585610b86565b5b0492506008810190505b61271083106105b55761271083816105ab576105aa610b86565b5b0492506004810190505b606483106105d857606483816105ce576105cd610b86565b5b0492506002810190505b600a83106105e7576001810190505b80915050919050565b610607816105ff61060a610629565b63ffffffff16565b50565b5f6a636f6e736f6c652e6c6f6790505f5f835160208501845afa505050565b610634819050919050565b61063c610c0b565b565b5f604051905090565b5f5ffd5b5f5ffd5b5f5ffd5b5f601f19601f8301169050919050565b7f4e487b71000000000000000000000000000000000000000000000000000000005f52604160045260245ffd5b61069982610653565b810181811067ffffffffffffffff821117156106b8576106b7610663565b5b80604052505050565b5f6106ca61063e565b90506106d68282610690565b919050565b5f67ffffffffffffffff8211156106f5576106f4610663565b5b602082029050602081019050919050565b5f5ffd5b5f819050919050565b61071c8161070a565b8114610726575f5ffd5b50565b5f8135905061073781610713565b92915050565b5f61074f61074a846106db565b6106c1565b9050808382526020820190506020840283018581111561077257610771610706565b5b835b8181101561079b57806107878882610729565b845260208401935050602081019050610774565b5050509392505050565b5f82601f8301126107b9576107b861064f565b5b81356107c984826020860161073d565b91505092915050565b5f5f604083850312156107e8576107e7610647565b5b5f83013567ffffffffffffffff8111156108055761080461064b565b5b610811858286016107a5565b925050602083013567ffffffffffffffff8111156108325761083161064b565b5b61083e858286016107a5565b9150509250929050565b5f81519050919050565b5f82825260208201905092915050565b5f819050602082019050919050565b61087a8161070a565b82525050565b5f61088b8383610871565b60208301905092915050565b5f602082019050919050565b5f6108ad82610848565b6108b78185610852565b93506108c283610862565b805f5b838110156108f25781516108d98882610880565b97506108e483610897565b9250506001810190506108c5565b5085935050505092915050565b5f6020820190508181035f83015261091781846108a3565b905092915050565b5f82825260208201905092915050565b7f6131206c656e677468206973207a656f720000000000000000000000000000005f82015250565b5f61096360118361091f565b915061096e8261092f565b602082019050919050565b5f6020820190508181035f83015261099081610957565b9050919050565b7f6132206c656e677468206973207a656f720000000000000000000000000000005f82015250565b5f6109cb60118361091f565b91506109d682610997565b602082019050919050565b5f6020820190508181035f8301526109f8816109bf565b9050919050565b5f819050919050565b7f4e487b71000000000000000000000000000000000000000000000000000000005f52601160045260245ffd5b5f610a3f826109ff565b9150610a4a836109ff565b9250828201905080821115610a6257610a61610a08565b5b92915050565b5f81519050919050565b5f81905092915050565b8281835e5f83830152505050565b5f610a9482610a68565b610a9e8185610a72565b9350610aae818560208601610a7c565b80840191505092915050565b7f2d2d2d0000000000000000000000000000000000000000000000000000000000815250565b5f610aeb8285610a8a565b9150610af682610aba565b600382019150610b068284610a8a565b91508190509392505050565b7f4e487b71000000000000000000000000000000000000000000000000000000005f52603260045260245ffd5b5f610b49826109ff565b91507fffffffffffffffffffffffffffffffffffffffffffffffffffffffffffffffff8203610b7b57610b7a610a08565b5b600182019050919050565b7f4e487b71000000000000000000000000000000000000000000000000000000005f52601260045260245ffd5b5f610bbd82610a68565b610bc7818561091f565b9350610bd7818560208601610a7c565b610be081610653565b840191505092915050565b5f6020820190508181035f830152610c038184610bb3565b905092915050565b7f4e487b71000000000000000000000000000000000000000000000000000000005f52605160045260245ffdfea264697066735822122089e99926fd395f718dc6c78f858e67351e120845d1f6759f736870fe655157ff64736f6c634300081e0033",
			"opcodes": "PUSH1 0x80 PUSH1 0x40 MSTORE CALLVALUE DUP1 ISZERO PUSH1 0xE JUMPI PUSH0 PUSH0 REVERT JUMPDEST POP PUSH2 0xC6E DUP1 PUSH2 0x1C PUSH0 CODECOPY PUSH0 RETURN INVALID PUSH1 0x80 PUSH1 0x40 MSTORE CALLVALUE DUP1 ISZERO PUSH2 0xF JUMPI PUSH0 PUSH0 REVERT JUMPDEST POP PUSH1 0x4 CALLDATASIZE LT PUSH2 0x29 JUMPI PUSH0 CALLDATALOAD PUSH1 0xE0 SHR DUP1 PUSH4 0x8E13AFF1 EQ PUSH2 0x2D JUMPI JUMPDEST PUSH0 PUSH0 REVERT JUMPDEST PUSH2 0x47 PUSH1 0x4 DUP1 CALLDATASIZE SUB DUP2 ADD SWAP1 PUSH2 0x42 SWAP2 SWAP1 PUSH2 0x7D2 JUMP JUMPDEST PUSH2 0x5D JUMP JUMPDEST PUSH1 0x40 MLOAD PUSH2 0x54 SWAP2 SWAP1 PUSH2 0x8FF JUMP JUMPDEST PUSH1 0x40 MLOAD DUP1 SWAP2 SUB SWAP1 RETURN JUMPDEST PUSH1 0x60 PUSH0 DUP4 MLOAD GT PUSH2 0xA2 JUMPI PUSH1 0x40 MLOAD PUSH32 0x8C379A000000000000000000000000000000000000000000000000000000000 DUP2 MSTORE PUSH1 0x4 ADD PUSH2 0x99 SWAP1 PUSH2 0x979 JUMP JUMPDEST PUSH1 0x40 MLOAD DUP1 SWAP2 SUB SWAP1 REVERT JUMPDEST PUSH0 DUP3 MLOAD GT PUSH2 0xE5 JUMPI PUSH1 0x40 MLOAD PUSH32 0x8C379A000000000000000000000000000000000000000000000000000000000 DUP2 MSTORE PUSH1 0x4 ADD PUSH2 0xDC SWAP1 PUSH2 0x9E1 JUMP JUMPDEST PUSH1 0x40 MLOAD DUP1 SWAP2 SUB SWAP1 REVERT JUMPDEST PUSH0 DUP3 MLOAD DUP5 MLOAD PUSH2 0xF4 SWAP2 SWAP1 PUSH2 0xA35 JUMP JUMPDEST SWAP1 POP PUSH0 DUP2 PUSH8 0xFFFFFFFFFFFFFFFF DUP2 GT ISZERO PUSH2 0x111 JUMPI PUSH2 0x110 PUSH2 0x663 JUMP JUMPDEST JUMPDEST PUSH1 0x40 MLOAD SWAP1 DUP1 DUP3 MSTORE DUP1 PUSH1 0x20 MUL PUSH1 0x20 ADD DUP3 ADD PUSH1 0x40 MSTORE DUP1 ISZERO PUSH2 0x13F JUMPI DUP2 PUSH1 0x20 ADD PUSH1 0x20 DUP3 MUL DUP1 CALLDATASIZE DUP4 CALLDATACOPY DUP1 DUP3 ADD SWAP2 POP POP SWAP1 POP JUMPDEST POP SWAP1 POP PUSH0 PUSH0 SWAP1 POP PUSH0 PUSH0 SWAP1 POP PUSH0 PUSH0 SWAP1 POP JUMPDEST DUP8 MLOAD DUP3 LT DUP1 PUSH2 0x15E JUMPI POP DUP7 MLOAD DUP2 LT JUMPDEST ISZERO PUSH2 0x32E JUMPI PUSH2 0x19D PUSH2 0x16F DUP4 PUSH2 0x33C JUMP JUMPDEST PUSH2 0x178 DUP4 PUSH2 0x33C JUMP JUMPDEST PUSH1 0x40 MLOAD PUSH1 0x20 ADD PUSH2 0x189 SWAP3 SWAP2 SWAP1 PUSH2 0xAE0 JUMP JUMPDEST PUSH1 0x40 MLOAD PUSH1 0x20 DUP2 DUP4 SUB SUB DUP2 MSTORE SWAP1 PUSH1 0x40 MSTORE PUSH2 0x406 JUMP JUMPDEST DUP8 MLOAD DUP3 LT PUSH2 0x1F2 JUMPI DUP7 DUP2 DUP2 MLOAD DUP2 LT PUSH2 0x1B8 JUMPI PUSH2 0x1B7 PUSH2 0xB12 JUMP JUMPDEST JUMPDEST PUSH1 0x20 MUL PUSH1 0x20 ADD ADD MLOAD DUP5 DUP5 DUP2 MLOAD DUP2 LT PUSH2 0x1D3 JUMPI PUSH2 0x1D2 PUSH2 0xB12 JUMP JUMPDEST JUMPDEST PUSH1 0x20 MUL PUSH1 0x20 ADD ADD DUP2 DUP2 MSTORE POP POP DUP1 DUP1 PUSH2 0x1EA SWAP1 PUSH2 0xB3F JUMP JUMPDEST SWAP2 POP POP PUSH2 0x31B JUMP JUMPDEST DUP7 MLOAD DUP2 LT PUSH2 0x247 JUMPI DUP8 DUP3 DUP2 MLOAD DUP2 LT PUSH2 0x20D JUMPI PUSH2 0x20C PUSH2 0xB12 JUMP JUMPDEST JUMPDEST PUSH1 0x20 MUL PUSH1 0x20 ADD ADD MLOAD DUP5 DUP5 DUP2 MLOAD DUP2 LT PUSH2 0x228 JUMPI PUSH2 0x227 PUSH2 0xB12 JUMP JUMPDEST JUMPDEST PUSH1 0x20 MUL PUSH1 0x20 ADD ADD DUP2 DUP2 MSTORE POP POP DUP2 DUP1 PUSH2 0x23F SWAP1 PUSH2 0xB3F JUMP JUMPDEST SWAP3 POP POP PUSH2 0x31A JUMP JUMPDEST DUP7 DUP2 DUP2 MLOAD DUP2 LT PUSH2 0x25A JUMPI PUSH2 0x259 PUSH2 0xB12 JUMP JUMPDEST JUMPDEST PUSH1 0x20 MUL PUSH1 0x20 ADD ADD MLOAD DUP9 DUP4 DUP2 MLOAD DUP2 LT PUSH2 0x275 JUMPI PUSH2 0x274 PUSH2 0xB12 JUMP JUMPDEST JUMPDEST PUSH1 0x20 MUL PUSH1 0x20 ADD ADD MLOAD SLT ISZERO PUSH2 0x2D0 JUMPI DUP8 DUP3 DUP2 MLOAD DUP2 LT PUSH2 0x296 JUMPI PUSH2 0x295 PUSH2 0xB12 JUMP JUMPDEST JUMPDEST PUSH1 0x20 MUL PUSH1 0x20 ADD ADD MLOAD DUP5 DUP5 DUP2 MLOAD DUP2 LT PUSH2 0x2B1 JUMPI PUSH2 0x2B0 PUSH2 0xB12 JUMP JUMPDEST JUMPDEST PUSH1 0x20 MUL PUSH1 0x20 ADD ADD DUP2 DUP2 MSTORE POP POP DUP2 DUP1 PUSH2 0x2C8 SWAP1 PUSH2 0xB3F JUMP JUMPDEST SWAP3 POP POP PUSH2 0x319 JUMP JUMPDEST DUP7 DUP2 DUP2 MLOAD DUP2 LT PUSH2 0x2E3 JUMPI PUSH2 0x2E2 PUSH2 0xB12 JUMP JUMPDEST JUMPDEST PUSH1 0x20 MUL PUSH1 0x20 ADD ADD MLOAD DUP5 DUP5 DUP2 MLOAD DUP2 LT PUSH2 0x2FE JUMPI PUSH2 0x2FD PUSH2 0xB12 JUMP JUMPDEST JUMPDEST PUSH1 0x20 MUL PUSH1 0x20 ADD ADD DUP2 DUP2 MSTORE POP POP DUP1 DUP1 PUSH2 0x315 SWAP1 PUSH2 0xB3F JUMP JUMPDEST SWAP2 POP POP JUMPDEST JUMPDEST JUMPDEST DUP3 DUP1 PUSH2 0x326 SWAP1 PUSH2 0xB3F JUMP JUMPDEST SWAP4 POP POP PUSH2 0x14F JUMP JUMPDEST DUP4 SWAP6 POP POP POP POP POP POP SWAP3 SWAP2 POP POP JUMP JUMPDEST PUSH1 0x60 PUSH0 PUSH1 0x1 PUSH2 0x34A DUP5 PUSH2 0x49F JUMP JUMPDEST ADD SWAP1 POP PUSH0 DUP2 PUSH8 0xFFFFFFFFFFFFFFFF DUP2 GT ISZERO PUSH2 0x368 JUMPI PUSH2 0x367 PUSH2 0x663 JUMP JUMPDEST JUMPDEST PUSH1 0x40 MLOAD SWAP1 DUP1 DUP3 MSTORE DUP1 PUSH1 0x1F ADD PUSH1 0x1F NOT AND PUSH1 0x20 ADD DUP3 ADD PUSH1 0x40 MSTORE DUP1 ISZERO PUSH2 0x39A JUMPI DUP2 PUSH1 0x20 ADD PUSH1 0x1 DUP3 MUL DUP1 CALLDATASIZE DUP4 CALLDATACOPY DUP1 DUP3 ADD SWAP2 POP POP SWAP1 POP JUMPDEST POP SWAP1 POP PUSH0 DUP3 PUSH1 0x20 DUP4 ADD ADD SWAP1 POP JUMPDEST PUSH1 0x1 ISZERO PUSH2 0x3FB JUMPI DUP1 DUP1 PUSH1 0x1 SWAP1 SUB SWAP2 POP POP PUSH32 0x3031323334353637383961626364656600000000000000000000000000000000 PUSH1 0xA DUP7 MOD BYTE DUP2 MSTORE8 PUSH1 0xA DUP6 DUP2 PUSH2 0x3F0 JUMPI PUSH2 0x3EF PUSH2 0xB86 JUMP JUMPDEST JUMPDEST DIV SWAP5 POP PUSH0 DUP6 SUB PUSH2 0x3A7 JUMPI JUMPDEST DUP2 SWAP4 POP POP POP POP SWAP2 SWAP1 POP JUMP JUMPDEST PUSH2 0x49C DUP2 PUSH1 0x40 MLOAD PUSH1 0x24 ADD PUSH2 0x41A SWAP2 SWAP1 PUSH2 0xBEB JUMP JUMPDEST PUSH1 0x40 MLOAD PUSH1 0x20 DUP2 DUP4 SUB SUB DUP2 MSTORE SWAP1 PUSH1 0x40 MSTORE PUSH32 0x41304FAC00000000000000000000000000000000000000000000000000000000 PUSH28 0xFFFFFFFFFFFFFFFFFFFFFFFFFFFFFFFFFFFFFFFFFFFFFFFFFFFFFFFF NOT AND PUSH1 0x20 DUP3 ADD DUP1 MLOAD PUSH28 0xFFFFFFFFFFFFFFFFFFFFFFFFFFFFFFFFFFFFFFFFFFFFFFFFFFFFFFFF DUP4 DUP2 DUP4 AND OR DUP4 MSTORE POP POP POP POP PUSH2 0x5F0 JUMP JUMPDEST POP JUMP JUMPDEST PUSH0 PUSH0 PUSH0 SWAP1 POP PUSH27 0x184F03E93FF9F4DAA797ED6E38ED64BF6A1F010000000000000000 DUP4 LT PUSH2 0x4FB JUMPI PUSH27 0x184F03E93FF9F4DAA797ED6E38ED64BF6A1F010000000000000000 DUP4 DUP2 PUSH2 0x4F1 JUMPI PUSH2 0x4F0 PUSH2 0xB86 JUMP JUMPDEST JUMPDEST DIV SWAP3 POP PUSH1 0x40 DUP2 ADD SWAP1 POP JUMPDEST PUSH14 0x4EE2D6D415B85ACEF8100000000 DUP4 LT PUSH2 0x538 JUMPI PUSH14 0x4EE2D6D415B85ACEF8100000000 DUP4 DUP2 PUSH2 0x52E JUMPI PUSH2 0x52D PUSH2 0xB86 JUMP JUMPDEST JUMPDEST DIV SWAP3 POP PUSH1 0x20 DUP2 ADD SWAP1 POP JUMPDEST PUSH7 0x2386F26FC10000 DUP4 LT PUSH2 0x567 JUMPI PUSH7 0x2386F26FC10000 DUP4 DUP2 PUSH2 0x55D JUMPI PUSH2 0x55C PUSH2 0xB86 JUMP JUMPDEST JUMPDEST DIV SWAP3 POP PUSH1 0x10 DUP2 ADD SWAP1 POP JUMPDEST PUSH4 0x5F5E100 DUP4 LT PUSH2 0x590 JUMPI PUSH4 0x5F5E100 DUP4 DUP2 PUSH2 0x586 JUMPI PUSH2 0x585 PUSH2 0xB86 JUMP JUMPDEST JUMPDEST DIV SWAP3 POP PUSH1 0x8 DUP2 ADD SWAP1 POP JUMPDEST PUSH2 0x2710 DUP4 LT PUSH2 0x5B5 JUMPI PUSH2 0x2710 DUP4 DUP2 PUSH2 0x5AB JUMPI PUSH2 0x5AA PUSH2 0xB86 JUMP JUMPDEST JUMPDEST DIV SWAP3 POP PUSH1 0x4 DUP2 ADD SWAP1 POP JUMPDEST PUSH1 0x64 DUP4 LT PUSH2 0x5D8 JUMPI PUSH1 0x64 DUP4 DUP2 PUSH2 0x5CE JUMPI PUSH2 0x5CD PUSH2 0xB86 JUMP JUMPDEST JUMPDEST DIV SWAP3 POP PUSH1 0x2 DUP2 ADD SWAP1 POP JUMPDEST PUSH1 0xA DUP4 LT PUSH2 0x5E7 JUMPI PUSH1 0x1 DUP2 ADD SWAP1 POP JUMPDEST DUP1 SWAP2 POP POP SWAP2 SWAP1 POP JUMP JUMPDEST PUSH2 0x607 DUP2 PUSH2 0x5FF PUSH2 0x60A PUSH2 0x629 JUMP JUMPDEST PUSH4 0xFFFFFFFF AND JUMP JUMPDEST POP JUMP JUMPDEST PUSH0 PUSH11 0x636F6E736F6C652E6C6F67 SWAP1 POP PUSH0 PUSH0 DUP4 MLOAD PUSH1 0x20 DUP6 ADD DUP5 GAS STATICCALL POP POP POP JUMP JUMPDEST PUSH2 0x634 DUP2 SWAP1 POP SWAP2 SWAP1 POP JUMP JUMPDEST PUSH2 0x63C PUSH2 0xC0B JUMP JUMPDEST JUMP JUMPDEST PUSH0 PUSH1 0x40 MLOAD SWAP1 POP SWAP1 JUMP JUMPDEST PUSH0 PUSH0 REVERT JUMPDEST PUSH0 PUSH0 REVERT JUMPDEST PUSH0 PUSH0 REVERT JUMPDEST PUSH0 PUSH1 0x1F NOT PUSH1 0x1F DUP4 ADD AND SWAP1 POP SWAP2 SWAP1 POP JUMP JUMPDEST PUSH32 0x4E487B7100000000000000000000000000000000000000000000000000000000 PUSH0 MSTORE PUSH1 0x41 PUSH1 0x4 MSTORE PUSH1 0x24 PUSH0 REVERT JUMPDEST PUSH2 0x699 DUP3 PUSH2 0x653 JUMP JUMPDEST DUP2 ADD DUP2 DUP2 LT PUSH8 0xFFFFFFFFFFFFFFFF DUP3 GT OR ISZERO PUSH2 0x6B8 JUMPI PUSH2 0x6B7 PUSH2 0x663 JUMP JUMPDEST JUMPDEST DUP1 PUSH1 0x40 MSTORE POP POP POP JUMP JUMPDEST PUSH0 PUSH2 0x6CA PUSH2 0x63E JUMP JUMPDEST SWAP1 POP PUSH2 0x6D6 DUP3 DUP3 PUSH2 0x690 JUMP JUMPDEST SWAP2 SWAP1 POP JUMP JUMPDEST PUSH0 PUSH8 0xFFFFFFFFFFFFFFFF DUP3 GT ISZERO PUSH2 0x6F5 JUMPI PUSH2 0x6F4 PUSH2 0x663 JUMP JUMPDEST JUMPDEST PUSH1 0x20 DUP3 MUL SWAP1 POP PUSH1 0x20 DUP2 ADD SWAP1 POP SWAP2 SWAP1 POP JUMP JUMPDEST PUSH0 PUSH0 REVERT JUMPDEST PUSH0 DUP2 SWAP1 POP SWAP2 SWAP1 POP JUMP JUMPDEST PUSH2 0x71C DUP2 PUSH2 0x70A JUMP JUMPDEST DUP2 EQ PUSH2 0x726 JUMPI PUSH0 PUSH0 REVERT JUMPDEST POP JUMP JUMPDEST PUSH0 DUP2 CALLDATALOAD SWAP1 POP PUSH2 0x737 DUP2 PUSH2 0x713 JUMP JUMPDEST SWAP3 SWAP2 POP POP JUMP JUMPDEST PUSH0 PUSH2 0x74F PUSH2 0x74A DUP5 PUSH2 0x6DB JUMP JUMPDEST PUSH2 0x6C1 JUMP JUMPDEST SWAP1 POP DUP1 DUP4 DUP3 MSTORE PUSH1 0x20 DUP3 ADD SWAP1 POP PUSH1 0x20 DUP5 MUL DUP4 ADD DUP6 DUP2 GT ISZERO PUSH2 0x772 JUMPI PUSH2 0x771 PUSH2 0x706 JUMP JUMPDEST JUMPDEST DUP4 JUMPDEST DUP2 DUP2 LT ISZERO PUSH2 0x79B JUMPI DUP1 PUSH2 0x787 DUP9 DUP3 PUSH2 0x729 JUMP JUMPDEST DUP5 MSTORE PUSH1 0x20 DUP5 ADD SWAP4 POP POP PUSH1 0x20 DUP2 ADD SWAP1 POP PUSH2 0x774 JUMP JUMPDEST POP POP POP SWAP4 SWAP3 POP POP POP JUMP JUMPDEST PUSH0 DUP3 PUSH1 0x1F DUP4 ADD SLT PUSH2 0x7B9 JUMPI PUSH2 0x7B8 PUSH2 0x64F JUMP JUMPDEST JUMPDEST DUP2 CALLDATALOAD PUSH2 0x7C9 DUP5 DUP3 PUSH1 0x20 DUP7 ADD PUSH2 0x73D JUMP JUMPDEST SWAP2 POP POP SWAP3 SWAP2 POP POP JUMP JUMPDEST PUSH0 PUSH0 PUSH1 0x40 DUP4 DUP6 SUB SLT ISZERO PUSH2 0x7E8 JUMPI PUSH2 0x7E7 PUSH2 0x647 JUMP JUMPDEST JUMPDEST PUSH0 DUP4 ADD CALLDATALOAD PUSH8 0xFFFFFFFFFFFFFFFF DUP2 GT ISZERO PUSH2 0x805 JUMPI PUSH2 0x804 PUSH2 0x64B JUMP JUMPDEST JUMPDEST PUSH2 0x811 DUP6 DUP3 DUP7 ADD PUSH2 0x7A5 JUMP JUMPDEST SWAP3 POP POP PUSH1 0x20 DUP4 ADD CALLDATALOAD PUSH8 0xFFFFFFFFFFFFFFFF DUP2 GT ISZERO PUSH2 0x832 JUMPI PUSH2 0x831 PUSH2 0x64B JUMP JUMPDEST JUMPDEST PUSH2 0x83E DUP6 DUP3 DUP7 ADD PUSH2 0x7A5 JUMP JUMPDEST SWAP2 POP POP SWAP3 POP SWAP3 SWAP1 POP JUMP JUMPDEST PUSH0 DUP2 MLOAD SWAP1 POP SWAP2 SWAP1 POP JUMP JUMPDEST PUSH0 DUP3 DUP3 MSTORE PUSH1 0x20 DUP3 ADD SWAP1 POP SWAP3 SWAP2 POP POP JUMP JUMPDEST PUSH0 DUP2 SWAP1 POP PUSH1 0x20 DUP3 ADD SWAP1 POP SWAP2 SWAP1 POP JUMP JUMPDEST PUSH2 0x87A DUP2 PUSH2 0x70A JUMP JUMPDEST DUP3 MSTORE POP POP JUMP JUMPDEST PUSH0 PUSH2 0x88B DUP4 DUP4 PUSH2 0x871 JUMP JUMPDEST PUSH1 0x20 DUP4 ADD SWAP1 POP SWAP3 SWAP2 POP POP JUMP JUMPDEST PUSH0 PUSH1 0x20 DUP3 ADD SWAP1 POP SWAP2 SWAP1 POP JUMP JUMPDEST PUSH0 PUSH2 0x8AD DUP3 PUSH2 0x848 JUMP JUMPDEST PUSH2 0x8B7 DUP2 DUP6 PUSH2 0x852 JUMP JUMPDEST SWAP4 POP PUSH2 0x8C2 DUP4 PUSH2 0x862 JUMP JUMPDEST DUP1 PUSH0 JUMPDEST DUP4 DUP2 LT ISZERO PUSH2 0x8F2 JUMPI DUP2 MLOAD PUSH2 0x8D9 DUP9 DUP3 PUSH2 0x880 JUMP JUMPDEST SWAP8 POP PUSH2 0x8E4 DUP4 PUSH2 0x897 JUMP JUMPDEST SWAP3 POP POP PUSH1 0x1 DUP2 ADD SWAP1 POP PUSH2 0x8C5 JUMP JUMPDEST POP DUP6 SWAP4 POP POP POP POP SWAP3 SWAP2 POP POP JUMP JUMPDEST PUSH0 PUSH1 0x20 DUP3 ADD SWAP1 POP DUP2 DUP2 SUB PUSH0 DUP4 ADD MSTORE PUSH2 0x917 DUP2 DUP5 PUSH2 0x8A3 JUMP JUMPDEST SWAP1 POP SWAP3 SWAP2 POP POP JUMP JUMPDEST PUSH0 DUP3 DUP3 MSTORE PUSH1 0x20 DUP3 ADD SWAP1 POP SWAP3 SWAP2 POP POP JUMP JUMPDEST PUSH32 0x6131206C656E677468206973207A656F72000000000000000000000000000000 PUSH0 DUP3 ADD MSTORE POP JUMP JUMPDEST PUSH0 PUSH2 0x963 PUSH1 0x11 DUP4 PUSH2 0x91F JUMP JUMPDEST SWAP2 POP PUSH2 0x96E DUP3 PUSH2 0x92F JUMP JUMPDEST PUSH1 0x20 DUP3 ADD SWAP1 POP SWAP2 SWAP1 POP JUMP JUMPDEST PUSH0 PUSH1 0x20 DUP3 ADD SWAP1 POP DUP2 DUP2 SUB PUSH0 DUP4 ADD MSTORE PUSH2 0x990 DUP2 PUSH2 0x957 JUMP JUMPDEST SWAP1 POP SWAP2 SWAP1 POP JUMP JUMPDEST PUSH32 0x6132206C656E677468206973207A656F72000000000000000000000000000000 PUSH0 DUP3 ADD MSTORE POP JUMP JUMPDEST PUSH0 PUSH2 0x9CB PUSH1 0x11 DUP4 PUSH2 0x91F JUMP JUMPDEST SWAP2 POP PUSH2 0x9D6 DUP3 PUSH2 0x997 JUMP JUMPDEST PUSH1 0x20 DUP3 ADD SWAP1 POP SWAP2 SWAP1 POP JUMP JUMPDEST PUSH0 PUSH1 0x20 DUP3 ADD SWAP1 POP DUP2 DUP2 SUB PUSH0 DUP4 ADD MSTORE PUSH2 0x9F8 DUP2 PUSH2 0x9BF JUMP JUMPDEST SWAP1 POP SWAP2 SWAP1 POP JUMP JUMPDEST PUSH0 DUP2 SWAP1 POP SWAP2 SWAP1 POP JUMP JUMPDEST PUSH32 0x4E487B7100000000000000000000000000000000000000000000000000000000 PUSH0 MSTORE PUSH1 0x11 PUSH1 0x4 MSTORE PUSH1 0x24 PUSH0 REVERT JUMPDEST PUSH0 PUSH2 0xA3F DUP3 PUSH2 0x9FF JUMP JUMPDEST SWAP2 POP PUSH2 0xA4A DUP4 PUSH2 0x9FF JUMP JUMPDEST SWAP3 POP DUP3 DUP3 ADD SWAP1 POP DUP1 DUP3 GT ISZERO PUSH2 0xA62 JUMPI PUSH2 0xA61 PUSH2 0xA08 JUMP JUMPDEST JUMPDEST SWAP3 SWAP2 POP POP JUMP JUMPDEST PUSH0 DUP2 MLOAD SWAP1 POP SWAP2 SWAP1 POP JUMP JUMPDEST PUSH0 DUP2 SWAP1 POP SWAP3 SWAP2 POP POP JUMP JUMPDEST DUP3 DUP2 DUP4 MCOPY PUSH0 DUP4 DUP4 ADD MSTORE POP POP POP JUMP JUMPDEST PUSH0 PUSH2 0xA94 DUP3 PUSH2 0xA68 JUMP JUMPDEST PUSH2 0xA9E DUP2 DUP6 PUSH2 0xA72 JUMP JUMPDEST SWAP4 POP PUSH2 0xAAE DUP2 DUP6 PUSH1 0x20 DUP7 ADD PUSH2 0xA7C JUMP JUMPDEST DUP1 DUP5 ADD SWAP2 POP POP SWAP3 SWAP2 POP POP JUMP JUMPDEST PUSH32 0x2D2D2D0000000000000000000000000000000000000000000000000000000000 DUP2 MSTORE POP JUMP JUMPDEST PUSH0 PUSH2 0xAEB DUP3 DUP6 PUSH2 0xA8A JUMP JUMPDEST SWAP2 POP PUSH2 0xAF6 DUP3 PUSH2 0xABA JUMP JUMPDEST PUSH1 0x3 DUP3 ADD SWAP2 POP PUSH2 0xB06 DUP3 DUP5 PUSH2 0xA8A JUMP JUMPDEST SWAP2 POP DUP2 SWAP1 POP SWAP4 SWAP3 POP POP POP JUMP JUMPDEST PUSH32 0x4E487B7100000000000000000000000000000000000000000000000000000000 PUSH0 MSTORE PUSH1 0x32 PUSH1 0x4 MSTORE PUSH1 0x24 PUSH0 REVERT JUMPDEST PUSH0 PUSH2 0xB49 DUP3 PUSH2 0x9FF JUMP JUMPDEST SWAP2 POP PUSH32 0xFFFFFFFFFFFFFFFFFFFFFFFFFFFFFFFFFFFFFFFFFFFFFFFFFFFFFFFFFFFFFFFF DUP3 SUB PUSH2 0xB7B JUMPI PUSH2 0xB7A PUSH2 0xA08 JUMP JUMPDEST JUMPDEST PUSH1 0x1 DUP3 ADD SWAP1 POP SWAP2 SWAP1 POP JUMP JUMPDEST PUSH32 0x4E487B7100000000000000000000000000000000000000000000000000000000 PUSH0 MSTORE PUSH1 0x12 PUSH1 0x4 MSTORE PUSH1 0x24 PUSH0 REVERT JUMPDEST PUSH0 PUSH2 0xBBD DUP3 PUSH2 0xA68 JUMP JUMPDEST PUSH2 0xBC7 DUP2 DUP6 PUSH2 0x91F JUMP JUMPDEST SWAP4 POP PUSH2 0xBD7 DUP2 DUP6 PUSH1 0x20 DUP7 ADD PUSH2 0xA7C JUMP JUMPDEST PUSH2 0xBE0 DUP2 PUSH2 0x653 JUMP JUMPDEST DUP5 ADD SWAP2 POP POP SWAP3 SWAP2 POP POP JUMP JUMPDEST PUSH0 PUSH1 0x20 DUP3 ADD SWAP1 POP DUP2 DUP2 SUB PUSH0 DUP4 ADD MSTORE PUSH2 0xC03 DUP2 DUP5 PUSH2 0xBB3 JUMP JUMPDEST SWAP1 POP SWAP3 SWAP2 POP POP JUMP JUMPDEST PUSH32 0x4E487B7100000000000000000000000000000000000000000000000000000000 PUSH0 MSTORE PUSH1 0x51 PUSH1 0x4 MSTORE PUSH1 0x24 PUSH0 REVERT INVALID LOG2 PUSH5 0x6970667358 0x22 SLT KECCAK256 DUP10 0xE9 SWAP10 0x26 REVERT CODECOPY PUSH0 PUSH18 0x8DC6C78F858E67351E120845D1F6759F7368 PUSH17 0xFE655157FF64736F6C634300081E003300 "
		},
		"gasEstimates": {
			"creation": {
				"codeDepositCost": "636400",
				"executionCost": "668",
				"totalCost": "637068"
			},
			"external": {
				"merge(int256[],int256[])": "infinite"
			}
		},
		"methodIdentifiers": {
			"merge(int256[],int256[])": "8e13aff1"
		}
	},
	"abi": [
		{
			"inputs": [
				{
					"internalType": "int256[]",
					"name": "a1",
					"type": "int256[]"
				},
				{
					"internalType": "int256[]",
					"name": "a2",
					"type": "int256[]"
				}
			],
			"name": "merge",
			"outputs": [
				{
					"internalType": "int256[]",
					"name": "",
					"type": "int256[]"
				}
			],
			"stateMutability": "pure",
			"type": "function"
		}
	]
}