{
	"data": {
		"bytecode": {
			"linkReferences": {},
			"object": "6080604052348015600e575f5ffd5b50610a968061001c5f395ff3fe608060405234801561000f575f5ffd5b506004361061004a575f3560e01c80630d31b3bc1461004e5780636dfc01521461007e5780639b09bcaa146100ae578063ca65d54b146100de575b5f5ffd5b610068600480360381019061006391906107a7565b61010e565b604051610075919061084e565b60405180910390f35b610098600480360381019061009391906107a7565b610262565b6040516100a5919061084e565b60405180910390f35b6100c860048036038101906100c391906107a7565b61039b565b6040516100d5919061084e565b60405180910390f35b6100f860048036038101906100f391906107a7565b6104fd565b604051610105919061084e565b60405180910390f35b60605f8290505f815190505f811161015b576040517f08c379a0000000000000000000000000000000000000000000000000000000008152600401610152906108b8565b60405180910390fd5b5f5f90505b60028261016d9190610939565b811015610257575f600182846101839190610969565b61018d9190610969565b90508381815181106101a2576101a161099c565b5b602001015160f81c60f81b8483815181106101c0576101bf61099c565b5b602001015160f81c60f81b8584815181106101de576101dd61099c565b5b602001018684815181106101f5576101f461099c565b5b60200101827effffffffffffffffffffffffffffffffffffffffffffffffffffffffffffff19165f1a9053827effffffffffffffffffffffffffffffffffffffffffffffffffffffffffffff19165f1a90535050508080600101915050610160565b508192505050919050565b60605f8290505f815190505f81116102af576040517f08c379a00000000000000000000000000000000000000000000000000000000081526004016102a6906108b8565b60405180910390fd5b5f8167ffffffffffffffff8111156102ca576102c9610683565b5b6040519080825280601f01601f1916602001820160405280156102fc5781602001600182028036833780820191505090505b5090505f5f90505b8281101561038f57836001828561031b9190610969565b6103259190610969565b815181106103365761033561099c565b5b602001015160f81c60f81b8282815181106103545761035361099c565b5b60200101907effffffffffffffffffffffffffffffffffffffffffffffffffffffffffffff191690815f1a9053508080600101915050610304565b50809350505050919050565b60605f8290505f815190505f8167ffffffffffffffff8111156103c1576103c0610683565b5b6040519080825280601f01601f1916602001820160405280156103f35781602001600182028036833780820191505090505b5090505f8211610438576040517f08c379a000000000000000000000000000000000000000000000000000000000815260040161042f906108b8565b60405180910390fd5b5f5f90505f5f90505b6002811015610457578080600101915050610441565b505f6001846104669190610969565b90505b5f81126104f0578481815181106104835761048261099c565b5b602001015160f81c60f81b8383815181106104a1576104a061099c565b5b60200101907effffffffffffffffffffffffffffffffffffffffffffffffffffffffffffff191690815f1a90535081806104da906109c9565b92505080806104e890610a19565b915050610469565b5081945050505050919050565b60605f8290505f815190505f811161054a576040517f08c379a0000000000000000000000000000000000000000000000000000000008152600401610541906108b8565b60405180910390fd5b5f5f90505b60028261055c9190610939565b81101561064f575f600182846105729190610969565b61057c9190610969565b90505f8482815181106105925761059161099c565b5b602001015160f81c60f81b90508483815181106105b2576105b161099c565b5b602001015160f81c60f81b8583815181106105d0576105cf61099c565b5b60200101907effffffffffffffffffffffffffffffffffffffffffffffffffffffffffffff191690815f1a905350808584815181106106125761061161099c565b5b60200101907effffffffffffffffffffffffffffffffffffffffffffffffffffffffffffff191690815f1a9053505050808060010191505061054f565b508192505050919050565b5f604051905090565b5f5ffd5b5f5ffd5b5f5ffd5b5f5ffd5b5f601f19601f8301169050919050565b7f4e487b71000000000000000000000000000000000000000000000000000000005f52604160045260245ffd5b6106b982610673565b810181811067ffffffffffffffff821117156106d8576106d7610683565b5b80604052505050565b5f6106ea61065a565b90506106f682826106b0565b919050565b5f67ffffffffffffffff82111561071557610714610683565b5b61071e82610673565b9050602081019050919050565b828183375f83830152505050565b5f61074b610746846106fb565b6106e1565b9050828152602081018484840111156107675761076661066f565b5b61077284828561072b565b509392505050565b5f82601f83011261078e5761078d61066b565b5b813561079e848260208601610739565b91505092915050565b5f602082840312156107bc576107bb610663565b5b5f82013567ffffffffffffffff8111156107d9576107d8610667565b5b6107e58482850161077a565b91505092915050565b5f81519050919050565b5f82825260208201905092915050565b8281835e5f83830152505050565b5f610820826107ee565b61082a81856107f8565b935061083a818560208601610808565b61084381610673565b840191505092915050565b5f6020820190508181035f8301526108668184610816565b905092915050565b7f496e70757420737472696e6720697320656d70747900000000000000000000005f82015250565b5f6108a26015836107f8565b91506108ad8261086e565b602082019050919050565b5f6020820190508181035f8301526108cf81610896565b9050919050565b5f819050919050565b7f4e487b71000000000000000000000000000000000000000000000000000000005f52601260045260245ffd5b7f4e487b71000000000000000000000000000000000000000000000000000000005f52601160045260245ffd5b5f610943826108d6565b915061094e836108d6565b92508261095e5761095d6108df565b5b828204905092915050565b5f610973826108d6565b915061097e836108d6565b92508282039050818111156109965761099561090c565b5b92915050565b7f4e487b71000000000000000000000000000000000000000000000000000000005f52603260045260245ffd5b5f6109d3826108d6565b91507fffffffffffffffffffffffffffffffffffffffffffffffffffffffffffffffff8203610a0557610a0461090c565b5b600182019050919050565b5f819050919050565b5f610a2382610a10565b91507f80000000000000000000000000000000000000000000000000000000000000008203610a5557610a5461090c565b5b60018203905091905056fea2646970667358221220043fcaf71fa3329a3d6aebcd0cc9e69d7acb940fce554e4a61334743ac3eb22464736f6c634300081e0033",
			"opcodes": "PUSH1 0x80 PUSH1 0x40 MSTORE CALLVALUE DUP1 ISZERO PUSH1 0xE JUMPI PUSH0 PUSH0 REVERT JUMPDEST POP PUSH2 0xA96 DUP1 PUSH2 0x1C PUSH0 CODECOPY PUSH0 RETURN INVALID PUSH1 0x80 PUSH1 0x40 MSTORE CALLVALUE DUP1 ISZERO PUSH2 0xF JUMPI PUSH0 PUSH0 REVERT JUMPDEST POP PUSH1 0x4 CALLDATASIZE LT PUSH2 0x4A JUMPI PUSH0 CALLDATALOAD PUSH1 0xE0 SHR DUP1 PUSH4 0xD31B3BC EQ PUSH2 0x4E JUMPI DUP1 PUSH4 0x6DFC0152 EQ PUSH2 0x7E JUMPI DUP1 PUSH4 0x9B09BCAA EQ PUSH2 0xAE JUMPI DUP1 PUSH4 0xCA65D54B EQ PUSH2 0xDE JUMPI JUMPDEST PUSH0 PUSH0 REVERT JUMPDEST PUSH2 0x68 PUSH1 0x4 DUP1 CALLDATASIZE SUB DUP2 ADD SWAP1 PUSH2 0x63 SWAP2 SWAP1 PUSH2 0x7A7 JUMP JUMPDEST PUSH2 0x10E JUMP JUMPDEST PUSH1 0x40 MLOAD PUSH2 0x75 SWAP2 SWAP1 PUSH2 0x84E JUMP JUMPDEST PUSH1 0x40 MLOAD DUP1 SWAP2 SUB SWAP1 RETURN JUMPDEST PUSH2 0x98 PUSH1 0x4 DUP1 CALLDATASIZE SUB DUP2 ADD SWAP1 PUSH2 0x93 SWAP2 SWAP1 PUSH2 0x7A7 JUMP JUMPDEST PUSH2 0x262 JUMP JUMPDEST PUSH1 0x40 MLOAD PUSH2 0xA5 SWAP2 SWAP1 PUSH2 0x84E JUMP JUMPDEST PUSH1 0x40 MLOAD DUP1 SWAP2 SUB SWAP1 RETURN JUMPDEST PUSH2 0xC8 PUSH1 0x4 DUP1 CALLDATASIZE SUB DUP2 ADD SWAP1 PUSH2 0xC3 SWAP2 SWAP1 PUSH2 0x7A7 JUMP JUMPDEST PUSH2 0x39B JUMP JUMPDEST PUSH1 0x40 MLOAD PUSH2 0xD5 SWAP2 SWAP1 PUSH2 0x84E JUMP JUMPDEST PUSH1 0x40 MLOAD DUP1 SWAP2 SUB SWAP1 RETURN JUMPDEST PUSH2 0xF8 PUSH1 0x4 DUP1 CALLDATASIZE SUB DUP2 ADD SWAP1 PUSH2 0xF3 SWAP2 SWAP1 PUSH2 0x7A7 JUMP JUMPDEST PUSH2 0x4FD JUMP JUMPDEST PUSH1 0x40 MLOAD PUSH2 0x105 SWAP2 SWAP1 PUSH2 0x84E JUMP JUMPDEST PUSH1 0x40 MLOAD DUP1 SWAP2 SUB SWAP1 RETURN JUMPDEST PUSH1 0x60 PUSH0 DUP3 SWAP1 POP PUSH0 DUP2 MLOAD SWAP1 POP PUSH0 DUP2 GT PUSH2 0x15B JUMPI PUSH1 0x40 MLOAD PUSH32 0x8C379A000000000000000000000000000000000000000000000000000000000 DUP2 MSTORE PUSH1 0x4 ADD PUSH2 0x152 SWAP1 PUSH2 0x8B8 JUMP JUMPDEST PUSH1 0x40 MLOAD DUP1 SWAP2 SUB SWAP1 REVERT JUMPDEST PUSH0 PUSH0 SWAP1 POP JUMPDEST PUSH1 0x2 DUP3 PUSH2 0x16D SWAP2 SWAP1 PUSH2 0x939 JUMP JUMPDEST DUP2 LT ISZERO PUSH2 0x257 JUMPI PUSH0 PUSH1 0x1 DUP3 DUP5 PUSH2 0x183 SWAP2 SWAP1 PUSH2 0x969 JUMP JUMPDEST PUSH2 0x18D SWAP2 SWAP1 PUSH2 0x969 JUMP JUMPDEST SWAP1 POP DUP4 DUP2 DUP2 MLOAD DUP2 LT PUSH2 0x1A2 JUMPI PUSH2 0x1A1 PUSH2 0x99C JUMP JUMPDEST JUMPDEST PUSH1 0x20 ADD ADD MLOAD PUSH1 0xF8 SHR PUSH1 0xF8 SHL DUP5 DUP4 DUP2 MLOAD DUP2 LT PUSH2 0x1C0 JUMPI PUSH2 0x1BF PUSH2 0x99C JUMP JUMPDEST JUMPDEST PUSH1 0x20 ADD ADD MLOAD PUSH1 0xF8 SHR PUSH1 0xF8 SHL DUP6 DUP5 DUP2 MLOAD DUP2 LT PUSH2 0x1DE JUMPI PUSH2 0x1DD PUSH2 0x99C JUMP JUMPDEST JUMPDEST PUSH1 0x20 ADD ADD DUP7 DUP5 DUP2 MLOAD DUP2 LT PUSH2 0x1F5 JUMPI PUSH2 0x1F4 PUSH2 0x99C JUMP JUMPDEST JUMPDEST PUSH1 0x20 ADD ADD DUP3 PUSH31 0xFFFFFFFFFFFFFFFFFFFFFFFFFFFFFFFFFFFFFFFFFFFFFFFFFFFFFFFFFFFFFF NOT AND PUSH0 BYTE SWAP1 MSTORE8 DUP3 PUSH31 0xFFFFFFFFFFFFFFFFFFFFFFFFFFFFFFFFFFFFFFFFFFFFFFFFFFFFFFFFFFFFFF NOT AND PUSH0 BYTE SWAP1 MSTORE8 POP POP POP DUP1 DUP1 PUSH1 0x1 ADD SWAP2 POP POP PUSH2 0x160 JUMP JUMPDEST POP DUP2 SWAP3 POP POP POP SWAP2 SWAP1 POP JUMP JUMPDEST PUSH1 0x60 PUSH0 DUP3 SWAP1 POP PUSH0 DUP2 MLOAD SWAP1 POP PUSH0 DUP2 GT PUSH2 0x2AF JUMPI PUSH1 0x40 MLOAD PUSH32 0x8C379A000000000000000000000000000000000000000000000000000000000 DUP2 MSTORE PUSH1 0x4 ADD PUSH2 0x2A6 SWAP1 PUSH2 0x8B8 JUMP JUMPDEST PUSH1 0x40 MLOAD DUP1 SWAP2 SUB SWAP1 REVERT JUMPDEST PUSH0 DUP2 PUSH8 0xFFFFFFFFFFFFFFFF DUP2 GT ISZERO PUSH2 0x2CA JUMPI PUSH2 0x2C9 PUSH2 0x683 JUMP JUMPDEST JUMPDEST PUSH1 0x40 MLOAD SWAP1 DUP1 DUP3 MSTORE DUP1 PUSH1 0x1F ADD PUSH1 0x1F NOT AND PUSH1 0x20 ADD DUP3 ADD PUSH1 0x40 MSTORE DUP1 ISZERO PUSH2 0x2FC JUMPI DUP2 PUSH1 0x20 ADD PUSH1 0x1 DUP3 MUL DUP1 CALLDATASIZE DUP4 CALLDATACOPY DUP1 DUP3 ADD SWAP2 POP POP SWAP1 POP JUMPDEST POP SWAP1 POP PUSH0 PUSH0 SWAP1 POP JUMPDEST DUP3 DUP2 LT ISZERO PUSH2 0x38F JUMPI DUP4 PUSH1 0x1 DUP3 DUP6 PUSH2 0x31B SWAP2 SWAP1 PUSH2 0x969 JUMP JUMPDEST PUSH2 0x325 SWAP2 SWAP1 PUSH2 0x969 JUMP JUMPDEST DUP2 MLOAD DUP2 LT PUSH2 0x336 JUMPI PUSH2 0x335 PUSH2 0x99C JUMP JUMPDEST JUMPDEST PUSH1 0x20 ADD ADD MLOAD PUSH1 0xF8 SHR PUSH1 0xF8 SHL DUP3 DUP3 DUP2 MLOAD DUP2 LT PUSH2 0x354 JUMPI PUSH2 0x353 PUSH2 0x99C JUMP JUMPDEST JUMPDEST PUSH1 0x20 ADD ADD SWAP1 PUSH31 0xFFFFFFFFFFFFFFFFFFFFFFFFFFFFFFFFFFFFFFFFFFFFFFFFFFFFFFFFFFFFFF NOT AND SWAP1 DUP2 PUSH0 BYTE SWAP1 MSTORE8 POP DUP1 DUP1 PUSH1 0x1 ADD SWAP2 POP POP PUSH2 0x304 JUMP JUMPDEST POP DUP1 SWAP4 POP POP POP POP SWAP2 SWAP1 POP JUMP JUMPDEST PUSH1 0x60 PUSH0 DUP3 SWAP1 POP PUSH0 DUP2 MLOAD SWAP1 POP PUSH0 DUP2 PUSH8 0xFFFFFFFFFFFFFFFF DUP2 GT ISZERO PUSH2 0x3C1 JUMPI PUSH2 0x3C0 PUSH2 0x683 JUMP JUMPDEST JUMPDEST PUSH1 0x40 MLOAD SWAP1 DUP1 DUP3 MSTORE DUP1 PUSH1 0x1F ADD PUSH1 0x1F NOT AND PUSH1 0x20 ADD DUP3 ADD PUSH1 0x40 MSTORE DUP1 ISZERO PUSH2 0x3F3 JUMPI DUP2 PUSH1 0x20 ADD PUSH1 0x1 DUP3 MUL DUP1 CALLDATASIZE DUP4 CALLDATACOPY DUP1 DUP3 ADD SWAP2 POP POP SWAP1 POP JUMPDEST POP SWAP1 POP PUSH0 DUP3 GT PUSH2 0x438 JUMPI PUSH1 0x40 MLOAD PUSH32 0x8C379A000000000000000000000000000000000000000000000000000000000 DUP2 MSTORE PUSH1 0x4 ADD PUSH2 0x42F SWAP1 PUSH2 0x8B8 JUMP JUMPDEST PUSH1 0x40 MLOAD DUP1 SWAP2 SUB SWAP1 REVERT JUMPDEST PUSH0 PUSH0 SWAP1 POP PUSH0 PUSH0 SWAP1 POP JUMPDEST PUSH1 0x2 DUP2 LT ISZERO PUSH2 0x457 JUMPI DUP1 DUP1 PUSH1 0x1 ADD SWAP2 POP POP PUSH2 0x441 JUMP JUMPDEST POP PUSH0 PUSH1 0x1 DUP5 PUSH2 0x466 SWAP2 SWAP1 PUSH2 0x969 JUMP JUMPDEST SWAP1 POP JUMPDEST PUSH0 DUP2 SLT PUSH2 0x4F0 JUMPI DUP5 DUP2 DUP2 MLOAD DUP2 LT PUSH2 0x483 JUMPI PUSH2 0x482 PUSH2 0x99C JUMP JUMPDEST JUMPDEST PUSH1 0x20 ADD ADD MLOAD PUSH1 0xF8 SHR PUSH1 0xF8 SHL DUP4 DUP4 DUP2 MLOAD DUP2 LT PUSH2 0x4A1 JUMPI PUSH2 0x4A0 PUSH2 0x99C JUMP JUMPDEST JUMPDEST PUSH1 0x20 ADD ADD SWAP1 PUSH31 0xFFFFFFFFFFFFFFFFFFFFFFFFFFFFFFFFFFFFFFFFFFFFFFFFFFFFFFFFFFFFFF NOT AND SWAP1 DUP2 PUSH0 BYTE SWAP1 MSTORE8 POP DUP2 DUP1 PUSH2 0x4DA SWAP1 PUSH2 0x9C9 JUMP JUMPDEST SWAP3 POP POP DUP1 DUP1 PUSH2 0x4E8 SWAP1 PUSH2 0xA19 JUMP JUMPDEST SWAP2 POP POP PUSH2 0x469 JUMP JUMPDEST POP DUP2 SWAP5 POP POP POP POP POP SWAP2 SWAP1 POP JUMP JUMPDEST PUSH1 0x60 PUSH0 DUP3 SWAP1 POP PUSH0 DUP2 MLOAD SWAP1 POP PUSH0 DUP2 GT PUSH2 0x54A JUMPI PUSH1 0x40 MLOAD PUSH32 0x8C379A000000000000000000000000000000000000000000000000000000000 DUP2 MSTORE PUSH1 0x4 ADD PUSH2 0x541 SWAP1 PUSH2 0x8B8 JUMP JUMPDEST PUSH1 0x40 MLOAD DUP1 SWAP2 SUB SWAP1 REVERT JUMPDEST PUSH0 PUSH0 SWAP1 POP JUMPDEST PUSH1 0x2 DUP3 PUSH2 0x55C SWAP2 SWAP1 PUSH2 0x939 JUMP JUMPDEST DUP2 LT ISZERO PUSH2 0x64F JUMPI PUSH0 PUSH1 0x1 DUP3 DUP5 PUSH2 0x572 SWAP2 SWAP1 PUSH2 0x969 JUMP JUMPDEST PUSH2 0x57C SWAP2 SWAP1 PUSH2 0x969 JUMP JUMPDEST SWAP1 POP PUSH0 DUP5 DUP3 DUP2 MLOAD DUP2 LT PUSH2 0x592 JUMPI PUSH2 0x591 PUSH2 0x99C JUMP JUMPDEST JUMPDEST PUSH1 0x20 ADD ADD MLOAD PUSH1 0xF8 SHR PUSH1 0xF8 SHL SWAP1 POP DUP5 DUP4 DUP2 MLOAD DUP2 LT PUSH2 0x5B2 JUMPI PUSH2 0x5B1 PUSH2 0x99C JUMP JUMPDEST JUMPDEST PUSH1 0x20 ADD ADD MLOAD PUSH1 0xF8 SHR PUSH1 0xF8 SHL DUP6 DUP4 DUP2 MLOAD DUP2 LT PUSH2 0x5D0 JUMPI PUSH2 0x5CF PUSH2 0x99C JUMP JUMPDEST JUMPDEST PUSH1 0x20 ADD ADD SWAP1 PUSH31 0xFFFFFFFFFFFFFFFFFFFFFFFFFFFFFFFFFFFFFFFFFFFFFFFFFFFFFFFFFFFFFF NOT AND SWAP1 DUP2 PUSH0 BYTE SWAP1 MSTORE8 POP DUP1 DUP6 DUP5 DUP2 MLOAD DUP2 LT PUSH2 0x612 JUMPI PUSH2 0x611 PUSH2 0x99C JUMP JUMPDEST JUMPDEST PUSH1 0x20 ADD ADD SWAP1 PUSH31 0xFFFFFFFFFFFFFFFFFFFFFFFFFFFFFFFFFFFFFFFFFFFFFFFFFFFFFFFFFFFFFF NOT AND SWAP1 DUP2 PUSH0 BYTE SWAP1 MSTORE8 POP POP POP DUP1 DUP1 PUSH1 0x1 ADD SWAP2 POP POP PUSH2 0x54F JUMP JUMPDEST POP DUP2 SWAP3 POP POP POP SWAP2 SWAP1 POP JUMP JUMPDEST PUSH0 PUSH1 0x40 MLOAD SWAP1 POP SWAP1 JUMP JUMPDEST PUSH0 PUSH0 REVERT JUMPDEST PUSH0 PUSH0 REVERT JUMPDEST PUSH0 PUSH0 REVERT JUMPDEST PUSH0 PUSH0 REVERT JUMPDEST PUSH0 PUSH1 0x1F NOT PUSH1 0x1F DUP4 ADD AND SWAP1 POP SWAP2 SWAP1 POP JUMP JUMPDEST PUSH32 0x4E487B7100000000000000000000000000000000000000000000000000000000 PUSH0 MSTORE PUSH1 0x41 PUSH1 0x4 MSTORE PUSH1 0x24 PUSH0 REVERT JUMPDEST PUSH2 0x6B9 DUP3 PUSH2 0x673 JUMP JUMPDEST DUP2 ADD DUP2 DUP2 LT PUSH8 0xFFFFFFFFFFFFFFFF DUP3 GT OR ISZERO PUSH2 0x6D8 JUMPI PUSH2 0x6D7 PUSH2 0x683 JUMP JUMPDEST JUMPDEST DUP1 PUSH1 0x40 MSTORE POP POP POP JUMP JUMPDEST PUSH0 PUSH2 0x6EA PUSH2 0x65A JUMP JUMPDEST SWAP1 POP PUSH2 0x6F6 DUP3 DUP3 PUSH2 0x6B0 JUMP JUMPDEST SWAP2 SWAP1 POP JUMP JUMPDEST PUSH0 PUSH8 0xFFFFFFFFFFFFFFFF DUP3 GT ISZERO PUSH2 0x715 JUMPI PUSH2 0x714 PUSH2 0x683 JUMP JUMPDEST JUMPDEST PUSH2 0x71E DUP3 PUSH2 0x673 JUMP JUMPDEST SWAP1 POP PUSH1 0x20 DUP2 ADD SWAP1 POP SWAP2 SWAP1 POP JUMP JUMPDEST DUP3 DUP2 DUP4 CALLDATACOPY PUSH0 DUP4 DUP4 ADD MSTORE POP POP POP JUMP JUMPDEST PUSH0 PUSH2 0x74B PUSH2 0x746 DUP5 PUSH2 0x6FB JUMP JUMPDEST PUSH2 0x6E1 JUMP JUMPDEST SWAP1 POP DUP3 DUP2 MSTORE PUSH1 0x20 DUP2 ADD DUP5 DUP5 DUP5 ADD GT ISZERO PUSH2 0x767 JUMPI PUSH2 0x766 PUSH2 0x66F JUMP JUMPDEST JUMPDEST PUSH2 0x772 DUP5 DUP3 DUP6 PUSH2 0x72B JUMP JUMPDEST POP SWAP4 SWAP3 POP POP POP JUMP JUMPDEST PUSH0 DUP3 PUSH1 0x1F DUP4 ADD SLT PUSH2 0x78E JUMPI PUSH2 0x78D PUSH2 0x66B JUMP JUMPDEST JUMPDEST DUP2 CALLDATALOAD PUSH2 0x79E DUP5 DUP3 PUSH1 0x20 DUP7 ADD PUSH2 0x739 JUMP JUMPDEST SWAP2 POP POP SWAP3 SWAP2 POP POP JUMP JUMPDEST PUSH0 PUSH1 0x20 DUP3 DUP5 SUB SLT ISZERO PUSH2 0x7BC JUMPI PUSH2 0x7BB PUSH2 0x663 JUMP JUMPDEST JUMPDEST PUSH0 DUP3 ADD CALLDATALOAD PUSH8 0xFFFFFFFFFFFFFFFF DUP2 GT ISZERO PUSH2 0x7D9 JUMPI PUSH2 0x7D8 PUSH2 0x667 JUMP JUMPDEST JUMPDEST PUSH2 0x7E5 DUP5 DUP3 DUP6 ADD PUSH2 0x77A JUMP JUMPDEST SWAP2 POP POP SWAP3 SWAP2 POP POP JUMP JUMPDEST PUSH0 DUP2 MLOAD SWAP1 POP SWAP2 SWAP1 POP JUMP JUMPDEST PUSH0 DUP3 DUP3 MSTORE PUSH1 0x20 DUP3 ADD SWAP1 POP SWAP3 SWAP2 POP POP JUMP JUMPDEST DUP3 DUP2 DUP4 MCOPY PUSH0 DUP4 DUP4 ADD MSTORE POP POP POP JUMP JUMPDEST PUSH0 PUSH2 0x820 DUP3 PUSH2 0x7EE JUMP JUMPDEST PUSH2 0x82A DUP2 DUP6 PUSH2 0x7F8 JUMP JUMPDEST SWAP4 POP PUSH2 0x83A DUP2 DUP6 PUSH1 0x20 DUP7 ADD PUSH2 0x808 JUMP JUMPDEST PUSH2 0x843 DUP2 PUSH2 0x673 JUMP JUMPDEST DUP5 ADD SWAP2 POP POP SWAP3 SWAP2 POP POP JUMP JUMPDEST PUSH0 PUSH1 0x20 DUP3 ADD SWAP1 POP DUP2 DUP2 SUB PUSH0 DUP4 ADD MSTORE PUSH2 0x866 DUP2 DUP5 PUSH2 0x816 JUMP JUMPDEST SWAP1 POP SWAP3 SWAP2 POP POP JUMP JUMPDEST PUSH32 0x496E70757420737472696E6720697320656D7074790000000000000000000000 PUSH0 DUP3 ADD MSTORE POP JUMP JUMPDEST PUSH0 PUSH2 0x8A2 PUSH1 0x15 DUP4 PUSH2 0x7F8 JUMP JUMPDEST SWAP2 POP PUSH2 0x8AD DUP3 PUSH2 0x86E JUMP JUMPDEST PUSH1 0x20 DUP3 ADD SWAP1 POP SWAP2 SWAP1 POP JUMP JUMPDEST PUSH0 PUSH1 0x20 DUP3 ADD SWAP1 POP DUP2 DUP2 SUB PUSH0 DUP4 ADD MSTORE PUSH2 0x8CF DUP2 PUSH2 0x896 JUMP JUMPDEST SWAP1 POP SWAP2 SWAP1 POP JUMP JUMPDEST PUSH0 DUP2 SWAP1 POP SWAP2 SWAP1 POP JUMP JUMPDEST PUSH32 0x4E487B7100000000000000000000000000000000000000000000000000000000 PUSH0 MSTORE PUSH1 0x12 PUSH1 0x4 MSTORE PUSH1 0x24 PUSH0 REVERT JUMPDEST PUSH32 0x4E487B7100000000000000000000000000000000000000000000000000000000 PUSH0 MSTORE PUSH1 0x11 PUSH1 0x4 MSTORE PUSH1 0x24 PUSH0 REVERT JUMPDEST PUSH0 PUSH2 0x943 DUP3 PUSH2 0x8D6 JUMP JUMPDEST SWAP2 POP PUSH2 0x94E DUP4 PUSH2 0x8D6 JUMP JUMPDEST SWAP3 POP DUP3 PUSH2 0x95E JUMPI PUSH2 0x95D PUSH2 0x8DF JUMP JUMPDEST JUMPDEST DUP3 DUP3 DIV SWAP1 POP SWAP3 SWAP2 POP POP JUMP JUMPDEST PUSH0 PUSH2 0x973 DUP3 PUSH2 0x8D6 JUMP JUMPDEST SWAP2 POP PUSH2 0x97E DUP4 PUSH2 0x8D6 JUMP JUMPDEST SWAP3 POP DUP3 DUP3 SUB SWAP1 POP DUP2 DUP2 GT ISZERO PUSH2 0x996 JUMPI PUSH2 0x995 PUSH2 0x90C JUMP JUMPDEST JUMPDEST SWAP3 SWAP2 POP POP JUMP JUMPDEST PUSH32 0x4E487B7100000000000000000000000000000000000000000000000000000000 PUSH0 MSTORE PUSH1 0x32 PUSH1 0x4 MSTORE PUSH1 0x24 PUSH0 REVERT JUMPDEST PUSH0 PUSH2 0x9D3 DUP3 PUSH2 0x8D6 JUMP JUMPDEST SWAP2 POP PUSH32 0xFFFFFFFFFFFFFFFFFFFFFFFFFFFFFFFFFFFFFFFFFFFFFFFFFFFFFFFFFFFFFFFF DUP3 SUB PUSH2 0xA05 JUMPI PUSH2 0xA04 PUSH2 0x90C JUMP JUMPDEST JUMPDEST PUSH1 0x1 DUP3 ADD SWAP1 POP SWAP2 SWAP1 POP JUMP JUMPDEST PUSH0 DUP2 SWAP1 POP SWAP2 SWAP1 POP JUMP JUMPDEST PUSH0 PUSH2 0xA23 DUP3 PUSH2 0xA10 JUMP JUMPDEST SWAP2 POP PUSH32 0x8000000000000000000000000000000000000000000000000000000000000000 DUP3 SUB PUSH2 0xA55 JUMPI PUSH2 0xA54 PUSH2 0x90C JUMP JUMPDEST JUMPDEST PUSH1 0x1 DUP3 SUB SWAP1 POP SWAP2 SWAP1 POP JUMP INVALID LOG2 PUSH5 0x6970667358 0x22 SLT KECCAK256 DIV EXTCODEHASH 0xCA 0xF7 0x1F LOG3 ORIGIN SWAP11 RETURNDATASIZE PUSH11 0xEBCD0CC9E69D7ACB940FCE SSTORE 0x4E BLOBBASEFEE PUSH2 0x3347 NUMBER 0xAC RETURNDATACOPY 0xB2 0x24 PUSH5 0x736F6C6343 STOP ADDMOD 0x1E STOP CALLER "
		},
		"gasEstimates": {
			"creation": {
				"codeDepositCost": "542000",
				"executionCost": "573",
				"totalCost": "542573"
			},
			"external": {
				"reverse1(string)": "infinite",
				"reverse2(string)": "infinite",
				"reverse3(string)": "infinite",
				"reverse4(string)": "infinite"
			}
		},
		"methodIdentifiers": {
			"reverse1(string)": "9b09bcaa",
			"reverse2(string)": "6dfc0152",
			"reverse3(string)": "0d31b3bc",
			"reverse4(string)": "ca65d54b"
		}
	},
	"abi": [
		{
			"inputs": [
				{
					"internalType": "string",
					"name": "str",
					"type": "string"
				}
			],
			"name": "reverse1",
			"outputs": [
				{
					"internalType": "string",
					"name": "",
					"type": "string"
				}
			],
			"stateMutability": "pure",
			"type": "function"
		},
		{
			"inputs": [
				{
					"internalType": "string",
					"name": "str2",
					"type": "string"
				}
			],
			"name": "reverse2",
			"outputs": [
				{
					"internalType": "string",
					"name": "",
					"type": "string"
				}
			],
			"stateMutability": "pure",
			"type": "function"
		},
		{
			"inputs": [
				{
					"internalType": "string",
					"name": "str3",
					"type": "string"
				}
			],
			"name": "reverse3",
			"outputs": [
				{
					"internalType": "string",
					"name": "",
					"type": "string"
				}
			],
			"stateMutability": "pure",
			"type": "function"
		},
		{
			"inputs": [
				{
					"internalType": "string",
					"name": "str3",
					"type": "string"
				}
			],
			"name": "reverse4",
			"outputs": [
				{
					"internalType": "string",
					"name": "",
					"type": "string"
				}
			],
			"stateMutability": "pure",
			"type": "function"
		}
	]
}