{
	"data": {
		"bytecode": {
			"linkReferences": {},
			"object": "608060405234801561000f575f5ffd5b5060015f60405161001f90610152565b90815260200160405180910390208190555060055f604051610040906101b0565b908152602001604051809103902081905550600a5f6040516100619061020e565b90815260200160405180910390208190555060325f6040516100829061026c565b90815260200160405180910390208190555060645f6040516100a3906102ca565b9081526020016040518091039020819055506101f45f6040516100c590610328565b9081526020016040518091039020819055506103e85f6040516100e790610386565b90815260200160405180910390208190555061039a565b5f81905092915050565b7f49000000000000000000000000000000000000000000000000000000000000005f82015250565b5f61013c6001836100fe565b915061014782610108565b600182019050919050565b5f61015c82610130565b9150819050919050565b7f56000000000000000000000000000000000000000000000000000000000000005f82015250565b5f61019a6001836100fe565b91506101a582610166565b600182019050919050565b5f6101ba8261018e565b9150819050919050565b7f58000000000000000000000000000000000000000000000000000000000000005f82015250565b5f6101f86001836100fe565b9150610203826101c4565b600182019050919050565b5f610218826101ec565b9150819050919050565b7f4c000000000000000000000000000000000000000000000000000000000000005f82015250565b5f6102566001836100fe565b915061026182610222565b600182019050919050565b5f6102768261024a565b9150819050919050565b7f43000000000000000000000000000000000000000000000000000000000000005f82015250565b5f6102b46001836100fe565b91506102bf82610280565b600182019050919050565b5f6102d4826102a8565b9150819050919050565b7f44000000000000000000000000000000000000000000000000000000000000005f82015250565b5f6103126001836100fe565b915061031d826102de565b600182019050919050565b5f61033282610306565b9150819050919050565b7f4d000000000000000000000000000000000000000000000000000000000000005f82015250565b5f6103706001836100fe565b915061037b8261033c565b600182019050919050565b5f61039082610364565b9150819050919050565b610bef806103a75f395ff3fe608060405234801561000f575f5ffd5b5060043610610029575f3560e01c8063f3edc5a11461002d575b5f5ffd5b6100476004803603810190610042919061085e565b61005d565b60405161005491906108bd565b60405180910390f35b5f5f8290505f8151116100a5576040517f08c379a000000000000000000000000000000000000000000000000000000000815260040161009c90610930565b60405180910390fd5b5f5f5f90505b8251811015610404575f600167ffffffffffffffff8111156100d0576100cf61073a565b5b6040519080825280601f01601f1916602001820160405280156101025781602001600182028036833780820191505090505b5090508382815181106101185761011761094e565b5b602001015160f81c60f81b815f815181106101365761013561094e565b5b60200101907effffffffffffffffffffffffffffffffffffffffffffffffffffffffffffff191690815f1a9053505f8190506001855161017691906109a8565b83036101ac575f8160405161018b9190610a2d565b908152602001604051809103902054846101a59190610a4c565b93506103ef565b5f600167ffffffffffffffff8111156101c8576101c761073a565b5b6040519080825280601f01601f1916602001820160405280156101fa5781602001600182028036833780820191505090505b5090508560018561020b9190610a8d565b8151811061021c5761021b61094e565b5b602001015160f81c60f81b815f8151811061023a5761023961094e565b5b60200101907effffffffffffffffffffffffffffffffffffffffffffffffffffffffffffff191690815f1a9053505f8190506102aa6040518060400160405280601581526020017f53544152542043414c202d2d2d2d2d2d2d2d2d2d2d000000000000000000000081525061040f565b6102b38361040f565b6102bc8161040f565b6102ea6102e55f856040516102d19190610a2d565b9081526020016040518091039020546104a8565b61040f565b6103186103135f836040516102ff9190610a2d565b9081526020016040518091039020546104a8565b61040f565b5f816040516103279190610a2d565b9081526020016040518091039020545f846040516103459190610a2d565b90815260200160405180910390205410156103c0575f836040516103699190610a2d565b9081526020016040518091039020545f826040516103879190610a2d565b9081526020016040518091039020546103a091906109a8565b866103ab9190610a4c565b955084806103b890610ac0565b9550506103ec565b5f836040516103cf9190610a2d565b908152602001604051809103902054866103e99190610a4c565b95505b50505b505080806103fc90610ac0565b9150506100ab565b508092505050919050565b6104a5816040516024016104239190610b3f565b6040516020818303038152906040527f41304fac000000000000000000000000000000000000000000000000000000007bffffffffffffffffffffffffffffffffffffffffffffffffffffffff19166020820180517bffffffffffffffffffffffffffffffffffffffffffffffffffffffff8381831617835250505050610572565b50565b60605f60016104b68461058c565b0190505f8167ffffffffffffffff8111156104d4576104d361073a565b5b6040519080825280601f01601f1916602001820160405280156105065781602001600182028036833780820191505090505b5090505f82602083010190505b600115610567578080600190039150507f3031323334353637383961626364656600000000000000000000000000000000600a86061a8153600a858161055c5761055b610b5f565b5b0494505f8503610513575b819350505050919050565b610589816105816106dd6106fc565b63ffffffff16565b50565b5f5f5f90507a184f03e93ff9f4daa797ed6e38ed64bf6a1f01000000000000000083106105e8577a184f03e93ff9f4daa797ed6e38ed64bf6a1f01000000000000000083816105de576105dd610b5f565b5b0492506040810190505b6d04ee2d6d415b85acef81000000008310610625576d04ee2d6d415b85acef8100000000838161061b5761061a610b5f565b5b0492506020810190505b662386f26fc10000831061065457662386f26fc10000838161064a57610649610b5f565b5b0492506010810190505b6305f5e100831061067d576305f5e100838161067357610672610b5f565b5b0492506008810190505b61271083106106a257612710838161069857610697610b5f565b5b0492506004810190505b606483106106c557606483816106bb576106ba610b5f565b5b0492506002810190505b600a83106106d4576001810190505b80915050919050565b5f6a636f6e736f6c652e6c6f6790505f5f835160208501845afa505050565b610707819050919050565b61070f610b8c565b565b5f604051905090565b5f5ffd5b5f5ffd5b5f5ffd5b5f5ffd5b5f601f19601f8301169050919050565b7f4e487b71000000000000000000000000000000000000000000000000000000005f52604160045260245ffd5b6107708261072a565b810181811067ffffffffffffffff8211171561078f5761078e61073a565b5b80604052505050565b5f6107a1610711565b90506107ad8282610767565b919050565b5f67ffffffffffffffff8211156107cc576107cb61073a565b5b6107d58261072a565b9050602081019050919050565b828183375f83830152505050565b5f6108026107fd846107b2565b610798565b90508281526020810184848401111561081e5761081d610726565b5b6108298482856107e2565b509392505050565b5f82601f83011261084557610844610722565b5b81356108558482602086016107f0565b91505092915050565b5f602082840312156108735761087261071a565b5b5f82013567ffffffffffffffff8111156108905761088f61071e565b5b61089c84828501610831565b91505092915050565b5f819050919050565b6108b7816108a5565b82525050565b5f6020820190506108d05f8301846108ae565b92915050565b5f82825260208201905092915050565b7f696e707574206e756c6c000000000000000000000000000000000000000000005f82015250565b5f61091a600a836108d6565b9150610925826108e6565b602082019050919050565b5f6020820190508181035f8301526109478161090e565b9050919050565b7f4e487b71000000000000000000000000000000000000000000000000000000005f52603260045260245ffd5b7f4e487b71000000000000000000000000000000000000000000000000000000005f52601160045260245ffd5b5f6109b2826108a5565b91506109bd836108a5565b92508282039050818111156109d5576109d461097b565b5b92915050565b5f81519050919050565b5f81905092915050565b8281835e5f83830152505050565b5f610a07826109db565b610a1181856109e5565b9350610a218185602086016109ef565b80840191505092915050565b5f610a3882846109fd565b915081905092915050565b5f819050919050565b5f610a5682610a43565b9150610a6183610a43565b92508282019050828112155f8312168382125f841215161715610a8757610a8661097b565b5b92915050565b5f610a97826108a5565b9150610aa2836108a5565b9250828201905080821115610aba57610ab961097b565b5b92915050565b5f610aca826108a5565b91507fffffffffffffffffffffffffffffffffffffffffffffffffffffffffffffffff8203610afc57610afb61097b565b5b600182019050919050565b5f610b11826109db565b610b1b81856108d6565b9350610b2b8185602086016109ef565b610b348161072a565b840191505092915050565b5f6020820190508181035f830152610b578184610b07565b905092915050565b7f4e487b71000000000000000000000000000000000000000000000000000000005f52601260045260245ffd5b7f4e487b71000000000000000000000000000000000000000000000000000000005f52605160045260245ffdfea264697066735822122052cbae57b9158cd34e9ce3076266ee46cb3ca242f4a9202cb63c70f72967a3ff64736f6c634300081e0033",
			"opcodes": "PUSH1 0x80 PUSH1 0x40 MSTORE CALLVALUE DUP1 ISZERO PUSH2 0xF JUMPI PUSH0 PUSH0 REVERT JUMPDEST POP PUSH1 0x1 PUSH0 PUSH1 0x40 MLOAD PUSH2 0x1F SWAP1 PUSH2 0x152 JUMP JUMPDEST SWAP1 DUP2 MSTORE PUSH1 0x20 ADD PUSH1 0x40 MLOAD DUP1 SWAP2 SUB SWAP1 KECCAK256 DUP2 SWAP1 SSTORE POP PUSH1 0x5 PUSH0 PUSH1 0x40 MLOAD PUSH2 0x40 SWAP1 PUSH2 0x1B0 JUMP JUMPDEST SWAP1 DUP2 MSTORE PUSH1 0x20 ADD PUSH1 0x40 MLOAD DUP1 SWAP2 SUB SWAP1 KECCAK256 DUP2 SWAP1 SSTORE POP PUSH1 0xA PUSH0 PUSH1 0x40 MLOAD PUSH2 0x61 SWAP1 PUSH2 0x20E JUMP JUMPDEST SWAP1 DUP2 MSTORE PUSH1 0x20 ADD PUSH1 0x40 MLOAD DUP1 SWAP2 SUB SWAP1 KECCAK256 DUP2 SWAP1 SSTORE POP PUSH1 0x32 PUSH0 PUSH1 0x40 MLOAD PUSH2 0x82 SWAP1 PUSH2 0x26C JUMP JUMPDEST SWAP1 DUP2 MSTORE PUSH1 0x20 ADD PUSH1 0x40 MLOAD DUP1 SWAP2 SUB SWAP1 KECCAK256 DUP2 SWAP1 SSTORE POP PUSH1 0x64 PUSH0 PUSH1 0x40 MLOAD PUSH2 0xA3 SWAP1 PUSH2 0x2CA JUMP JUMPDEST SWAP1 DUP2 MSTORE PUSH1 0x20 ADD PUSH1 0x40 MLOAD DUP1 SWAP2 SUB SWAP1 KECCAK256 DUP2 SWAP1 SSTORE POP PUSH2 0x1F4 PUSH0 PUSH1 0x40 MLOAD PUSH2 0xC5 SWAP1 PUSH2 0x328 JUMP JUMPDEST SWAP1 DUP2 MSTORE PUSH1 0x20 ADD PUSH1 0x40 MLOAD DUP1 SWAP2 SUB SWAP1 KECCAK256 DUP2 SWAP1 SSTORE POP PUSH2 0x3E8 PUSH0 PUSH1 0x40 MLOAD PUSH2 0xE7 SWAP1 PUSH2 0x386 JUMP JUMPDEST SWAP1 DUP2 MSTORE PUSH1 0x20 ADD PUSH1 0x40 MLOAD DUP1 SWAP2 SUB SWAP1 KECCAK256 DUP2 SWAP1 SSTORE POP PUSH2 0x39A JUMP JUMPDEST PUSH0 DUP2 SWAP1 POP SWAP3 SWAP2 POP POP JUMP JUMPDEST PUSH32 0x4900000000000000000000000000000000000000000000000000000000000000 PUSH0 DUP3 ADD MSTORE POP JUMP JUMPDEST PUSH0 PUSH2 0x13C PUSH1 0x1 DUP4 PUSH2 0xFE JUMP JUMPDEST SWAP2 POP PUSH2 0x147 DUP3 PUSH2 0x108 JUMP JUMPDEST PUSH1 0x1 DUP3 ADD SWAP1 POP SWAP2 SWAP1 POP JUMP JUMPDEST PUSH0 PUSH2 0x15C DUP3 PUSH2 0x130 JUMP JUMPDEST SWAP2 POP DUP2 SWAP1 POP SWAP2 SWAP1 POP JUMP JUMPDEST PUSH32 0x5600000000000000000000000000000000000000000000000000000000000000 PUSH0 DUP3 ADD MSTORE POP JUMP JUMPDEST PUSH0 PUSH2 0x19A PUSH1 0x1 DUP4 PUSH2 0xFE JUMP JUMPDEST SWAP2 POP PUSH2 0x1A5 DUP3 PUSH2 0x166 JUMP JUMPDEST PUSH1 0x1 DUP3 ADD SWAP1 POP SWAP2 SWAP1 POP JUMP JUMPDEST PUSH0 PUSH2 0x1BA DUP3 PUSH2 0x18E JUMP JUMPDEST SWAP2 POP DUP2 SWAP1 POP SWAP2 SWAP1 POP JUMP JUMPDEST PUSH32 0x5800000000000000000000000000000000000000000000000000000000000000 PUSH0 DUP3 ADD MSTORE POP JUMP JUMPDEST PUSH0 PUSH2 0x1F8 PUSH1 0x1 DUP4 PUSH2 0xFE JUMP JUMPDEST SWAP2 POP PUSH2 0x203 DUP3 PUSH2 0x1C4 JUMP JUMPDEST PUSH1 0x1 DUP3 ADD SWAP1 POP SWAP2 SWAP1 POP JUMP JUMPDEST PUSH0 PUSH2 0x218 DUP3 PUSH2 0x1EC JUMP JUMPDEST SWAP2 POP DUP2 SWAP1 POP SWAP2 SWAP1 POP JUMP JUMPDEST PUSH32 0x4C00000000000000000000000000000000000000000000000000000000000000 PUSH0 DUP3 ADD MSTORE POP JUMP JUMPDEST PUSH0 PUSH2 0x256 PUSH1 0x1 DUP4 PUSH2 0xFE JUMP JUMPDEST SWAP2 POP PUSH2 0x261 DUP3 PUSH2 0x222 JUMP JUMPDEST PUSH1 0x1 DUP3 ADD SWAP1 POP SWAP2 SWAP1 POP JUMP JUMPDEST PUSH0 PUSH2 0x276 DUP3 PUSH2 0x24A JUMP JUMPDEST SWAP2 POP DUP2 SWAP1 POP SWAP2 SWAP1 POP JUMP JUMPDEST PUSH32 0x4300000000000000000000000000000000000000000000000000000000000000 PUSH0 DUP3 ADD MSTORE POP JUMP JUMPDEST PUSH0 PUSH2 0x2B4 PUSH1 0x1 DUP4 PUSH2 0xFE JUMP JUMPDEST SWAP2 POP PUSH2 0x2BF DUP3 PUSH2 0x280 JUMP JUMPDEST PUSH1 0x1 DUP3 ADD SWAP1 POP SWAP2 SWAP1 POP JUMP JUMPDEST PUSH0 PUSH2 0x2D4 DUP3 PUSH2 0x2A8 JUMP JUMPDEST SWAP2 POP DUP2 SWAP1 POP SWAP2 SWAP1 POP JUMP JUMPDEST PUSH32 0x4400000000000000000000000000000000000000000000000000000000000000 PUSH0 DUP3 ADD MSTORE POP JUMP JUMPDEST PUSH0 PUSH2 0x312 PUSH1 0x1 DUP4 PUSH2 0xFE JUMP JUMPDEST SWAP2 POP PUSH2 0x31D DUP3 PUSH2 0x2DE JUMP JUMPDEST PUSH1 0x1 DUP3 ADD SWAP1 POP SWAP2 SWAP1 POP JUMP JUMPDEST PUSH0 PUSH2 0x332 DUP3 PUSH2 0x306 JUMP JUMPDEST SWAP2 POP DUP2 SWAP1 POP SWAP2 SWAP1 POP JUMP JUMPDEST PUSH32 0x4D00000000000000000000000000000000000000000000000000000000000000 PUSH0 DUP3 ADD MSTORE POP JUMP JUMPDEST PUSH0 PUSH2 0x370 PUSH1 0x1 DUP4 PUSH2 0xFE JUMP JUMPDEST SWAP2 POP PUSH2 0x37B DUP3 PUSH2 0x33C JUMP JUMPDEST PUSH1 0x1 DUP3 ADD SWAP1 POP SWAP2 SWAP1 POP JUMP JUMPDEST PUSH0 PUSH2 0x390 DUP3 PUSH2 0x364 JUMP JUMPDEST SWAP2 POP DUP2 SWAP1 POP SWAP2 SWAP1 POP JUMP JUMPDEST PUSH2 0xBEF DUP1 PUSH2 0x3A7 PUSH0 CODECOPY PUSH0 RETURN INVALID PUSH1 0x80 PUSH1 0x40 MSTORE CALLVALUE DUP1 ISZERO PUSH2 0xF JUMPI PUSH0 PUSH0 REVERT JUMPDEST POP PUSH1 0x4 CALLDATASIZE LT PUSH2 0x29 JUMPI PUSH0 CALLDATALOAD PUSH1 0xE0 SHR DUP1 PUSH4 0xF3EDC5A1 EQ PUSH2 0x2D JUMPI JUMPDEST PUSH0 PUSH0 REVERT JUMPDEST PUSH2 0x47 PUSH1 0x4 DUP1 CALLDATASIZE SUB DUP2 ADD SWAP1 PUSH2 0x42 SWAP2 SWAP1 PUSH2 0x85E JUMP JUMPDEST PUSH2 0x5D JUMP JUMPDEST PUSH1 0x40 MLOAD PUSH2 0x54 SWAP2 SWAP1 PUSH2 0x8BD JUMP JUMPDEST PUSH1 0x40 MLOAD DUP1 SWAP2 SUB SWAP1 RETURN JUMPDEST PUSH0 PUSH0 DUP3 SWAP1 POP PUSH0 DUP2 MLOAD GT PUSH2 0xA5 JUMPI PUSH1 0x40 MLOAD PUSH32 0x8C379A000000000000000000000000000000000000000000000000000000000 DUP2 MSTORE PUSH1 0x4 ADD PUSH2 0x9C SWAP1 PUSH2 0x930 JUMP JUMPDEST PUSH1 0x40 MLOAD DUP1 SWAP2 SUB SWAP1 REVERT JUMPDEST PUSH0 PUSH0 PUSH0 SWAP1 POP JUMPDEST DUP3 MLOAD DUP2 LT ISZERO PUSH2 0x404 JUMPI PUSH0 PUSH1 0x1 PUSH8 0xFFFFFFFFFFFFFFFF DUP2 GT ISZERO PUSH2 0xD0 JUMPI PUSH2 0xCF PUSH2 0x73A JUMP JUMPDEST JUMPDEST PUSH1 0x40 MLOAD SWAP1 DUP1 DUP3 MSTORE DUP1 PUSH1 0x1F ADD PUSH1 0x1F NOT AND PUSH1 0x20 ADD DUP3 ADD PUSH1 0x40 MSTORE DUP1 ISZERO PUSH2 0x102 JUMPI DUP2 PUSH1 0x20 ADD PUSH1 0x1 DUP3 MUL DUP1 CALLDATASIZE DUP4 CALLDATACOPY DUP1 DUP3 ADD SWAP2 POP POP SWAP1 POP JUMPDEST POP SWAP1 POP DUP4 DUP3 DUP2 MLOAD DUP2 LT PUSH2 0x118 JUMPI PUSH2 0x117 PUSH2 0x94E JUMP JUMPDEST JUMPDEST PUSH1 0x20 ADD ADD MLOAD PUSH1 0xF8 SHR PUSH1 0xF8 SHL DUP2 PUSH0 DUP2 MLOAD DUP2 LT PUSH2 0x136 JUMPI PUSH2 0x135 PUSH2 0x94E JUMP JUMPDEST JUMPDEST PUSH1 0x20 ADD ADD SWAP1 PUSH31 0xFFFFFFFFFFFFFFFFFFFFFFFFFFFFFFFFFFFFFFFFFFFFFFFFFFFFFFFFFFFFFF NOT AND SWAP1 DUP2 PUSH0 BYTE SWAP1 MSTORE8 POP PUSH0 DUP2 SWAP1 POP PUSH1 0x1 DUP6 MLOAD PUSH2 0x176 SWAP2 SWAP1 PUSH2 0x9A8 JUMP JUMPDEST DUP4 SUB PUSH2 0x1AC JUMPI PUSH0 DUP2 PUSH1 0x40 MLOAD PUSH2 0x18B SWAP2 SWAP1 PUSH2 0xA2D JUMP JUMPDEST SWAP1 DUP2 MSTORE PUSH1 0x20 ADD PUSH1 0x40 MLOAD DUP1 SWAP2 SUB SWAP1 KECCAK256 SLOAD DUP5 PUSH2 0x1A5 SWAP2 SWAP1 PUSH2 0xA4C JUMP JUMPDEST SWAP4 POP PUSH2 0x3EF JUMP JUMPDEST PUSH0 PUSH1 0x1 PUSH8 0xFFFFFFFFFFFFFFFF DUP2 GT ISZERO PUSH2 0x1C8 JUMPI PUSH2 0x1C7 PUSH2 0x73A JUMP JUMPDEST JUMPDEST PUSH1 0x40 MLOAD SWAP1 DUP1 DUP3 MSTORE DUP1 PUSH1 0x1F ADD PUSH1 0x1F NOT AND PUSH1 0x20 ADD DUP3 ADD PUSH1 0x40 MSTORE DUP1 ISZERO PUSH2 0x1FA JUMPI DUP2 PUSH1 0x20 ADD PUSH1 0x1 DUP3 MUL DUP1 CALLDATASIZE DUP4 CALLDATACOPY DUP1 DUP3 ADD SWAP2 POP POP SWAP1 POP JUMPDEST POP SWAP1 POP DUP6 PUSH1 0x1 DUP6 PUSH2 0x20B SWAP2 SWAP1 PUSH2 0xA8D JUMP JUMPDEST DUP2 MLOAD DUP2 LT PUSH2 0x21C JUMPI PUSH2 0x21B PUSH2 0x94E JUMP JUMPDEST JUMPDEST PUSH1 0x20 ADD ADD MLOAD PUSH1 0xF8 SHR PUSH1 0xF8 SHL DUP2 PUSH0 DUP2 MLOAD DUP2 LT PUSH2 0x23A JUMPI PUSH2 0x239 PUSH2 0x94E JUMP JUMPDEST JUMPDEST PUSH1 0x20 ADD ADD SWAP1 PUSH31 0xFFFFFFFFFFFFFFFFFFFFFFFFFFFFFFFFFFFFFFFFFFFFFFFFFFFFFFFFFFFFFF NOT AND SWAP1 DUP2 PUSH0 BYTE SWAP1 MSTORE8 POP PUSH0 DUP2 SWAP1 POP PUSH2 0x2AA PUSH1 0x40 MLOAD DUP1 PUSH1 0x40 ADD PUSH1 0x40 MSTORE DUP1 PUSH1 0x15 DUP2 MSTORE PUSH1 0x20 ADD PUSH32 0x53544152542043414C202D2D2D2D2D2D2D2D2D2D2D0000000000000000000000 DUP2 MSTORE POP PUSH2 0x40F JUMP JUMPDEST PUSH2 0x2B3 DUP4 PUSH2 0x40F JUMP JUMPDEST PUSH2 0x2BC DUP2 PUSH2 0x40F JUMP JUMPDEST PUSH2 0x2EA PUSH2 0x2E5 PUSH0 DUP6 PUSH1 0x40 MLOAD PUSH2 0x2D1 SWAP2 SWAP1 PUSH2 0xA2D JUMP JUMPDEST SWAP1 DUP2 MSTORE PUSH1 0x20 ADD PUSH1 0x40 MLOAD DUP1 SWAP2 SUB SWAP1 KECCAK256 SLOAD PUSH2 0x4A8 JUMP JUMPDEST PUSH2 0x40F JUMP JUMPDEST PUSH2 0x318 PUSH2 0x313 PUSH0 DUP4 PUSH1 0x40 MLOAD PUSH2 0x2FF SWAP2 SWAP1 PUSH2 0xA2D JUMP JUMPDEST SWAP1 DUP2 MSTORE PUSH1 0x20 ADD PUSH1 0x40 MLOAD DUP1 SWAP2 SUB SWAP1 KECCAK256 SLOAD PUSH2 0x4A8 JUMP JUMPDEST PUSH2 0x40F JUMP JUMPDEST PUSH0 DUP2 PUSH1 0x40 MLOAD PUSH2 0x327 SWAP2 SWAP1 PUSH2 0xA2D JUMP JUMPDEST SWAP1 DUP2 MSTORE PUSH1 0x20 ADD PUSH1 0x40 MLOAD DUP1 SWAP2 SUB SWAP1 KECCAK256 SLOAD PUSH0 DUP5 PUSH1 0x40 MLOAD PUSH2 0x345 SWAP2 SWAP1 PUSH2 0xA2D JUMP JUMPDEST SWAP1 DUP2 MSTORE PUSH1 0x20 ADD PUSH1 0x40 MLOAD DUP1 SWAP2 SUB SWAP1 KECCAK256 SLOAD LT ISZERO PUSH2 0x3C0 JUMPI PUSH0 DUP4 PUSH1 0x40 MLOAD PUSH2 0x369 SWAP2 SWAP1 PUSH2 0xA2D JUMP JUMPDEST SWAP1 DUP2 MSTORE PUSH1 0x20 ADD PUSH1 0x40 MLOAD DUP1 SWAP2 SUB SWAP1 KECCAK256 SLOAD PUSH0 DUP3 PUSH1 0x40 MLOAD PUSH2 0x387 SWAP2 SWAP1 PUSH2 0xA2D JUMP JUMPDEST SWAP1 DUP2 MSTORE PUSH1 0x20 ADD PUSH1 0x40 MLOAD DUP1 SWAP2 SUB SWAP1 KECCAK256 SLOAD PUSH2 0x3A0 SWAP2 SWAP1 PUSH2 0x9A8 JUMP JUMPDEST DUP7 PUSH2 0x3AB SWAP2 SWAP1 PUSH2 0xA4C JUMP JUMPDEST SWAP6 POP DUP5 DUP1 PUSH2 0x3B8 SWAP1 PUSH2 0xAC0 JUMP JUMPDEST SWAP6 POP POP PUSH2 0x3EC JUMP JUMPDEST PUSH0 DUP4 PUSH1 0x40 MLOAD PUSH2 0x3CF SWAP2 SWAP1 PUSH2 0xA2D JUMP JUMPDEST SWAP1 DUP2 MSTORE PUSH1 0x20 ADD PUSH1 0x40 MLOAD DUP1 SWAP2 SUB SWAP1 KECCAK256 SLOAD DUP7 PUSH2 0x3E9 SWAP2 SWAP1 PUSH2 0xA4C JUMP JUMPDEST SWAP6 POP JUMPDEST POP POP JUMPDEST POP POP DUP1 DUP1 PUSH2 0x3FC SWAP1 PUSH2 0xAC0 JUMP JUMPDEST SWAP2 POP POP PUSH2 0xAB JUMP JUMPDEST POP DUP1 SWAP3 POP POP POP SWAP2 SWAP1 POP JUMP JUMPDEST PUSH2 0x4A5 DUP2 PUSH1 0x40 MLOAD PUSH1 0x24 ADD PUSH2 0x423 SWAP2 SWAP1 PUSH2 0xB3F JUMP JUMPDEST PUSH1 0x40 MLOAD PUSH1 0x20 DUP2 DUP4 SUB SUB DUP2 MSTORE SWAP1 PUSH1 0x40 MSTORE PUSH32 0x41304FAC00000000000000000000000000000000000000000000000000000000 PUSH28 0xFFFFFFFFFFFFFFFFFFFFFFFFFFFFFFFFFFFFFFFFFFFFFFFFFFFFFFFF NOT AND PUSH1 0x20 DUP3 ADD DUP1 MLOAD PUSH28 0xFFFFFFFFFFFFFFFFFFFFFFFFFFFFFFFFFFFFFFFFFFFFFFFFFFFFFFFF DUP4 DUP2 DUP4 AND OR DUP4 MSTORE POP POP POP POP PUSH2 0x572 JUMP JUMPDEST POP JUMP JUMPDEST PUSH1 0x60 PUSH0 PUSH1 0x1 PUSH2 0x4B6 DUP5 PUSH2 0x58C JUMP JUMPDEST ADD SWAP1 POP PUSH0 DUP2 PUSH8 0xFFFFFFFFFFFFFFFF DUP2 GT ISZERO PUSH2 0x4D4 JUMPI PUSH2 0x4D3 PUSH2 0x73A JUMP JUMPDEST JUMPDEST PUSH1 0x40 MLOAD SWAP1 DUP1 DUP3 MSTORE DUP1 PUSH1 0x1F ADD PUSH1 0x1F NOT AND PUSH1 0x20 ADD DUP3 ADD PUSH1 0x40 MSTORE DUP1 ISZERO PUSH2 0x506 JUMPI DUP2 PUSH1 0x20 ADD PUSH1 0x1 DUP3 MUL DUP1 CALLDATASIZE DUP4 CALLDATACOPY DUP1 DUP3 ADD SWAP2 POP POP SWAP1 POP JUMPDEST POP SWAP1 POP PUSH0 DUP3 PUSH1 0x20 DUP4 ADD ADD SWAP1 POP JUMPDEST PUSH1 0x1 ISZERO PUSH2 0x567 JUMPI DUP1 DUP1 PUSH1 0x1 SWAP1 SUB SWAP2 POP POP PUSH32 0x3031323334353637383961626364656600000000000000000000000000000000 PUSH1 0xA DUP7 MOD BYTE DUP2 MSTORE8 PUSH1 0xA DUP6 DUP2 PUSH2 0x55C JUMPI PUSH2 0x55B PUSH2 0xB5F JUMP JUMPDEST JUMPDEST DIV SWAP5 POP PUSH0 DUP6 SUB PUSH2 0x513 JUMPI JUMPDEST DUP2 SWAP4 POP POP POP POP SWAP2 SWAP1 POP JUMP JUMPDEST PUSH2 0x589 DUP2 PUSH2 0x581 PUSH2 0x6DD PUSH2 0x6FC JUMP JUMPDEST PUSH4 0xFFFFFFFF AND JUMP JUMPDEST POP JUMP JUMPDEST PUSH0 PUSH0 PUSH0 SWAP1 POP PUSH27 0x184F03E93FF9F4DAA797ED6E38ED64BF6A1F010000000000000000 DUP4 LT PUSH2 0x5E8 JUMPI PUSH27 0x184F03E93FF9F4DAA797ED6E38ED64BF6A1F010000000000000000 DUP4 DUP2 PUSH2 0x5DE JUMPI PUSH2 0x5DD PUSH2 0xB5F JUMP JUMPDEST JUMPDEST DIV SWAP3 POP PUSH1 0x40 DUP2 ADD SWAP1 POP JUMPDEST PUSH14 0x4EE2D6D415B85ACEF8100000000 DUP4 LT PUSH2 0x625 JUMPI PUSH14 0x4EE2D6D415B85ACEF8100000000 DUP4 DUP2 PUSH2 0x61B JUMPI PUSH2 0x61A PUSH2 0xB5F JUMP JUMPDEST JUMPDEST DIV SWAP3 POP PUSH1 0x20 DUP2 ADD SWAP1 POP JUMPDEST PUSH7 0x2386F26FC10000 DUP4 LT PUSH2 0x654 JUMPI PUSH7 0x2386F26FC10000 DUP4 DUP2 PUSH2 0x64A JUMPI PUSH2 0x649 PUSH2 0xB5F JUMP JUMPDEST JUMPDEST DIV SWAP3 POP PUSH1 0x10 DUP2 ADD SWAP1 POP JUMPDEST PUSH4 0x5F5E100 DUP4 LT PUSH2 0x67D JUMPI PUSH4 0x5F5E100 DUP4 DUP2 PUSH2 0x673 JUMPI PUSH2 0x672 PUSH2 0xB5F JUMP JUMPDEST JUMPDEST DIV SWAP3 POP PUSH1 0x8 DUP2 ADD SWAP1 POP JUMPDEST PUSH2 0x2710 DUP4 LT PUSH2 0x6A2 JUMPI PUSH2 0x2710 DUP4 DUP2 PUSH2 0x698 JUMPI PUSH2 0x697 PUSH2 0xB5F JUMP JUMPDEST JUMPDEST DIV SWAP3 POP PUSH1 0x4 DUP2 ADD SWAP1 POP JUMPDEST PUSH1 0x64 DUP4 LT PUSH2 0x6C5 JUMPI PUSH1 0x64 DUP4 DUP2 PUSH2 0x6BB JUMPI PUSH2 0x6BA PUSH2 0xB5F JUMP JUMPDEST JUMPDEST DIV SWAP3 POP PUSH1 0x2 DUP2 ADD SWAP1 POP JUMPDEST PUSH1 0xA DUP4 LT PUSH2 0x6D4 JUMPI PUSH1 0x1 DUP2 ADD SWAP1 POP JUMPDEST DUP1 SWAP2 POP POP SWAP2 SWAP1 POP JUMP JUMPDEST PUSH0 PUSH11 0x636F6E736F6C652E6C6F67 SWAP1 POP PUSH0 PUSH0 DUP4 MLOAD PUSH1 0x20 DUP6 ADD DUP5 GAS STATICCALL POP POP POP JUMP JUMPDEST PUSH2 0x707 DUP2 SWAP1 POP SWAP2 SWAP1 POP JUMP JUMPDEST PUSH2 0x70F PUSH2 0xB8C JUMP JUMPDEST JUMP JUMPDEST PUSH0 PUSH1 0x40 MLOAD SWAP1 POP SWAP1 JUMP JUMPDEST PUSH0 PUSH0 REVERT JUMPDEST PUSH0 PUSH0 REVERT JUMPDEST PUSH0 PUSH0 REVERT JUMPDEST PUSH0 PUSH0 REVERT JUMPDEST PUSH0 PUSH1 0x1F NOT PUSH1 0x1F DUP4 ADD AND SWAP1 POP SWAP2 SWAP1 POP JUMP JUMPDEST PUSH32 0x4E487B7100000000000000000000000000000000000000000000000000000000 PUSH0 MSTORE PUSH1 0x41 PUSH1 0x4 MSTORE PUSH1 0x24 PUSH0 REVERT JUMPDEST PUSH2 0x770 DUP3 PUSH2 0x72A JUMP JUMPDEST DUP2 ADD DUP2 DUP2 LT PUSH8 0xFFFFFFFFFFFFFFFF DUP3 GT OR ISZERO PUSH2 0x78F JUMPI PUSH2 0x78E PUSH2 0x73A JUMP JUMPDEST JUMPDEST DUP1 PUSH1 0x40 MSTORE POP POP POP JUMP JUMPDEST PUSH0 PUSH2 0x7A1 PUSH2 0x711 JUMP JUMPDEST SWAP1 POP PUSH2 0x7AD DUP3 DUP3 PUSH2 0x767 JUMP JUMPDEST SWAP2 SWAP1 POP JUMP JUMPDEST PUSH0 PUSH8 0xFFFFFFFFFFFFFFFF DUP3 GT ISZERO PUSH2 0x7CC JUMPI PUSH2 0x7CB PUSH2 0x73A JUMP JUMPDEST JUMPDEST PUSH2 0x7D5 DUP3 PUSH2 0x72A JUMP JUMPDEST SWAP1 POP PUSH1 0x20 DUP2 ADD SWAP1 POP SWAP2 SWAP1 POP JUMP JUMPDEST DUP3 DUP2 DUP4 CALLDATACOPY PUSH0 DUP4 DUP4 ADD MSTORE POP POP POP JUMP JUMPDEST PUSH0 PUSH2 0x802 PUSH2 0x7FD DUP5 PUSH2 0x7B2 JUMP JUMPDEST PUSH2 0x798 JUMP JUMPDEST SWAP1 POP DUP3 DUP2 MSTORE PUSH1 0x20 DUP2 ADD DUP5 DUP5 DUP5 ADD GT ISZERO PUSH2 0x81E JUMPI PUSH2 0x81D PUSH2 0x726 JUMP JUMPDEST JUMPDEST PUSH2 0x829 DUP5 DUP3 DUP6 PUSH2 0x7E2 JUMP JUMPDEST POP SWAP4 SWAP3 POP POP POP JUMP JUMPDEST PUSH0 DUP3 PUSH1 0x1F DUP4 ADD SLT PUSH2 0x845 JUMPI PUSH2 0x844 PUSH2 0x722 JUMP JUMPDEST JUMPDEST DUP2 CALLDATALOAD PUSH2 0x855 DUP5 DUP3 PUSH1 0x20 DUP7 ADD PUSH2 0x7F0 JUMP JUMPDEST SWAP2 POP POP SWAP3 SWAP2 POP POP JUMP JUMPDEST PUSH0 PUSH1 0x20 DUP3 DUP5 SUB SLT ISZERO PUSH2 0x873 JUMPI PUSH2 0x872 PUSH2 0x71A JUMP JUMPDEST JUMPDEST PUSH0 DUP3 ADD CALLDATALOAD PUSH8 0xFFFFFFFFFFFFFFFF DUP2 GT ISZERO PUSH2 0x890 JUMPI PUSH2 0x88F PUSH2 0x71E JUMP JUMPDEST JUMPDEST PUSH2 0x89C DUP5 DUP3 DUP6 ADD PUSH2 0x831 JUMP JUMPDEST SWAP2 POP POP SWAP3 SWAP2 POP POP JUMP JUMPDEST PUSH0 DUP2 SWAP1 POP SWAP2 SWAP1 POP JUMP JUMPDEST PUSH2 0x8B7 DUP2 PUSH2 0x8A5 JUMP JUMPDEST DUP3 MSTORE POP POP JUMP JUMPDEST PUSH0 PUSH1 0x20 DUP3 ADD SWAP1 POP PUSH2 0x8D0 PUSH0 DUP4 ADD DUP5 PUSH2 0x8AE JUMP JUMPDEST SWAP3 SWAP2 POP POP JUMP JUMPDEST PUSH0 DUP3 DUP3 MSTORE PUSH1 0x20 DUP3 ADD SWAP1 POP SWAP3 SWAP2 POP POP JUMP JUMPDEST PUSH32 0x696E707574206E756C6C00000000000000000000000000000000000000000000 PUSH0 DUP3 ADD MSTORE POP JUMP JUMPDEST PUSH0 PUSH2 0x91A PUSH1 0xA DUP4 PUSH2 0x8D6 JUMP JUMPDEST SWAP2 POP PUSH2 0x925 DUP3 PUSH2 0x8E6 JUMP JUMPDEST PUSH1 0x20 DUP3 ADD SWAP1 POP SWAP2 SWAP1 POP JUMP JUMPDEST PUSH0 PUSH1 0x20 DUP3 ADD SWAP1 POP DUP2 DUP2 SUB PUSH0 DUP4 ADD MSTORE PUSH2 0x947 DUP2 PUSH2 0x90E JUMP JUMPDEST SWAP1 POP SWAP2 SWAP1 POP JUMP JUMPDEST PUSH32 0x4E487B7100000000000000000000000000000000000000000000000000000000 PUSH0 MSTORE PUSH1 0x32 PUSH1 0x4 MSTORE PUSH1 0x24 PUSH0 REVERT JUMPDEST PUSH32 0x4E487B7100000000000000000000000000000000000000000000000000000000 PUSH0 MSTORE PUSH1 0x11 PUSH1 0x4 MSTORE PUSH1 0x24 PUSH0 REVERT JUMPDEST PUSH0 PUSH2 0x9B2 DUP3 PUSH2 0x8A5 JUMP JUMPDEST SWAP2 POP PUSH2 0x9BD DUP4 PUSH2 0x8A5 JUMP JUMPDEST SWAP3 POP DUP3 DUP3 SUB SWAP1 POP DUP2 DUP2 GT ISZERO PUSH2 0x9D5 JUMPI PUSH2 0x9D4 PUSH2 0x97B JUMP JUMPDEST JUMPDEST SWAP3 SWAP2 POP POP JUMP JUMPDEST PUSH0 DUP2 MLOAD SWAP1 POP SWAP2 SWAP1 POP JUMP JUMPDEST PUSH0 DUP2 SWAP1 POP SWAP3 SWAP2 POP POP JUMP JUMPDEST DUP3 DUP2 DUP4 MCOPY PUSH0 DUP4 DUP4 ADD MSTORE POP POP POP JUMP JUMPDEST PUSH0 PUSH2 0xA07 DUP3 PUSH2 0x9DB JUMP JUMPDEST PUSH2 0xA11 DUP2 DUP6 PUSH2 0x9E5 JUMP JUMPDEST SWAP4 POP PUSH2 0xA21 DUP2 DUP6 PUSH1 0x20 DUP7 ADD PUSH2 0x9EF JUMP JUMPDEST DUP1 DUP5 ADD SWAP2 POP POP SWAP3 SWAP2 POP POP JUMP JUMPDEST PUSH0 PUSH2 0xA38 DUP3 DUP5 PUSH2 0x9FD JUMP JUMPDEST SWAP2 POP DUP2 SWAP1 POP SWAP3 SWAP2 POP POP JUMP JUMPDEST PUSH0 DUP2 SWAP1 POP SWAP2 SWAP1 POP JUMP JUMPDEST PUSH0 PUSH2 0xA56 DUP3 PUSH2 0xA43 JUMP JUMPDEST SWAP2 POP PUSH2 0xA61 DUP4 PUSH2 0xA43 JUMP JUMPDEST SWAP3 POP DUP3 DUP3 ADD SWAP1 POP DUP3 DUP2 SLT ISZERO PUSH0 DUP4 SLT AND DUP4 DUP3 SLT PUSH0 DUP5 SLT ISZERO AND OR ISZERO PUSH2 0xA87 JUMPI PUSH2 0xA86 PUSH2 0x97B JUMP JUMPDEST JUMPDEST SWAP3 SWAP2 POP POP JUMP JUMPDEST PUSH0 PUSH2 0xA97 DUP3 PUSH2 0x8A5 JUMP JUMPDEST SWAP2 POP PUSH2 0xAA2 DUP4 PUSH2 0x8A5 JUMP JUMPDEST SWAP3 POP DUP3 DUP3 ADD SWAP1 POP DUP1 DUP3 GT ISZERO PUSH2 0xABA JUMPI PUSH2 0xAB9 PUSH2 0x97B JUMP JUMPDEST JUMPDEST SWAP3 SWAP2 POP POP JUMP JUMPDEST PUSH0 PUSH2 0xACA DUP3 PUSH2 0x8A5 JUMP JUMPDEST SWAP2 POP PUSH32 0xFFFFFFFFFFFFFFFFFFFFFFFFFFFFFFFFFFFFFFFFFFFFFFFFFFFFFFFFFFFFFFFF DUP3 SUB PUSH2 0xAFC JUMPI PUSH2 0xAFB PUSH2 0x97B JUMP JUMPDEST JUMPDEST PUSH1 0x1 DUP3 ADD SWAP1 POP SWAP2 SWAP1 POP JUMP JUMPDEST PUSH0 PUSH2 0xB11 DUP3 PUSH2 0x9DB JUMP JUMPDEST PUSH2 0xB1B DUP2 DUP6 PUSH2 0x8D6 JUMP JUMPDEST SWAP4 POP PUSH2 0xB2B DUP2 DUP6 PUSH1 0x20 DUP7 ADD PUSH2 0x9EF JUMP JUMPDEST PUSH2 0xB34 DUP2 PUSH2 0x72A JUMP JUMPDEST DUP5 ADD SWAP2 POP POP SWAP3 SWAP2 POP POP JUMP JUMPDEST PUSH0 PUSH1 0x20 DUP3 ADD SWAP1 POP DUP2 DUP2 SUB PUSH0 DUP4 ADD MSTORE PUSH2 0xB57 DUP2 DUP5 PUSH2 0xB07 JUMP JUMPDEST SWAP1 POP SWAP3 SWAP2 POP POP JUMP JUMPDEST PUSH32 0x4E487B7100000000000000000000000000000000000000000000000000000000 PUSH0 MSTORE PUSH1 0x12 PUSH1 0x4 MSTORE PUSH1 0x24 PUSH0 REVERT JUMPDEST PUSH32 0x4E487B7100000000000000000000000000000000000000000000000000000000 PUSH0 MSTORE PUSH1 0x51 PUSH1 0x4 MSTORE PUSH1 0x24 PUSH0 REVERT INVALID LOG2 PUSH5 0x6970667358 0x22 SLT KECCAK256 MSTORE 0xCB 0xAE JUMPI 0xB9 ISZERO DUP13 0xD3 0x4E SWAP13 CALLF 0x762 PUSH7 0xEE46CB3CA242F4 0xA9 KECCAK256 0x2C 0xB6 EXTCODECOPY PUSH17 0xF72967A3FF64736F6C634300081E003300 "
		},
		"gasEstimates": {
			"creation": {
				"codeDepositCost": "611000",
				"executionCost": "infinite",
				"totalCost": "infinite"
			},
			"external": {
				"rton(string)": "infinite"
			}
		},
		"methodIdentifiers": {
			"rton(string)": "f3edc5a1"
		}
	},
	"abi": [
		{
			"inputs": [],
			"stateMutability": "nonpayable",
			"type": "constructor"
		},
		{
			"inputs": [
				{
					"internalType": "string",
					"name": "r",
					"type": "string"
				}
			],
			"name": "rton",
			"outputs": [
				{
					"internalType": "uint256",
					"name": "",
					"type": "uint256"
				}
			],
			"stateMutability": "view",
			"type": "function"
		}
	]
}