{
	"data": {
		"bytecode": {
			"linkReferences": {},
			"object": "608060405260016003553480156013575f5ffd5b50610f31806100215f395ff3fe608060405234801561000f575f5ffd5b5060043610610060575f3560e01c80633477ee2e14610064578063805265e5146100945780638a19c8bc146100c4578063a2cdd471146100e2578063b9830ff114610100578063fc36e15b1461010a575b5f5ffd5b61007e6004803603810190610079919061062c565b610126565b60405161008b91906106c7565b60405180910390f35b6100ae60048036038101906100a99190610813565b6101cc565b6040516100bb9190610869565b60405180910390f35b6100cc610235565b6040516100d99190610869565b60405180910390f35b6100ea61023b565b6040516100f79190610985565b60405180910390f35b61010861030f565b005b610124600480360381019061011f9190610813565b6103d3565b005b60018181548110610135575f80fd5b905f5260205f20015f91509050805461014d906109d2565b80601f0160208091040260200160405190810160405280929190818152602001828054610179906109d2565b80156101c45780601f1061019b576101008083540402835291602001916101c4565b820191905f5260205f20905b8154815290600101906020018083116101a757829003601f168201915b505050505081565b5f5f825111610210576040517f08c379a000000000000000000000000000000000000000000000000000000000815260040161020790610a4c565b60405180910390fd5b5f8260405161021f9190610aa4565b9081526020016040518091039020549050919050565b60035481565b60606001805480602002602001604051908101604052809291908181526020015f905b82821015610306578382905f5260205f2001805461027b906109d2565b80601f01602080910402602001604051908101604052809291908181526020018280546102a7906109d2565b80156102f25780601f106102c9576101008083540402835291602001916102f2565b820191905f5260205f20905b8154815290600101906020018083116102d557829003601f168201915b50505050508152602001906001019061025e565b50505050905090565b5f5f90505b600180549050811015610369575f6001828154811061033657610335610aba565b5b905f5260205f200160405161034b9190610b79565b90815260200160405180910390205f90558080600101915050610314565b5060015f610377919061054f565b60035f81548092919061038990610bbc565b91905055503373ffffffffffffffffffffffffffffffffffffffff167f228f92ec26e13162839f371e7bd4899b2ee397cf7a7ab9c93273a2e92030e8d260405160405180910390a2565b60035460025f3373ffffffffffffffffffffffffffffffffffffffff1673ffffffffffffffffffffffffffffffffffffffff1681526020019081526020015f205403610454576040517f08c379a000000000000000000000000000000000000000000000000000000000815260040161044b90610c4d565b60405180910390fd5b60015f826040516104659190610aa4565b90815260200160405180910390205f8282546104819190610c6b565b9250508190555060035460025f3373ffffffffffffffffffffffffffffffffffffffff1673ffffffffffffffffffffffffffffffffffffffff1681526020019081526020015f2081905550600181908060018154018082558091505060019003905f5260205f20015f9091909190915090816104fd9190610e2c565b503373ffffffffffffffffffffffffffffffffffffffff167fcb6783276e8a4347387036bbfea000268f0a4b1f8c46ac79980609f2af8d2acd8260405161054491906106c7565b60405180910390a250565b5080545f8255905f5260205f209081019061056a919061056d565b50565b5b8082111561058c575f81816105839190610590565b5060010161056e565b5090565b50805461059c906109d2565b5f825580601f106105ad57506105ca565b601f0160209004905f5260205f20908101906105c991906105cd565b5b50565b5b808211156105e4575f815f9055506001016105ce565b5090565b5f604051905090565b5f5ffd5b5f5ffd5b5f819050919050565b61060b816105f9565b8114610615575f5ffd5b50565b5f8135905061062681610602565b92915050565b5f60208284031215610641576106406105f1565b5b5f61064e84828501610618565b91505092915050565b5f81519050919050565b5f82825260208201905092915050565b8281835e5f83830152505050565b5f601f19601f8301169050919050565b5f61069982610657565b6106a38185610661565b93506106b3818560208601610671565b6106bc8161067f565b840191505092915050565b5f6020820190508181035f8301526106df818461068f565b905092915050565b5f5ffd5b5f5ffd5b7f4e487b71000000000000000000000000000000000000000000000000000000005f52604160045260245ffd5b6107258261067f565b810181811067ffffffffffffffff82111715610744576107436106ef565b5b80604052505050565b5f6107566105e8565b9050610762828261071c565b919050565b5f67ffffffffffffffff821115610781576107806106ef565b5b61078a8261067f565b9050602081019050919050565b828183375f83830152505050565b5f6107b76107b284610767565b61074d565b9050828152602081018484840111156107d3576107d26106eb565b5b6107de848285610797565b509392505050565b5f82601f8301126107fa576107f96106e7565b5b813561080a8482602086016107a5565b91505092915050565b5f60208284031215610828576108276105f1565b5b5f82013567ffffffffffffffff811115610845576108446105f5565b5b610851848285016107e6565b91505092915050565b610863816105f9565b82525050565b5f60208201905061087c5f83018461085a565b92915050565b5f81519050919050565b5f82825260208201905092915050565b5f819050602082019050919050565b5f82825260208201905092915050565b5f6108c582610657565b6108cf81856108ab565b93506108df818560208601610671565b6108e88161067f565b840191505092915050565b5f6108fe83836108bb565b905092915050565b5f602082019050919050565b5f61091c82610882565b610926818561088c565b9350836020820285016109388561089c565b805f5b85811015610973578484038952815161095485826108f3565b945061095f83610906565b925060208a0199505060018101905061093b565b50829750879550505050505092915050565b5f6020820190508181035f83015261099d8184610912565b905092915050565b7f4e487b71000000000000000000000000000000000000000000000000000000005f52602260045260245ffd5b5f60028204905060018216806109e957607f821691505b6020821081036109fc576109fb6109a5565b5b50919050565b7f43616e646964617465206e616d652063616e6e6f7420626520656d70747900005f82015250565b5f610a36601e83610661565b9150610a4182610a02565b602082019050919050565b5f6020820190508181035f830152610a6381610a2a565b9050919050565b5f81905092915050565b5f610a7e82610657565b610a888185610a6a565b9350610a98818560208601610671565b80840191505092915050565b5f610aaf8284610a74565b915081905092915050565b7f4e487b71000000000000000000000000000000000000000000000000000000005f52603260045260245ffd5b5f819050815f5260205f209050919050565b5f8154610b05816109d2565b610b0f8186610a6a565b9450600182165f8114610b295760018114610b3e57610b70565b60ff1983168652811515820286019350610b70565b610b4785610ae7565b5f5b83811015610b6857815481890152600182019150602081019050610b49565b838801955050505b50505092915050565b5f610b848284610af9565b915081905092915050565b7f4e487b71000000000000000000000000000000000000000000000000000000005f52601160045260245ffd5b5f610bc6826105f9565b91507fffffffffffffffffffffffffffffffffffffffffffffffffffffffffffffffff8203610bf857610bf7610b8f565b5b600182019050919050565b7f796f75206861766520616c726561647920766f746564000000000000000000005f82015250565b5f610c37601683610661565b9150610c4282610c03565b602082019050919050565b5f6020820190508181035f830152610c6481610c2b565b9050919050565b5f610c75826105f9565b9150610c80836105f9565b9250828201905080821115610c9857610c97610b8f565b5b92915050565b5f6020601f8301049050919050565b5f82821b905092915050565b5f60088302610ce87fffffffffffffffffffffffffffffffffffffffffffffffffffffffffffffffff82610cad565b610cf28683610cad565b95508019841693508086168417925050509392505050565b5f819050919050565b5f610d2d610d28610d23846105f9565b610d0a565b6105f9565b9050919050565b5f819050919050565b610d4683610d13565b610d5a610d5282610d34565b848454610cb9565b825550505050565b5f5f905090565b610d71610d62565b610d7c818484610d3d565b505050565b5b81811015610d9f57610d945f82610d69565b600181019050610d82565b5050565b601f821115610de457610db581610ae7565b610dbe84610c9e565b81016020851015610dcd578190505b610de1610dd985610c9e565b830182610d81565b50505b505050565b5f82821c905092915050565b5f610e045f1984600802610de9565b1980831691505092915050565b5f610e1c8383610df5565b9150826002028217905092915050565b610e3582610657565b67ffffffffffffffff811115610e4e57610e4d6106ef565b5b610e5882546109d2565b610e63828285610da3565b5f60209050601f831160018114610e94575f8415610e82578287015190505b610e8c8582610e11565b865550610ef3565b601f198416610ea286610ae7565b5f5b82811015610ec957848901518255600182019150602085019450602081019050610ea4565b86831015610ee65784890151610ee2601f891682610df5565b8355505b6001600288020188555050505b50505050505056fea26469706673582212207288ec280f0c50aec6bdca7adbd1cdd040abbf90b071eacce6ea8fb4f3e1d56a64736f6c634300081e0033",
			"opcodes": "PUSH1 0x80 PUSH1 0x40 MSTORE PUSH1 0x1 PUSH1 0x3 SSTORE CALLVALUE DUP1 ISZERO PUSH1 0x13 JUMPI PUSH0 PUSH0 REVERT JUMPDEST POP PUSH2 0xF31 DUP1 PUSH2 0x21 PUSH0 CODECOPY PUSH0 RETURN INVALID PUSH1 0x80 PUSH1 0x40 MSTORE CALLVALUE DUP1 ISZERO PUSH2 0xF JUMPI PUSH0 PUSH0 REVERT JUMPDEST POP PUSH1 0x4 CALLDATASIZE LT PUSH2 0x60 JUMPI PUSH0 CALLDATALOAD PUSH1 0xE0 SHR DUP1 PUSH4 0x3477EE2E EQ PUSH2 0x64 JUMPI DUP1 PUSH4 0x805265E5 EQ PUSH2 0x94 JUMPI DUP1 PUSH4 0x8A19C8BC EQ PUSH2 0xC4 JUMPI DUP1 PUSH4 0xA2CDD471 EQ PUSH2 0xE2 JUMPI DUP1 PUSH4 0xB9830FF1 EQ PUSH2 0x100 JUMPI DUP1 PUSH4 0xFC36E15B EQ PUSH2 0x10A JUMPI JUMPDEST PUSH0 PUSH0 REVERT JUMPDEST PUSH2 0x7E PUSH1 0x4 DUP1 CALLDATASIZE SUB DUP2 ADD SWAP1 PUSH2 0x79 SWAP2 SWAP1 PUSH2 0x62C JUMP JUMPDEST PUSH2 0x126 JUMP JUMPDEST PUSH1 0x40 MLOAD PUSH2 0x8B SWAP2 SWAP1 PUSH2 0x6C7 JUMP JUMPDEST PUSH1 0x40 MLOAD DUP1 SWAP2 SUB SWAP1 RETURN JUMPDEST PUSH2 0xAE PUSH1 0x4 DUP1 CALLDATASIZE SUB DUP2 ADD SWAP1 PUSH2 0xA9 SWAP2 SWAP1 PUSH2 0x813 JUMP JUMPDEST PUSH2 0x1CC JUMP JUMPDEST PUSH1 0x40 MLOAD PUSH2 0xBB SWAP2 SWAP1 PUSH2 0x869 JUMP JUMPDEST PUSH1 0x40 MLOAD DUP1 SWAP2 SUB SWAP1 RETURN JUMPDEST PUSH2 0xCC PUSH2 0x235 JUMP JUMPDEST PUSH1 0x40 MLOAD PUSH2 0xD9 SWAP2 SWAP1 PUSH2 0x869 JUMP JUMPDEST PUSH1 0x40 MLOAD DUP1 SWAP2 SUB SWAP1 RETURN JUMPDEST PUSH2 0xEA PUSH2 0x23B JUMP JUMPDEST PUSH1 0x40 MLOAD PUSH2 0xF7 SWAP2 SWAP1 PUSH2 0x985 JUMP JUMPDEST PUSH1 0x40 MLOAD DUP1 SWAP2 SUB SWAP1 RETURN JUMPDEST PUSH2 0x108 PUSH2 0x30F JUMP JUMPDEST STOP JUMPDEST PUSH2 0x124 PUSH1 0x4 DUP1 CALLDATASIZE SUB DUP2 ADD SWAP1 PUSH2 0x11F SWAP2 SWAP1 PUSH2 0x813 JUMP JUMPDEST PUSH2 0x3D3 JUMP JUMPDEST STOP JUMPDEST PUSH1 0x1 DUP2 DUP2 SLOAD DUP2 LT PUSH2 0x135 JUMPI PUSH0 DUP1 REVERT JUMPDEST SWAP1 PUSH0 MSTORE PUSH1 0x20 PUSH0 KECCAK256 ADD PUSH0 SWAP2 POP SWAP1 POP DUP1 SLOAD PUSH2 0x14D SWAP1 PUSH2 0x9D2 JUMP JUMPDEST DUP1 PUSH1 0x1F ADD PUSH1 0x20 DUP1 SWAP2 DIV MUL PUSH1 0x20 ADD PUSH1 0x40 MLOAD SWAP1 DUP2 ADD PUSH1 0x40 MSTORE DUP1 SWAP3 SWAP2 SWAP1 DUP2 DUP2 MSTORE PUSH1 0x20 ADD DUP3 DUP1 SLOAD PUSH2 0x179 SWAP1 PUSH2 0x9D2 JUMP JUMPDEST DUP1 ISZERO PUSH2 0x1C4 JUMPI DUP1 PUSH1 0x1F LT PUSH2 0x19B JUMPI PUSH2 0x100 DUP1 DUP4 SLOAD DIV MUL DUP4 MSTORE SWAP2 PUSH1 0x20 ADD SWAP2 PUSH2 0x1C4 JUMP JUMPDEST DUP3 ADD SWAP2 SWAP1 PUSH0 MSTORE PUSH1 0x20 PUSH0 KECCAK256 SWAP1 JUMPDEST DUP2 SLOAD DUP2 MSTORE SWAP1 PUSH1 0x1 ADD SWAP1 PUSH1 0x20 ADD DUP1 DUP4 GT PUSH2 0x1A7 JUMPI DUP3 SWAP1 SUB PUSH1 0x1F AND DUP3 ADD SWAP2 JUMPDEST POP POP POP POP POP DUP2 JUMP JUMPDEST PUSH0 PUSH0 DUP3 MLOAD GT PUSH2 0x210 JUMPI PUSH1 0x40 MLOAD PUSH32 0x8C379A000000000000000000000000000000000000000000000000000000000 DUP2 MSTORE PUSH1 0x4 ADD PUSH2 0x207 SWAP1 PUSH2 0xA4C JUMP JUMPDEST PUSH1 0x40 MLOAD DUP1 SWAP2 SUB SWAP1 REVERT JUMPDEST PUSH0 DUP3 PUSH1 0x40 MLOAD PUSH2 0x21F SWAP2 SWAP1 PUSH2 0xAA4 JUMP JUMPDEST SWAP1 DUP2 MSTORE PUSH1 0x20 ADD PUSH1 0x40 MLOAD DUP1 SWAP2 SUB SWAP1 KECCAK256 SLOAD SWAP1 POP SWAP2 SWAP1 POP JUMP JUMPDEST PUSH1 0x3 SLOAD DUP2 JUMP JUMPDEST PUSH1 0x60 PUSH1 0x1 DUP1 SLOAD DUP1 PUSH1 0x20 MUL PUSH1 0x20 ADD PUSH1 0x40 MLOAD SWAP1 DUP2 ADD PUSH1 0x40 MSTORE DUP1 SWAP3 SWAP2 SWAP1 DUP2 DUP2 MSTORE PUSH1 0x20 ADD PUSH0 SWAP1 JUMPDEST DUP3 DUP3 LT ISZERO PUSH2 0x306 JUMPI DUP4 DUP3 SWAP1 PUSH0 MSTORE PUSH1 0x20 PUSH0 KECCAK256 ADD DUP1 SLOAD PUSH2 0x27B SWAP1 PUSH2 0x9D2 JUMP JUMPDEST DUP1 PUSH1 0x1F ADD PUSH1 0x20 DUP1 SWAP2 DIV MUL PUSH1 0x20 ADD PUSH1 0x40 MLOAD SWAP1 DUP2 ADD PUSH1 0x40 MSTORE DUP1 SWAP3 SWAP2 SWAP1 DUP2 DUP2 MSTORE PUSH1 0x20 ADD DUP3 DUP1 SLOAD PUSH2 0x2A7 SWAP1 PUSH2 0x9D2 JUMP JUMPDEST DUP1 ISZERO PUSH2 0x2F2 JUMPI DUP1 PUSH1 0x1F LT PUSH2 0x2C9 JUMPI PUSH2 0x100 DUP1 DUP4 SLOAD DIV MUL DUP4 MSTORE SWAP2 PUSH1 0x20 ADD SWAP2 PUSH2 0x2F2 JUMP JUMPDEST DUP3 ADD SWAP2 SWAP1 PUSH0 MSTORE PUSH1 0x20 PUSH0 KECCAK256 SWAP1 JUMPDEST DUP2 SLOAD DUP2 MSTORE SWAP1 PUSH1 0x1 ADD SWAP1 PUSH1 0x20 ADD DUP1 DUP4 GT PUSH2 0x2D5 JUMPI DUP3 SWAP1 SUB PUSH1 0x1F AND DUP3 ADD SWAP2 JUMPDEST POP POP POP POP POP DUP2 MSTORE PUSH1 0x20 ADD SWAP1 PUSH1 0x1 ADD SWAP1 PUSH2 0x25E JUMP JUMPDEST POP POP POP POP SWAP1 POP SWAP1 JUMP JUMPDEST PUSH0 PUSH0 SWAP1 POP JUMPDEST PUSH1 0x1 DUP1 SLOAD SWAP1 POP DUP2 LT ISZERO PUSH2 0x369 JUMPI PUSH0 PUSH1 0x1 DUP3 DUP2 SLOAD DUP2 LT PUSH2 0x336 JUMPI PUSH2 0x335 PUSH2 0xABA JUMP JUMPDEST JUMPDEST SWAP1 PUSH0 MSTORE PUSH1 0x20 PUSH0 KECCAK256 ADD PUSH1 0x40 MLOAD PUSH2 0x34B SWAP2 SWAP1 PUSH2 0xB79 JUMP JUMPDEST SWAP1 DUP2 MSTORE PUSH1 0x20 ADD PUSH1 0x40 MLOAD DUP1 SWAP2 SUB SWAP1 KECCAK256 PUSH0 SWAP1 SSTORE DUP1 DUP1 PUSH1 0x1 ADD SWAP2 POP POP PUSH2 0x314 JUMP JUMPDEST POP PUSH1 0x1 PUSH0 PUSH2 0x377 SWAP2 SWAP1 PUSH2 0x54F JUMP JUMPDEST PUSH1 0x3 PUSH0 DUP2 SLOAD DUP1 SWAP3 SWAP2 SWAP1 PUSH2 0x389 SWAP1 PUSH2 0xBBC JUMP JUMPDEST SWAP2 SWAP1 POP SSTORE POP CALLER PUSH20 0xFFFFFFFFFFFFFFFFFFFFFFFFFFFFFFFFFFFFFFFF AND PUSH32 0x228F92EC26E13162839F371E7BD4899B2EE397CF7A7AB9C93273A2E92030E8D2 PUSH1 0x40 MLOAD PUSH1 0x40 MLOAD DUP1 SWAP2 SUB SWAP1 LOG2 JUMP JUMPDEST PUSH1 0x3 SLOAD PUSH1 0x2 PUSH0 CALLER PUSH20 0xFFFFFFFFFFFFFFFFFFFFFFFFFFFFFFFFFFFFFFFF AND PUSH20 0xFFFFFFFFFFFFFFFFFFFFFFFFFFFFFFFFFFFFFFFF AND DUP2 MSTORE PUSH1 0x20 ADD SWAP1 DUP2 MSTORE PUSH1 0x20 ADD PUSH0 KECCAK256 SLOAD SUB PUSH2 0x454 JUMPI PUSH1 0x40 MLOAD PUSH32 0x8C379A000000000000000000000000000000000000000000000000000000000 DUP2 MSTORE PUSH1 0x4 ADD PUSH2 0x44B SWAP1 PUSH2 0xC4D JUMP JUMPDEST PUSH1 0x40 MLOAD DUP1 SWAP2 SUB SWAP1 REVERT JUMPDEST PUSH1 0x1 PUSH0 DUP3 PUSH1 0x40 MLOAD PUSH2 0x465 SWAP2 SWAP1 PUSH2 0xAA4 JUMP JUMPDEST SWAP1 DUP2 MSTORE PUSH1 0x20 ADD PUSH1 0x40 MLOAD DUP1 SWAP2 SUB SWAP1 KECCAK256 PUSH0 DUP3 DUP3 SLOAD PUSH2 0x481 SWAP2 SWAP1 PUSH2 0xC6B JUMP JUMPDEST SWAP3 POP POP DUP2 SWAP1 SSTORE POP PUSH1 0x3 SLOAD PUSH1 0x2 PUSH0 CALLER PUSH20 0xFFFFFFFFFFFFFFFFFFFFFFFFFFFFFFFFFFFFFFFF AND PUSH20 0xFFFFFFFFFFFFFFFFFFFFFFFFFFFFFFFFFFFFFFFF AND DUP2 MSTORE PUSH1 0x20 ADD SWAP1 DUP2 MSTORE PUSH1 0x20 ADD PUSH0 KECCAK256 DUP2 SWAP1 SSTORE POP PUSH1 0x1 DUP2 SWAP1 DUP1 PUSH1 0x1 DUP2 SLOAD ADD DUP1 DUP3 SSTORE DUP1 SWAP2 POP POP PUSH1 0x1 SWAP1 SUB SWAP1 PUSH0 MSTORE PUSH1 0x20 PUSH0 KECCAK256 ADD PUSH0 SWAP1 SWAP2 SWAP1 SWAP2 SWAP1 SWAP2 POP SWAP1 DUP2 PUSH2 0x4FD SWAP2 SWAP1 PUSH2 0xE2C JUMP JUMPDEST POP CALLER PUSH20 0xFFFFFFFFFFFFFFFFFFFFFFFFFFFFFFFFFFFFFFFF AND PUSH32 0xCB6783276E8A4347387036BBFEA000268F0A4B1F8C46AC79980609F2AF8D2ACD DUP3 PUSH1 0x40 MLOAD PUSH2 0x544 SWAP2 SWAP1 PUSH2 0x6C7 JUMP JUMPDEST PUSH1 0x40 MLOAD DUP1 SWAP2 SUB SWAP1 LOG2 POP JUMP JUMPDEST POP DUP1 SLOAD PUSH0 DUP3 SSTORE SWAP1 PUSH0 MSTORE PUSH1 0x20 PUSH0 KECCAK256 SWAP1 DUP2 ADD SWAP1 PUSH2 0x56A SWAP2 SWAP1 PUSH2 0x56D JUMP JUMPDEST POP JUMP JUMPDEST JUMPDEST DUP1 DUP3 GT ISZERO PUSH2 0x58C JUMPI PUSH0 DUP2 DUP2 PUSH2 0x583 SWAP2 SWAP1 PUSH2 0x590 JUMP JUMPDEST POP PUSH1 0x1 ADD PUSH2 0x56E JUMP JUMPDEST POP SWAP1 JUMP JUMPDEST POP DUP1 SLOAD PUSH2 0x59C SWAP1 PUSH2 0x9D2 JUMP JUMPDEST PUSH0 DUP3 SSTORE DUP1 PUSH1 0x1F LT PUSH2 0x5AD JUMPI POP PUSH2 0x5CA JUMP JUMPDEST PUSH1 0x1F ADD PUSH1 0x20 SWAP1 DIV SWAP1 PUSH0 MSTORE PUSH1 0x20 PUSH0 KECCAK256 SWAP1 DUP2 ADD SWAP1 PUSH2 0x5C9 SWAP2 SWAP1 PUSH2 0x5CD JUMP JUMPDEST JUMPDEST POP JUMP JUMPDEST JUMPDEST DUP1 DUP3 GT ISZERO PUSH2 0x5E4 JUMPI PUSH0 DUP2 PUSH0 SWAP1 SSTORE POP PUSH1 0x1 ADD PUSH2 0x5CE JUMP JUMPDEST POP SWAP1 JUMP JUMPDEST PUSH0 PUSH1 0x40 MLOAD SWAP1 POP SWAP1 JUMP JUMPDEST PUSH0 PUSH0 REVERT JUMPDEST PUSH0 PUSH0 REVERT JUMPDEST PUSH0 DUP2 SWAP1 POP SWAP2 SWAP1 POP JUMP JUMPDEST PUSH2 0x60B DUP2 PUSH2 0x5F9 JUMP JUMPDEST DUP2 EQ PUSH2 0x615 JUMPI PUSH0 PUSH0 REVERT JUMPDEST POP JUMP JUMPDEST PUSH0 DUP2 CALLDATALOAD SWAP1 POP PUSH2 0x626 DUP2 PUSH2 0x602 JUMP JUMPDEST SWAP3 SWAP2 POP POP JUMP JUMPDEST PUSH0 PUSH1 0x20 DUP3 DUP5 SUB SLT ISZERO PUSH2 0x641 JUMPI PUSH2 0x640 PUSH2 0x5F1 JUMP JUMPDEST JUMPDEST PUSH0 PUSH2 0x64E DUP5 DUP3 DUP6 ADD PUSH2 0x618 JUMP JUMPDEST SWAP2 POP POP SWAP3 SWAP2 POP POP JUMP JUMPDEST PUSH0 DUP2 MLOAD SWAP1 POP SWAP2 SWAP1 POP JUMP JUMPDEST PUSH0 DUP3 DUP3 MSTORE PUSH1 0x20 DUP3 ADD SWAP1 POP SWAP3 SWAP2 POP POP JUMP JUMPDEST DUP3 DUP2 DUP4 MCOPY PUSH0 DUP4 DUP4 ADD MSTORE POP POP POP JUMP JUMPDEST PUSH0 PUSH1 0x1F NOT PUSH1 0x1F DUP4 ADD AND SWAP1 POP SWAP2 SWAP1 POP JUMP JUMPDEST PUSH0 PUSH2 0x699 DUP3 PUSH2 0x657 JUMP JUMPDEST PUSH2 0x6A3 DUP2 DUP6 PUSH2 0x661 JUMP JUMPDEST SWAP4 POP PUSH2 0x6B3 DUP2 DUP6 PUSH1 0x20 DUP7 ADD PUSH2 0x671 JUMP JUMPDEST PUSH2 0x6BC DUP2 PUSH2 0x67F JUMP JUMPDEST DUP5 ADD SWAP2 POP POP SWAP3 SWAP2 POP POP JUMP JUMPDEST PUSH0 PUSH1 0x20 DUP3 ADD SWAP1 POP DUP2 DUP2 SUB PUSH0 DUP4 ADD MSTORE PUSH2 0x6DF DUP2 DUP5 PUSH2 0x68F JUMP JUMPDEST SWAP1 POP SWAP3 SWAP2 POP POP JUMP JUMPDEST PUSH0 PUSH0 REVERT JUMPDEST PUSH0 PUSH0 REVERT JUMPDEST PUSH32 0x4E487B7100000000000000000000000000000000000000000000000000000000 PUSH0 MSTORE PUSH1 0x41 PUSH1 0x4 MSTORE PUSH1 0x24 PUSH0 REVERT JUMPDEST PUSH2 0x725 DUP3 PUSH2 0x67F JUMP JUMPDEST DUP2 ADD DUP2 DUP2 LT PUSH8 0xFFFFFFFFFFFFFFFF DUP3 GT OR ISZERO PUSH2 0x744 JUMPI PUSH2 0x743 PUSH2 0x6EF JUMP JUMPDEST JUMPDEST DUP1 PUSH1 0x40 MSTORE POP POP POP JUMP JUMPDEST PUSH0 PUSH2 0x756 PUSH2 0x5E8 JUMP JUMPDEST SWAP1 POP PUSH2 0x762 DUP3 DUP3 PUSH2 0x71C JUMP JUMPDEST SWAP2 SWAP1 POP JUMP JUMPDEST PUSH0 PUSH8 0xFFFFFFFFFFFFFFFF DUP3 GT ISZERO PUSH2 0x781 JUMPI PUSH2 0x780 PUSH2 0x6EF JUMP JUMPDEST JUMPDEST PUSH2 0x78A DUP3 PUSH2 0x67F JUMP JUMPDEST SWAP1 POP PUSH1 0x20 DUP2 ADD SWAP1 POP SWAP2 SWAP1 POP JUMP JUMPDEST DUP3 DUP2 DUP4 CALLDATACOPY PUSH0 DUP4 DUP4 ADD MSTORE POP POP POP JUMP JUMPDEST PUSH0 PUSH2 0x7B7 PUSH2 0x7B2 DUP5 PUSH2 0x767 JUMP JUMPDEST PUSH2 0x74D JUMP JUMPDEST SWAP1 POP DUP3 DUP2 MSTORE PUSH1 0x20 DUP2 ADD DUP5 DUP5 DUP5 ADD GT ISZERO PUSH2 0x7D3 JUMPI PUSH2 0x7D2 PUSH2 0x6EB JUMP JUMPDEST JUMPDEST PUSH2 0x7DE DUP5 DUP3 DUP6 PUSH2 0x797 JUMP JUMPDEST POP SWAP4 SWAP3 POP POP POP JUMP JUMPDEST PUSH0 DUP3 PUSH1 0x1F DUP4 ADD SLT PUSH2 0x7FA JUMPI PUSH2 0x7F9 PUSH2 0x6E7 JUMP JUMPDEST JUMPDEST DUP2 CALLDATALOAD PUSH2 0x80A DUP5 DUP3 PUSH1 0x20 DUP7 ADD PUSH2 0x7A5 JUMP JUMPDEST SWAP2 POP POP SWAP3 SWAP2 POP POP JUMP JUMPDEST PUSH0 PUSH1 0x20 DUP3 DUP5 SUB SLT ISZERO PUSH2 0x828 JUMPI PUSH2 0x827 PUSH2 0x5F1 JUMP JUMPDEST JUMPDEST PUSH0 DUP3 ADD CALLDATALOAD PUSH8 0xFFFFFFFFFFFFFFFF DUP2 GT ISZERO PUSH2 0x845 JUMPI PUSH2 0x844 PUSH2 0x5F5 JUMP JUMPDEST JUMPDEST PUSH2 0x851 DUP5 DUP3 DUP6 ADD PUSH2 0x7E6 JUMP JUMPDEST SWAP2 POP POP SWAP3 SWAP2 POP POP JUMP JUMPDEST PUSH2 0x863 DUP2 PUSH2 0x5F9 JUMP JUMPDEST DUP3 MSTORE POP POP JUMP JUMPDEST PUSH0 PUSH1 0x20 DUP3 ADD SWAP1 POP PUSH2 0x87C PUSH0 DUP4 ADD DUP5 PUSH2 0x85A JUMP JUMPDEST SWAP3 SWAP2 POP POP JUMP JUMPDEST PUSH0 DUP2 MLOAD SWAP1 POP SWAP2 SWAP1 POP JUMP JUMPDEST PUSH0 DUP3 DUP3 MSTORE PUSH1 0x20 DUP3 ADD SWAP1 POP SWAP3 SWAP2 POP POP JUMP JUMPDEST PUSH0 DUP2 SWAP1 POP PUSH1 0x20 DUP3 ADD SWAP1 POP SWAP2 SWAP1 POP JUMP JUMPDEST PUSH0 DUP3 DUP3 MSTORE PUSH1 0x20 DUP3 ADD SWAP1 POP SWAP3 SWAP2 POP POP JUMP JUMPDEST PUSH0 PUSH2 0x8C5 DUP3 PUSH2 0x657 JUMP JUMPDEST PUSH2 0x8CF DUP2 DUP6 PUSH2 0x8AB JUMP JUMPDEST SWAP4 POP PUSH2 0x8DF DUP2 DUP6 PUSH1 0x20 DUP7 ADD PUSH2 0x671 JUMP JUMPDEST PUSH2 0x8E8 DUP2 PUSH2 0x67F JUMP JUMPDEST DUP5 ADD SWAP2 POP POP SWAP3 SWAP2 POP POP JUMP JUMPDEST PUSH0 PUSH2 0x8FE DUP4 DUP4 PUSH2 0x8BB JUMP JUMPDEST SWAP1 POP SWAP3 SWAP2 POP POP JUMP JUMPDEST PUSH0 PUSH1 0x20 DUP3 ADD SWAP1 POP SWAP2 SWAP1 POP JUMP JUMPDEST PUSH0 PUSH2 0x91C DUP3 PUSH2 0x882 JUMP JUMPDEST PUSH2 0x926 DUP2 DUP6 PUSH2 0x88C JUMP JUMPDEST SWAP4 POP DUP4 PUSH1 0x20 DUP3 MUL DUP6 ADD PUSH2 0x938 DUP6 PUSH2 0x89C JUMP JUMPDEST DUP1 PUSH0 JUMPDEST DUP6 DUP2 LT ISZERO PUSH2 0x973 JUMPI DUP5 DUP5 SUB DUP10 MSTORE DUP2 MLOAD PUSH2 0x954 DUP6 DUP3 PUSH2 0x8F3 JUMP JUMPDEST SWAP5 POP PUSH2 0x95F DUP4 PUSH2 0x906 JUMP JUMPDEST SWAP3 POP PUSH1 0x20 DUP11 ADD SWAP10 POP POP PUSH1 0x1 DUP2 ADD SWAP1 POP PUSH2 0x93B JUMP JUMPDEST POP DUP3 SWAP8 POP DUP8 SWAP6 POP POP POP POP POP POP SWAP3 SWAP2 POP POP JUMP JUMPDEST PUSH0 PUSH1 0x20 DUP3 ADD SWAP1 POP DUP2 DUP2 SUB PUSH0 DUP4 ADD MSTORE PUSH2 0x99D DUP2 DUP5 PUSH2 0x912 JUMP JUMPDEST SWAP1 POP SWAP3 SWAP2 POP POP JUMP JUMPDEST PUSH32 0x4E487B7100000000000000000000000000000000000000000000000000000000 PUSH0 MSTORE PUSH1 0x22 PUSH1 0x4 MSTORE PUSH1 0x24 PUSH0 REVERT JUMPDEST PUSH0 PUSH1 0x2 DUP3 DIV SWAP1 POP PUSH1 0x1 DUP3 AND DUP1 PUSH2 0x9E9 JUMPI PUSH1 0x7F DUP3 AND SWAP2 POP JUMPDEST PUSH1 0x20 DUP3 LT DUP2 SUB PUSH2 0x9FC JUMPI PUSH2 0x9FB PUSH2 0x9A5 JUMP JUMPDEST JUMPDEST POP SWAP2 SWAP1 POP JUMP JUMPDEST PUSH32 0x43616E646964617465206E616D652063616E6E6F7420626520656D7074790000 PUSH0 DUP3 ADD MSTORE POP JUMP JUMPDEST PUSH0 PUSH2 0xA36 PUSH1 0x1E DUP4 PUSH2 0x661 JUMP JUMPDEST SWAP2 POP PUSH2 0xA41 DUP3 PUSH2 0xA02 JUMP JUMPDEST PUSH1 0x20 DUP3 ADD SWAP1 POP SWAP2 SWAP1 POP JUMP JUMPDEST PUSH0 PUSH1 0x20 DUP3 ADD SWAP1 POP DUP2 DUP2 SUB PUSH0 DUP4 ADD MSTORE PUSH2 0xA63 DUP2 PUSH2 0xA2A JUMP JUMPDEST SWAP1 POP SWAP2 SWAP1 POP JUMP JUMPDEST PUSH0 DUP2 SWAP1 POP SWAP3 SWAP2 POP POP JUMP JUMPDEST PUSH0 PUSH2 0xA7E DUP3 PUSH2 0x657 JUMP JUMPDEST PUSH2 0xA88 DUP2 DUP6 PUSH2 0xA6A JUMP JUMPDEST SWAP4 POP PUSH2 0xA98 DUP2 DUP6 PUSH1 0x20 DUP7 ADD PUSH2 0x671 JUMP JUMPDEST DUP1 DUP5 ADD SWAP2 POP POP SWAP3 SWAP2 POP POP JUMP JUMPDEST PUSH0 PUSH2 0xAAF DUP3 DUP5 PUSH2 0xA74 JUMP JUMPDEST SWAP2 POP DUP2 SWAP1 POP SWAP3 SWAP2 POP POP JUMP JUMPDEST PUSH32 0x4E487B7100000000000000000000000000000000000000000000000000000000 PUSH0 MSTORE PUSH1 0x32 PUSH1 0x4 MSTORE PUSH1 0x24 PUSH0 REVERT JUMPDEST PUSH0 DUP2 SWAP1 POP DUP2 PUSH0 MSTORE PUSH1 0x20 PUSH0 KECCAK256 SWAP1 POP SWAP2 SWAP1 POP JUMP JUMPDEST PUSH0 DUP2 SLOAD PUSH2 0xB05 DUP2 PUSH2 0x9D2 JUMP JUMPDEST PUSH2 0xB0F DUP2 DUP7 PUSH2 0xA6A JUMP JUMPDEST SWAP5 POP PUSH1 0x1 DUP3 AND PUSH0 DUP2 EQ PUSH2 0xB29 JUMPI PUSH1 0x1 DUP2 EQ PUSH2 0xB3E JUMPI PUSH2 0xB70 JUMP JUMPDEST PUSH1 0xFF NOT DUP4 AND DUP7 MSTORE DUP2 ISZERO ISZERO DUP3 MUL DUP7 ADD SWAP4 POP PUSH2 0xB70 JUMP JUMPDEST PUSH2 0xB47 DUP6 PUSH2 0xAE7 JUMP JUMPDEST PUSH0 JUMPDEST DUP4 DUP2 LT ISZERO PUSH2 0xB68 JUMPI DUP2 SLOAD DUP2 DUP10 ADD MSTORE PUSH1 0x1 DUP3 ADD SWAP2 POP PUSH1 0x20 DUP2 ADD SWAP1 POP PUSH2 0xB49 JUMP JUMPDEST DUP4 DUP9 ADD SWAP6 POP POP POP JUMPDEST POP POP POP SWAP3 SWAP2 POP POP JUMP JUMPDEST PUSH0 PUSH2 0xB84 DUP3 DUP5 PUSH2 0xAF9 JUMP JUMPDEST SWAP2 POP DUP2 SWAP1 POP SWAP3 SWAP2 POP POP JUMP JUMPDEST PUSH32 0x4E487B7100000000000000000000000000000000000000000000000000000000 PUSH0 MSTORE PUSH1 0x11 PUSH1 0x4 MSTORE PUSH1 0x24 PUSH0 REVERT JUMPDEST PUSH0 PUSH2 0xBC6 DUP3 PUSH2 0x5F9 JUMP JUMPDEST SWAP2 POP PUSH32 0xFFFFFFFFFFFFFFFFFFFFFFFFFFFFFFFFFFFFFFFFFFFFFFFFFFFFFFFFFFFFFFFF DUP3 SUB PUSH2 0xBF8 JUMPI PUSH2 0xBF7 PUSH2 0xB8F JUMP JUMPDEST JUMPDEST PUSH1 0x1 DUP3 ADD SWAP1 POP SWAP2 SWAP1 POP JUMP JUMPDEST PUSH32 0x796F75206861766520616C726561647920766F74656400000000000000000000 PUSH0 DUP3 ADD MSTORE POP JUMP JUMPDEST PUSH0 PUSH2 0xC37 PUSH1 0x16 DUP4 PUSH2 0x661 JUMP JUMPDEST SWAP2 POP PUSH2 0xC42 DUP3 PUSH2 0xC03 JUMP JUMPDEST PUSH1 0x20 DUP3 ADD SWAP1 POP SWAP2 SWAP1 POP JUMP JUMPDEST PUSH0 PUSH1 0x20 DUP3 ADD SWAP1 POP DUP2 DUP2 SUB PUSH0 DUP4 ADD MSTORE PUSH2 0xC64 DUP2 PUSH2 0xC2B JUMP JUMPDEST SWAP1 POP SWAP2 SWAP1 POP JUMP JUMPDEST PUSH0 PUSH2 0xC75 DUP3 PUSH2 0x5F9 JUMP JUMPDEST SWAP2 POP PUSH2 0xC80 DUP4 PUSH2 0x5F9 JUMP JUMPDEST SWAP3 POP DUP3 DUP3 ADD SWAP1 POP DUP1 DUP3 GT ISZERO PUSH2 0xC98 JUMPI PUSH2 0xC97 PUSH2 0xB8F JUMP JUMPDEST JUMPDEST SWAP3 SWAP2 POP POP JUMP JUMPDEST PUSH0 PUSH1 0x20 PUSH1 0x1F DUP4 ADD DIV SWAP1 POP SWAP2 SWAP1 POP JUMP JUMPDEST PUSH0 DUP3 DUP3 SHL SWAP1 POP SWAP3 SWAP2 POP POP JUMP JUMPDEST PUSH0 PUSH1 0x8 DUP4 MUL PUSH2 0xCE8 PUSH32 0xFFFFFFFFFFFFFFFFFFFFFFFFFFFFFFFFFFFFFFFFFFFFFFFFFFFFFFFFFFFFFFFF DUP3 PUSH2 0xCAD JUMP JUMPDEST PUSH2 0xCF2 DUP7 DUP4 PUSH2 0xCAD JUMP JUMPDEST SWAP6 POP DUP1 NOT DUP5 AND SWAP4 POP DUP1 DUP7 AND DUP5 OR SWAP3 POP POP POP SWAP4 SWAP3 POP POP POP JUMP JUMPDEST PUSH0 DUP2 SWAP1 POP SWAP2 SWAP1 POP JUMP JUMPDEST PUSH0 PUSH2 0xD2D PUSH2 0xD28 PUSH2 0xD23 DUP5 PUSH2 0x5F9 JUMP JUMPDEST PUSH2 0xD0A JUMP JUMPDEST PUSH2 0x5F9 JUMP JUMPDEST SWAP1 POP SWAP2 SWAP1 POP JUMP JUMPDEST PUSH0 DUP2 SWAP1 POP SWAP2 SWAP1 POP JUMP JUMPDEST PUSH2 0xD46 DUP4 PUSH2 0xD13 JUMP JUMPDEST PUSH2 0xD5A PUSH2 0xD52 DUP3 PUSH2 0xD34 JUMP JUMPDEST DUP5 DUP5 SLOAD PUSH2 0xCB9 JUMP JUMPDEST DUP3 SSTORE POP POP POP POP JUMP JUMPDEST PUSH0 PUSH0 SWAP1 POP SWAP1 JUMP JUMPDEST PUSH2 0xD71 PUSH2 0xD62 JUMP JUMPDEST PUSH2 0xD7C DUP2 DUP5 DUP5 PUSH2 0xD3D JUMP JUMPDEST POP POP POP JUMP JUMPDEST JUMPDEST DUP2 DUP2 LT ISZERO PUSH2 0xD9F JUMPI PUSH2 0xD94 PUSH0 DUP3 PUSH2 0xD69 JUMP JUMPDEST PUSH1 0x1 DUP2 ADD SWAP1 POP PUSH2 0xD82 JUMP JUMPDEST POP POP JUMP JUMPDEST PUSH1 0x1F DUP3 GT ISZERO PUSH2 0xDE4 JUMPI PUSH2 0xDB5 DUP2 PUSH2 0xAE7 JUMP JUMPDEST PUSH2 0xDBE DUP5 PUSH2 0xC9E JUMP JUMPDEST DUP2 ADD PUSH1 0x20 DUP6 LT ISZERO PUSH2 0xDCD JUMPI DUP2 SWAP1 POP JUMPDEST PUSH2 0xDE1 PUSH2 0xDD9 DUP6 PUSH2 0xC9E JUMP JUMPDEST DUP4 ADD DUP3 PUSH2 0xD81 JUMP JUMPDEST POP POP JUMPDEST POP POP POP JUMP JUMPDEST PUSH0 DUP3 DUP3 SHR SWAP1 POP SWAP3 SWAP2 POP POP JUMP JUMPDEST PUSH0 PUSH2 0xE04 PUSH0 NOT DUP5 PUSH1 0x8 MUL PUSH2 0xDE9 JUMP JUMPDEST NOT DUP1 DUP4 AND SWAP2 POP POP SWAP3 SWAP2 POP POP JUMP JUMPDEST PUSH0 PUSH2 0xE1C DUP4 DUP4 PUSH2 0xDF5 JUMP JUMPDEST SWAP2 POP DUP3 PUSH1 0x2 MUL DUP3 OR SWAP1 POP SWAP3 SWAP2 POP POP JUMP JUMPDEST PUSH2 0xE35 DUP3 PUSH2 0x657 JUMP JUMPDEST PUSH8 0xFFFFFFFFFFFFFFFF DUP2 GT ISZERO PUSH2 0xE4E JUMPI PUSH2 0xE4D PUSH2 0x6EF JUMP JUMPDEST JUMPDEST PUSH2 0xE58 DUP3 SLOAD PUSH2 0x9D2 JUMP JUMPDEST PUSH2 0xE63 DUP3 DUP3 DUP6 PUSH2 0xDA3 JUMP JUMPDEST PUSH0 PUSH1 0x20 SWAP1 POP PUSH1 0x1F DUP4 GT PUSH1 0x1 DUP2 EQ PUSH2 0xE94 JUMPI PUSH0 DUP5 ISZERO PUSH2 0xE82 JUMPI DUP3 DUP8 ADD MLOAD SWAP1 POP JUMPDEST PUSH2 0xE8C DUP6 DUP3 PUSH2 0xE11 JUMP JUMPDEST DUP7 SSTORE POP PUSH2 0xEF3 JUMP JUMPDEST PUSH1 0x1F NOT DUP5 AND PUSH2 0xEA2 DUP7 PUSH2 0xAE7 JUMP JUMPDEST PUSH0 JUMPDEST DUP3 DUP2 LT ISZERO PUSH2 0xEC9 JUMPI DUP5 DUP10 ADD MLOAD DUP3 SSTORE PUSH1 0x1 DUP3 ADD SWAP2 POP PUSH1 0x20 DUP6 ADD SWAP5 POP PUSH1 0x20 DUP2 ADD SWAP1 POP PUSH2 0xEA4 JUMP JUMPDEST DUP7 DUP4 LT ISZERO PUSH2 0xEE6 JUMPI DUP5 DUP10 ADD MLOAD PUSH2 0xEE2 PUSH1 0x1F DUP10 AND DUP3 PUSH2 0xDF5 JUMP JUMPDEST DUP4 SSTORE POP JUMPDEST PUSH1 0x1 PUSH1 0x2 DUP9 MUL ADD DUP9 SSTORE POP POP POP JUMPDEST POP POP POP POP POP POP JUMP INVALID LOG2 PUSH5 0x6970667358 0x22 SLT KECCAK256 PUSH19 0x88EC280F0C50AEC6BDCA7ADBD1CDD040ABBF90 0xB0 PUSH18 0xEACCE6EA8FB4F3E1D56A64736F6C63430008 0x1E STOP CALLER "
		},
		"gasEstimates": {
			"creation": {
				"codeDepositCost": "777800",
				"executionCost": "22916",
				"totalCost": "800716"
			},
			"external": {
				"candidates(uint256)": "infinite",
				"cc()": "infinite",
				"currentRound()": "2447",
				"getVotes(string)": "infinite",
				"resetVotes()": "infinite",
				"vote(string)": "infinite"
			}
		},
		"methodIdentifiers": {
			"candidates(uint256)": "3477ee2e",
			"cc()": "a2cdd471",
			"currentRound()": "8a19c8bc",
			"getVotes(string)": "805265e5",
			"resetVotes()": "b9830ff1",
			"vote(string)": "fc36e15b"
		}
	},
	"abi": [
		{
			"anonymous": false,
			"inputs": [
				{
					"indexed": true,
					"internalType": "address",
					"name": "resetBy",
					"type": "address"
				}
			],
			"name": "ResetVotesEvent",
			"type": "event"
		},
		{
			"anonymous": false,
			"inputs": [
				{
					"indexed": true,
					"internalType": "address",
					"name": "voter",
					"type": "address"
				},
				{
					"indexed": false,
					"internalType": "string",
					"name": "candidate",
					"type": "string"
				}
			],
			"name": "Voted",
			"type": "event"
		},
		{
			"inputs": [
				{
					"internalType": "uint256",
					"name": "",
					"type": "uint256"
				}
			],
			"name": "candidates",
			"outputs": [
				{
					"internalType": "string",
					"name": "",
					"type": "string"
				}
			],
			"stateMutability": "view",
			"type": "function"
		},
		{
			"inputs": [],
			"name": "cc",
			"outputs": [
				{
					"internalType": "string[]",
					"name": "c",
					"type": "string[]"
				}
			],
			"stateMutability": "view",
			"type": "function"
		},
		{
			"inputs": [],
			"name": "currentRound",
			"outputs": [
				{
					"internalType": "uint256",
					"name": "",
					"type": "uint256"
				}
			],
			"stateMutability": "view",
			"type": "function"
		},
		{
			"inputs": [
				{
					"internalType": "string",
					"name": "_candidate",
					"type": "string"
				}
			],
			"name": "getVotes",
			"outputs": [
				{
					"internalType": "uint256",
					"name": "",
					"type": "uint256"
				}
			],
			"stateMutability": "view",
			"type": "function"
		},
		{
			"inputs": [],
			"name": "resetVotes",
			"outputs": [],
			"stateMutability": "nonpayable",
			"type": "function"
		},
		{
			"inputs": [
				{
					"internalType": "string",
					"name": "_candidate",
					"type": "string"
				}
			],
			"name": "vote",
			"outputs": [],
			"stateMutability": "nonpayable",
			"type": "function"
		}
	]
}